:02000002B0004C
:1040000000400B000CB80B00000006000C0005027D
:084010000401E50C00000000B2
:0440180064A70B008E
:1040200009480A49884208B505D0094A824202D0A7
:10403000121A04F05DFB0748074A0021121A04F027
:104040007FFB014808BD00BF44E1032008B60B0018
:1040500020E3032020E30320EDE7032070B5074EA3
:10406000074C02F0FDFAA41BA4080025AC4200D1C5
:1040700070BD56F8043B98470135F7E7B4B50B001F
:10408000D8B50B0000F030BE08B500F0E9FDBDE882
:10409000084002F09DBA01F09DBF01F09BBF01F006
:1040A000A1BF01F09FBF01F09DBF0078B0FA80F082
:1040B000400970470123037070471FB50446084646
:1040C000039104F07DFB039B009062680021204671
:1040D00003F032FB04B010BD70B50B460C4653F82C
:1040E000081B9942054600680DD162680AB103F0C9
:1040F000A3FA63682A686B600021D1542268002308
:104100006360137070BD29606168696005F108061D
:10411000B042A16818BFAA68A96008BF002010B10A
:104120002060A260EAE72360E8E7000008B501F03C
:104130007DFD034B1860BDE8084001F033BF00BFB0
:1041400040E7032003682BB14268934202D218462D
:1041500004F05FBA0020704738B50568044645B1E1
:1041600043689D4205D2284604F02AFB01300544ED
:104170002560204638BDF8B5044647680D4621B98C
:1041800003687A1C4260D955F8BD084604F018FB54
:10419000A368461CF2199A42F6D82068324629468E
:1041A000384404F0A5FA606830446060ECE7000031
:1041B00038B504460B46D0E901012568044A091ABE
:1041C000284401F01FFF636801300344636038BD79
:1041D00078A70B0038B504460B46D0E901012568E5
:1041E000044A091A284401F00DFF636801300344B2
:1041F000636038BD7BA70B00F0B5D0F834C087B042
:1042000006460F46BCF1000F0CD00A46002361465B
:1042100002F0B2FC012816BF002001200746778774
:1042200007B0F0BD074B009300F120050FCD01ACA6
:104230000FC42B6823703A4663466946304602F045
:104240007BFDE7E7E8AD0B0010B50868084C04F00B
:10425000E0F90849013801EB0011204601F0BBFFED
:1042600002F01CFB2168BDE8104002F028B800BF36
:104270001CE403202CE4032038B50D46014613202E
:10428000144603F00FF82946122003F00BF82146DC
:104290001120BDE8384003F005B80000F0B52DED61
:1042A000028B02F1080323F0070389B0144600AF24
:1042B000ADEB030D6846002504F01AFA0DF8045022
:1042C00002F0ECFAB64901F0FAFF07F11003684674
:1042D000BB6004F075FA0F286E460DEB00047860A1
:1042E00008D92A46391D07F1080003F055F97B6803
:1042F000B8603B612246B868AA4C314603F0B4F975
:104300007B68BA68FB600021D154A74807F1080117
:10431000FFF7E2FE07F1080003F060F9A24920462A
:1043200003F0A7F9D4E9002313449A4209D0013BD2
:104330009A4206D21178187802F8010B03F8011995
:10434000F6E7994C02F0AAFA216801F0B8FF974904
:104350000022204603F0A5FA013034D09349944856
:10436000FFF7ABFE924C02F099FA216801F0A7FF2B
:10437000214600228C488F4C03F08DFA0323C2188B
:10438000894907F1080003F0F9FA07F1080120460E
:10439000FFF7A2FE07F1080003F020F9256801F0FD
:1043A00049FE066801F046FE002303600A2207F179
:1043B0000801284605F0E4F8BB689D42044626D172
:1043C0007D4803F019F87D490022204603F069FA80
:1043D000013001D07949C2E779490022204603F033
:1043E00060FA013001D07649B9E7764900222046CB
:1043F00003F057FA013001D07249B0E77249002248
:10440000204603F04EFA0130ACD06F49A7E701F027
:1044100011FE0368222B02D1674802F0F3FF01F07E
:1044200009FE036813B901F005FE0660674D2C60B4
:1044300002F034FA2C68002C064641DA2D2101F0F6
:104440002FFF61420A22304601F043FF304601F05F
:104450002AFF5F495348002203F023FA5C490646CD
:104460000022504803F01DFA5A4902464D4803F015
:1044700018FA5749044600224A4803F012FA023C4F
:10448000231A554C4749B21C07F1080003F076FA8D
:1044900007F108012046FFF71FFE07F1080003F0AF
:1044A0009DF8D4E90023134493420BD0013B9A4278
:1044B00008D21178187802F8010B03F80119F6E711
:1044C0002146BFE72068454C04F0A0F851EC100BE2
:1044D00004F028F8206002F0E1F994ED000A0221CE
:1044E00001F0E9FF94ED007AF7EE007AB4EEE77A96
:1044F000F1EE10FA12D53A493A48FFF7DEFD0022F4
:1045000011461046FFF7B8FE02F0C8F9344901F031
:10451000D6FE2437BD46BDEC028BF0BD2A492448A7
:1045200003F0CEF9C0B92B68042BE4DDD4ED007A9A
:10453000B0EE088AF4EEC87AF1EE10FA13D52A49E3
:104540002848FFF7BAFD00221146FF20FFF794FE2E
:1045500002F0A4F92449DAE71A49154803F0B0F942
:104560000028E0D0E2E71849114803F0A9F9002833
:104570003ED12B68092BE2DDD4ED007AF4EEC87A47
:10458000F1EE10FA3BDB19491648FFF796FD0022C1
:10459000FF211046FFF770FE02F080F91349B6E7DD
:1045A0007FA70B0098E30320C8E303208CA70B0030
:1045B00080E3032050E30320A0A70B0090A70B008B
:1045C00094A70B0098A70B009CA70B00ACE6032058
:1045D000A5A70B00FFAF0B0068E30320B4E60320A0
:1045E000A8A70B00B0E30320A9A70B00ADA70B0001
:1045F0001149124803F064F90028BAD0BCE70E490B
:104600000E4803F05DF978B92B68092BBBDC0C4927
:104610000C48FFF752FD00210846FF22FFF72CFE51
:1046200002F03CF9064972E70749044803F048F9EB
:104630000028E9D0EBE700BF98A70B0080E3032038
:10464000AEA70B00B0E303209CA70B0008B5002326
:1046500080F82D30006902F045FCBDE8084001F00B
:104660006FBA00002DE9F04301EB02098FB0494514
:10467000CDE9051980460D46164680F0928005A8C2
:104680000F88FFF769FD03684B4580F08A8005A815
:10469000FFF758FD47F276239F42C4B200F0A9808D
:1046A00027D847F261239F427ED047F264239F427E
:1046B00042D046F670539F4228D1634E634FDFF8D5
:1046C000A081059B99456CD905A8FFF73BFDC4B2B5
:1046D00005A8FFF741FD059D3146284604F066F820
:1046E0000146E0B9204602F089FD05A8FFF734FD38
:1046F000E7E747F264739F423FD047F276739F42E9
:1047000000F0878047F261739F425FD00023CDE9BC
:10471000013302220092B8F82A20194629E03946CE
:10472000284604F043F828B14146284604F03EF8F4
:104730000028DAD10121D5E70AAB4549079307A83C
:1047400010230025CDE90853FFF715FD07A82146E2
:10475000FFF72EFD204602F07BFD014607A8FFF77C
:1047600039FD089BCDE90155013B0093079B2A4683
:104770001421404600F01CFB13E005A8FFF7ECFCF9
:10478000036899450DD9A4B20121204602F036FDF7
:1047900005A8FFF7D7FC011E18BF0121204602F033
:1047A0003EFD0FB0BDE8F0830AAB079307A81023C6
:1047B00028490025CDE90853FFF7DDFC07A821466D
:1047C000FFF7F6FC204602F056FDC6E705A8FFF706
:1047D000C3FC03689945E4D9A4B20121204602F044
:1047E0000DFD05A8FFF7AEFC0146204602F05AFD7C
:1047F000D7E72046ADF8284001F0A4F903460AA8FF
:1048000023B1154A934201D09847CAE701F096F9BF
:10481000C7E705A8FFF7A0FC059BADF81C405D1B92
:10482000751B2046CDE90A350C9501F095F9034634
:104830000AA907A823B1094A934201D09847B0E7D3
:1048400001F07DF9ADE700BFB2A70B00B5A70B00E3
:10485000BDA70B00C0A70B003D5B0B003F5B0B002F
:10486000B9A70B002DE9F0418CB004AF0446052236
:104870000069391D01F043FEA8B3052804D00020CB
:104880002037BD46BDE8F081B7F805305BBA9AB273
:10489000A7F80530B7F807305BBA1FFA83F8A7F816
:1048A0000730002AEBD03B793BBB01F045F90246CB
:1048B000E06194F82D00B7F80730D0B9B7F80510CB
:1048C000012916D1092B10D0C82B01D0042BD7D128
:1048D00001256262204684F82D5000F067FBFFF747
:1048E00025FC01F02DF90120CAE7032384F82D30BF
:1048F000C6E7581F18BF0120C2E7B8F5806F03D97B
:104900002046FFF7A3FEEEE708F108036E46DB083A
:10491000A6EBC3039D4604AD20694246294601F03B
:10492000EEFD80454FF0000041D1B7F80730E85464
:1049300001F002F93B79E061142B69D009D80F2B03
:1049400066D0112B71D0062B16D02046FFF77EFEC5
:104950001DE0292B1DD0372B19D01D2BF5D194F834
:104960002D304BB9012384F82D30204600F01EFB7A
:10497000FFF7DCFB01F0E4F80023C821B7F80520BD
:104980000091CDE901331946204600F011FA0120CB
:104990000DE0A3691BB9402001F01CFBA061B7F832
:1049A0000780A8444545C7E9055802D30020B5460D
:1049B00066E729464022A06903F01EFFA36900258F
:1049C00083F83F5007F11400FFF7C6FB03689845D2
:1049D0001CD9786920B1BB69984215D203F01DFE3D
:1049E00085B2206902F07EFA2369A2695A631D87A5
:1049F000002384F82D3001F09FF8A0F59C50083872
:104A0000C4E907006062C2E72846E9E75025E8E705
:104A10007B68B7F80720C3F30F2363852946204638
:104A2000FFF720FE00236385B1E700233B80B7F842
:104A300007302B449D42C7E90353A8D207F10C006D
:104A4000D5F80080FFF788FBFB68B7F807105D1BFF
:104A50004D1BC7E905357B68FD61C3F30F236385F3
:104A60002D4B984552D020D8A3F57F236FF40072C8
:104A70001344984532D00FD8A3F50033063B984530
:104A800032D003F5003303339845CBD107F114013D
:104A9000384601F054F8C5E7204B9845C2D107F1DC
:104AA0001401384601F04BF8BCE71D4B984521D066
:104AB00003F19F6303F5003303F5807398451FD01E
:104AC00003F16E4303F5302303F586739845A9D1AE
:104AD00007F11401384601F032F8A3E707F1140199
:104AE000384601F02CF89DE707F11401384601F033
:104AF00026F897E707F11401384601F020F891E70E
:104B000007F11401384601F01AF88BE707F1140198
:104B1000384601F014F885E7766673006462670032
:104B200061636F6E70B5044686B00D46FFF7FEFAFE
:104B300094F82D30022B22D094F82C30628D013362
:104B4000DBB284F82C30AAB9022B13D8206902F00A
:104B500091F8B0B125B9206902F06AF9002810DD9A
:104B60002046FFF77FFE0028F5D1206902F0BAF950
:104B700000F0E6FF94F82C30013B84F82C3006B0AE
:104B800070BD00F0D9FF0546206902F073F894F873
:104B90002D60012E24D120B965622046FFF756FD15
:104BA000E8E7E3694FF21862EB1A9342F5D84AF648
:104BB000C872934203D8236AEB1A9342DAD9636A24
:104BC00041F27072EB1A9342D4D90023CDE901333C
:104BD00000931A460621204600F0EAF86562C9E70C
:104BE000002EC7D1636AEB1A48B141F2707293424A
:104BF000C0D9206902F076F984F82D60BAE741F255
:104C000088329342B6D9206902F06CF92669318F57
:104C10003046FFF7F1FA48B9338F502B1AD141F6DD
:104C200090713046FFF7E8FA0028D7D06369059302
:104C300001251846258503F0C3FD0022CDE9012298
:104C4000059B00902A461D21204600F0B1F8236AFA
:104C500063628FE741F690729342BFD15021E0E743
:104C600030B51A4885B00021FFF75CFF184800F006
:104C70003FFCD8B1164800F012FE164D2C6800F02B
:104C8000D5FF04F51C54103484420DD8124B13493F
:104C90001A680F4800F0A7FD01F000FE104901F06E
:104CA0000EFB00F0C3FF286005B030BD684601F080
:104CB00081F90099064800F00BFD684601F02CFAD6
:104CC0000849034800F033FFD7E700BF20E3032083
:104CD0004CE60320B0E603201CE40320D3A70B001E
:104CE000E3A70B00C3A70B00F8B501F0D7FD4FF405
:104CF000165101F0C7FD01F0D1FD2849284C01F003
:104D0000DEFA41F2883001F021FC01F0C7FD2549AF
:104D100001F0D5FA40F6B83000F00CFF224B636189
:104D200000F00AFFA0F59C502369204A5A63083816
:104D3000C4E90700502260621A87002644F24F67D8
:104D4000206902F0CFF884F82D6000F0F5FE0546EA
:104D500094F82D30012B0DD000F0EEFE401BB84230
:104D600004D800212046FFF7DDFEF1E794F82D304E
:104D7000012BE5D10121132002F040FA012112207C
:104D800002F03CFA0121112002F038FA0022BDE8BD
:104D9000F84011461046FFF76FBA00BFF0A70B00AE
:104DA00020E30320FAA70B0001A80B0022A80B00A8
:104DB0002DE9F04F91B004AF04460069BD6D8946FE
:104DC00016469A46EB4601F055FF002800F0B580E4
:104DD000B9F11D0F04D8714B23FA09F3DB0720D476
:104DE00094F82D30012B40F0A880A9F10F03052B7A
:104DF00017D8D4E90723934238BF134603F142087A
:104E000000F09AFEA8EB00000028C0F29B80002171
:104E10002046FFF787FE00F08FFEA8EB0000002879
:104E2000F5DA2378012B2DD102232370D4E9022354
:104E3000134307F118004FF0000800F08C8018238E
:104E4000C7E9030856497B6107F10C00FFF793F9A6
:104E5000D7E9043194ED027BF868524AC91A184424
:104E60008DED007B01F0CEF83B69013018443861CC
:104E7000CDE9018801380090FB68424615212046A3
:104E8000FFF796FF46B9668D36B9238D01339BB285
:104E9000002B70D02385268DBAF1000F6DD005F15F
:104EA0000508FB6D002B3B6E08BF0023984408F1FA
:104EB000070323F00703ADEB030D04AB7B603B6EF0
:104EC0008DF81090EA18C2F3072376BA43EA02235A
:104ED000ADF81160ADF81330BAF1000F50D0002DCD
:104EE0004ED02A4651460DF1150003F001FC681D15
:104EF000FB6D3BB13B6E2BB11A467B68F96D1844D4
:104F000003F0F6FB002545453ED2A8EB05027B6881
:104F10002069B2F5806F28BF4FF48062591901F003
:104F200080FD0646002000F005FE5EBB206901F012
:104F3000D9FF84F82D6000F003FE3437DD46BD460E
:104F4000BDE8F08F94F82C1000297FF46AAF20465A
:104F5000FFF7E8FD65E707F10C03C7E906381249DA
:104F600004233B62FFF707F9CDE90188FB69013BA8
:104F70000093BB6981E701238CE74FF0050890E7B8
:104F80000520B5E73544BEE703D02046FFF75EFBBA
:104F9000D3E700F0D1FD2062CFE700BF4100002041
:104FA000E1A70B002EA80B0033A80B0030B599B079
:104FB00008AB044605930025402305A80B49CDE91D
:104FC0000653FFF7D8F805A80949FFF7D4F8069B60
:104FD000013B0293059B0193712300932A46054BE5
:104FE00011212046FFF7E4FE19B030BD35A80B00B3
:104FF0003AA80B00E7A80B0073B57D4C7D4E204608
:1050000001F0BAFF04F11C0001F096FB7A4B002579
:1050100000210020C3E90201C3E904451D70C3E972
:105020000655C3E908559D629D85744B03F108023E
:10503000C3E90025C4E90D551D7200F0F7FD704B62
:10504000704C1860704B71491D7203F10802C3E97E
:1050500000256F4B03F10802C3E900251D722046AD
:1050600001F0A5F86B4904F1100001F0A0F86A49BD
:1050700004F1200001F09BF8684904F1300001F0D0
:1050800096F8674904F1400001F091F8654904F190
:10509000500001F08CF8644904F1600001F087F8D9
:1050A000624904F1700001F082F8614904F1800066
:1050B00001F07DF85F4904F1900001F078F85E4955
:1050C00004F1A00001F073F85C4904F1B00001F0B4
:1050D0006EF85B4904F1C00001F069F8594904F128
:1050E000D00001F064F8584904F1E00001F05FF8E5
:1050F000564904F1F00001F05AF8554904F5807062
:1051000001F055F8534904F5887001F050F8524900
:1051100004F5907001F04BF8504904F5987001F0D7
:1051200046F84F4904F5A07001F041F84D4904F5E7
:10513000A87001F03CF84C4904F5B07001F037F864
:10514000314604F5B87001F032F8484904F5C070F2
:1051500001F02DF8464904F5C87001F028F84549DA
:1051600004F5D07001F023F8434904F5D87001F03C
:105170001EF8424904F5E07001F019F8404904F5C1
:10518000E87001F014F83F4904F5F07001F00FF8F1
:105190003D4904F5F87001F00AF83C4904F5007047
:1051A00001F005F83A4904F5047001F000F83146C1
:1051B000384800F0FCFF384B38491D7203F10802F3
:1051C000C3E90025364B37481D7203F10802C3E9D5
:1051D0000025354B03F10802C3E900251D720123A8
:1051E000009340F25B72314B00F0A6F802B070BD44
:1051F000E0E30320A4A80B0020E30320B0E3032096
:10520000B0E603202CE4032080E3032048A80B0031
:1052100050E303204CA80B0050A80B0054A80B002F
:1052200058A80B005CA80B0060A80B0064A80B003A
:1052300068A80B006CA80B0070A80B0074A80B00EA
:1052400078A80B007CA80B0080A80B0084A80B009A
:1052500088A80B008CA80B0090A80B0094A80B004A
:1052600098A80B009CA80B00A0A80B00A8A80B00F6
:10527000ACA80B00B0A80B00B4A80B00B8A80B009A
:10528000BCA80B00C0A80B00C4A80B00C8A80B004A
:10529000CCA80B001CE4032068E30320D0A80B007B
:1052A000C8E303204CE6032098E303209D420B0053
:1052B00091F85C3010B50446016013B1886D00F0C0
:1052C000C5FC204610BD10B5036893F85C20044669
:1052D00012B1986D00F0C2FC204610BDF8B51F4613
:1052E0009DF8243004460D4616462BB1012380F864
:1052F0005C30583000F0A2FC089B236300236363FA
:1053000006B1A66425B1294604F1380000F072FF09
:10531000069B2365079BE069A4F84C70FF2BB8BF80
:10532000FF23A4F8543008B1FEF7BBFEB4F85400D4
:10533000FEF7B3FEE061F8BD2DE9FF41044600250C
:10534000174698460E4601F017FE0D49E56104F137
:10535000380000F02CFF9DF82830A564CDE90283C9
:10536000FF220F23CDE90032204684F85C503B46F3
:105370002A463146FFF7B2FF204604B0BDE8F0816F
:1053800000B00B0010B50446204601F051FD002886
:10539000FAD0204601F05AFBC0B210BD2DE9F0470B
:1053A00005468846FFF7EEFFEB691870EB6993F846
:1053B00000A04FF001090AF0F00A00274C462846E9
:1053C000FFF7E0FF2646EB69985500F07F0313FBDB
:1053D00009F31F4401340306A4B2BFB24FEAC9194E
:1053E000EDD4631EBAF1300F88F800301ED1284684
:1053F000FFF7C8FFEB6918552846FFF7C3FFF41CF9
:105400000236B6B2EB69A4B298550226B6B2BE42D5
:105410000ED22846FFF7B6FFB5F85430A34284BF3A
:10542000EB6918550134A4B20136EFE70026EDE729
:10543000B5F85430A3422CBF20460020BDE8F087C9
:105440002DE9F34115461E461A46074600239646A7
:1054500002A802F07F0CBEF17F0F03F101040344A8
:1054600088BF4CF0800CBEF17F0F4FEAD212E4B23D
:1054700003F804CC1ED8C4F10403C4F10500E954B8
:10548000224601A9284405EB030803F031F9721CF8
:1054900022444146384601F0C4FA054600F0C6FBF6
:1054A000621C78623244A8B2131A5842584102B0C2
:1054B000BDE8F0812346CAE70233F0B5054698B24D
:1054C0000023CE5C9CB256B1B5F854C0844503F1BC
:1054D000010704D9441C16543B46A0B2F1E799B227
:1054E000411A0A44210A02F8021C02F8013CF0BDEC
:1054F00038B5044601F0BEFB002814BF0125002585
:1055000002D1204601F0EEFC284638BD2DE9F047D7
:1055100088B00446DDF840809DF850A089461746C3
:105520001E46FFF7E5FF0546002840F0CD802146E6
:1055300001A8FFF7BDFEA16C002940F08880B4F8F7
:105540004C20A16B2B46204601F016FB00287AD098
:10555000012323849DF85430E269042B5B4B40F017
:105560008180186899889B79ADF80C108DF80E3001
:105570000290C2F805009DF80E30BDF80C10A2F89C
:105580000910D3720C23B8F1000F00F081809DF850
:1055900048009DF84420400140EAC20040F0060067
:1055A000C0B2BAF1000F01D100F0FD001FB1002E12
:1055B00070D140F08000E269D054226DE169581C3E
:1055C00012120A549A1CE169206D88540333E2696F
:1055D00049462046FFF770FF0346B8F1000F0BD095
:1055E000E26941462046FFF767FFE26913990346E7
:1055F0002046FFF761FF034667B1E269394620465E
:10560000FFF75AFF03462EB1E26931462046FFF705
:1056100053FF0346053BE2699BB210212046FFF78A
:105620000FFF00F003FBC4E909004FF47A7620462F
:1056300001F0FEFB88BB00F0F9FAA36AC01A236DE3
:1056400073439842F3D9204601F04CFC35E002A8A0
:1056500001F0B6F8B4F84C202B4602A9204601F020
:105660006BFB73E7D3F80700D3F80B10DB7B0DF16E
:10567000080CACE803008CF8003002AB03CBC2F896
:105680000500C2F809109CF8003053730E237AE726
:10569000022086E740F0C0008DE702A92046FFF710
:1056A0007DFE0428CFD1E369DE78002ECBD100F057
:1056B000BDFA0125A06284F82C6001A8FFF703FE63
:1056C000284608B0BDE8F0870025F9E75AA90B0085
:1056D0007FB501230422CDE904320023CDE9023352
:1056E000CDE900331A46FFF711FF07B05DF804FB60
:1056F0002DE9F74FDDF83C809DF834509DF8389047
:1057000004468B4616461F46FFF7F2FE82460028E7
:1057100051D0214601A8FFF7CBFDB4F85420E06931
:10572000002103F00DF80523E26959462046FFF7F2
:10573000C3FE6B1E012B15D8218CE369013189B2A0
:105740002184090A1954421CE369218C92B2023067
:10575000995480B2B8F1000F04D0238C5A1C2284D3
:10576000A8F8003000210B188F42E2699BB20AD9D9
:10577000B4F854C09C4506D916F801C002F803C01D
:10578000013189B2EFE79DF8301000290CBF3021BC
:105790003121B9F1000F01D041F00801022D0ED1E5
:1057A00041F00401053B9BB22046FFF749FE8246CB
:1057B00001A8FFF788FD504603B0BDE8F08F012D2A
:1057C00008BF41F00201EDE71FB5089C03940024D7
:1057D00002949DF81C4001949DF818400094FFF736
:1057E00087FF04B010BD30B587B004461046059160
:1057F000049202F0E5FF00250346CDE90155DDE9FD
:10580000042100952046FFF7DFFF07B030BD73B5D8
:1058100004460E46FFF76CFE0546C8B1214601A8B6
:10582000FFF746FDE36962221A70E36902225A70AB
:10583000E369320A9A70E369DE70E1690422204666
:1058400001F0EFF8051E01A818BF0125FFF73BFD89
:10585000284602B070BD73B504460E46FFF748FEF9
:105860000546C8B1214601A8FFF722FDE36972226F
:105870001A70E36902225A70E369320A9A70E36986
:10588000DE70E1690422204601F0CBF8051E01A874
:1058900018BF0125FFF717FD284602B070BD2DE99E
:1058A000F04F2DED028B87B000AF0446FFF720FECE
:1058B0008146F8B1214607F11400FFF7F9FC00F02A
:1058C000B5F9236D4FF47A725343A26A821A9A4251
:1058D000064603D8626A821A934221D294F82C3089
:1058E0007BB1204601F0FEFA4FF0000907F11400E9
:1058F000FFF7E9FC48461C37BD46BDEC028BBDE80E
:10590000F08FE269C0211170E2695370E1690222EF
:10591000204601F086F8C4E90966012384F82C309A
:10592000204601F085FA0028E0D007F11301204657
:10593000FFF734FD83460028D8D0E369A6621978C2
:1059400001F0F002302A7FD1D4F830A0BAF1000F74
:10595000CCD097F813C06A4608EE102A03EB0C026D
:105960005178957805EB0125ADB205F1080269463D
:10597000D208A1EBC20295460CF10302FA6003EBD8
:10598000020E0DEB05026846C7F808D07A60D7E929
:1059900001218A4206D00A461EF8018B02F8018BCB
:1059A000BA60F4E70022425593F80080F96808F0E5
:1059B0000608ABEB0C02033AB8F1020FA2EB0502AA
:1059C000294425D113F801E01944023A91F801B0B5
:1059D0000CF10501294419440BEB0E2BD047E36968
:1059E00040221A70E3691FFA8BFB83F80180E36998
:1059F0004FEA1B229A70E36983F803B0E16904223D
:105A0000204601F00EF8666218EE103A9D466DE7EA
:105A1000B8F1040F15D113F801E01944023A91F8D6
:105A200001B00CF10501294419440BEB0E2BD047B2
:105A3000E36950221A70E36902221FFA8BFB5A7045
:105A4000D5E71944D047DFE7502A08D19A78D978AA
:105A500001EB022189B22046FFF7D9FE46E7402A32
:105A600012D1626B002A3FF441AFBBF1040F7FF407
:105A70003DAF11F0060F7FF439AF9978D87800EB7D
:105A8000012080B2904731E7602A08D19A78D9780E
:105A900001EB022189B22046FFF7DDFE26E7702ADE
:105AA000DFD0902A3FF422AFC02A0AD1D0221A7048
:105AB000E36900225A70E1690222204600F0B1FF3A
:105AC00014E7D02A04BF002384F82C300EE7F7B582
:105AD00004460F461646FFF70BFD054610B3214658
:105AE00001A8FFF7E5FB238C01339BB2EBB12384C4
:105AF000238CE2691B0A5371E369228C9A71E26973
:105B0000072339462046FFF7D7FCE3691E540438C3
:105B100083B2E26982212046FFF792FC054601A884
:105B2000FFF7D1FB284603B0F0BD0123DFE70022D9
:105B3000FFF7CDBF00F00ABD00F078B8704770479E
:105B40007047000003065ABF024B53F820000020A4
:105B5000704700BF6CA90B0003065ABF024B53F8F5
:105B600020000020704700BF6CAB0B0008B5024B53
:105B70001B689B68019308BD6802030008B5024BCF
:105B80001B68DB68019308BD6802030008B5024B7F
:105B90001B685B68019308BD2C02030008B5024B2B
:105BA0001B689B68019308BD2C02030008B5024BDB
:105BB0001B68DB68019308BD2C02030008B5024B8B
:105BC0001B681B69019308BD2C02030008B5024B3A
:105BD0001B685B69019308BD2C02030008B5024BEA
:105BE0001B689B6A019308BD2C02030008B5024B99
:105BF0001B681B6B019308BD2C02030008B5024B08
:105C00001B689B6F019308BD2C02030008B5024B73
:105C10001B685B69019308BD6C02030008B5024B69
:105C20001B685B68019308BD1802030008B5024BAE
:105C30001B685B69019308BD1802030008B5024B9D
:105C40001B681B6B019308BD4802030008B5024B9B
:105C50001B689B6B019308BD4802030008B5024B0B
:105C60001B681B6C019308BD4802030008B5024B7A
:105C70001B685B6C019308BD4802030008B5024B2A
:105C80001B685B69019308BD6402030008B5024B01
:105C90001B681B6A019308BD6402030008B5024B30
:105CA0001B689B6A019308BD6402030008B5024BA0
:105CB0001B68DB68019308BD3C02030008B5024B7A
:105CC0001B681B69019308BD3C02030008B5024B29
:105CD0001B685B69019308BD3C02030008B5024BD9
:105CE0001B689B69019308BD3C02030008B5024B89
:105CF0001B68DB69019308BD3C02030008B5024B39
:105D00001B681B6A019308BD3C02030008B5024BE7
:105D10001B689B6A019308BD3C02030008B5024B57
:105D20001B681B6C019308BD3C02030008B5024BC5
:105D30001B681B6A019308BD2802030008B5024BCB
:105D40001B685B6A019308BD2802030008B5024B7B
:105D50001B689B6A019308BD2802030008B5024B2B
:105D60001B68DB6A019308BD2802030008B5024BDB
:105D70001B681B6B019308BD2802030008B5024B8A
:105D80001B685B6B019308BD2802030008B5024B3A
:105D90001B681B6C019308BD2802030008B5024B69
:105DA0001B689B69019308BD3802030008B5024BCC
:105DB0001B68DB69019308BD3802030008B5024B7C
:105DC0001B681B6A019308BD3802030008B5024B2B
:105DD0001B689B6A019308BD3802030008B5024B9B
:105DE0001B681B6B019308BD3802030008B5024B0A
:105DF0001B689B6B019308BD3802030008B5024B7A
:105E00001B68DB69019308BD3002030008B5024B33
:105E10001B681B6A019308BD3002030008B5024BE2
:105E20001B681B68019308BD4C02030008B5024BB8
:105E30001B685B68019308BD4C02030008B5024B68
:105E40001B681B69019308BD4C02030008B5024B97
:105E50001B685B69019308BD4C02030008B5024B47
:105E60001B689B69019308BD4C02030008B5024BF7
:105E70001B68DB69019308BD4C02030008B5024BA7
:105E80001B681B6A019308BD4C02030008B5024B56
:105E90001B681B6D019308BD6002030008B5024B2F
:105EA0001B685B68019308BD2002030008B5024B24
:105EB0001B685B69019308BD2002030008B5034B12
:105EC0001B68D3F88830019308BD0000200203004E
:105ED00008B5034B1B68D3F89430019308BD00004C
:105EE0002002030008B5024B1B685B68019308BDE4
:105EF0004002030008B5024B1B689B68019308BD74
:105F00004002030008B5024B1B68DB68019308BD23
:105F10004002030008B5024B1B681B69019308BDD2
:105F20004002030008B5024B1B685B69019308BD82
:105F30004002030008B5024B1B689B69019308BD32
:105F40004002030008B5024B1B68DB69019308BDE2
:105F50004002030008B5024B1B681B6A019308BD91
:105F60004002030008B5024B1B681B6B019308BD80
:105F70004002030008B5024B1B685B6B019308BD30
:105F80004002030008B5024B1B681B6C019308BD5F
:105F90004002030008B5024B1B685B6C019308BD0F
:105FA0004002030008B5024B1B689B68019308BDC3
:105FB0004402030008B5024B1B68DB69019308BD6E
:105FC0004402030008B5024B1B68DB6B019308BD5C
:105FD0004402030008B5024B1B681B68019308BD0F
:105FE0001C02030008B5024B1B685B68019308BDE7
:105FF0001C02030008B5024B1B689B68019308BD97
:106000001C02030008B5024B1B68DB69019308BD45
:106010001C02030008B5024B1B68DB6A019308BD34
:106020001C02030008B5024B1B681B6B019308BDE3
:106030001C02030008B5024B1B68DB6B019308BD13
:106040001C02030008B5024B1B681B6C019308BDC2
:106050001C02030008B5024B1B685B6C019308BD72
:106060001C020300002240681146FFF773BF0022A4
:1060700040681146FFF77EBF40680022FFF772BFFD
:106080004068002281F00101FFF75CBF00234068F7
:106090001A461946FFF74EBF002340681A461946B4
:1060A000FFF740BF002240681146FFF733BF0022D0
:1060B00040681146FFF71EBF406800220221FFF72B
:1060C00021BF002340681A46FFF70CBF024B032292
:1060D0005A60024A1A607047C4E6032074AD0B0090
:1060E00010B5044608462170FFF788FE0023636060
:1060F000204610BD054B02221A60054B054A9A60E6
:106100000020C3E90000FFF7C9BE00BFD8E60320A6
:10611000CCE603200000FFFF10B504460068FFF73F
:1061200061FF204610BD10B50446006808B1FFF7B6
:1061300059FF0023C4E90133236010BD38B504467C
:106140000D4600680131FFF755FF10B1C4E90005A5
:10615000012038BD10B50368044623B143688B4263
:1061600001D3012010BD2046FFF7E8FF0028F9D039
:10617000A368002BF5D122681370F2E737B50D46FE
:10618000114601920446FFF7E5FF019A28B920461F
:10619000FFF7C9FF204603B030BDA2602946206842
:1061A00002F0A6FA2268A3680021D154F2E7002386
:1061B00013B5C0E9003304468360037341B1084658
:1061C000019102F0FDFA019902462046FFF7D6FF41
:1061D000204602B010BD884210B5044605D00B68B9
:1061E0002BB18A681946FFF7C9FF204610BDFFF79B
:1061F0009AFFFAE713B5044659B10846019102F037
:10620000DFFA019902462046FFF7B8FF204602B0A8
:1062100010BDFFF788FFF9E710B54368013B04465E
:10622000436063B903689B689847A368013BA36018
:106230002BB923682046DB68BDE81040184710BD25
:10624000024800230360FFF711BD00BFDCE6032016
:10625000F8B506460D468F180024BD420CD03368B1
:1062600015F8011B9B6830469847031E01DB1C4450
:10627000F3E7002C08BF1C462046F8BD13B50446C2
:10628000084659B1019102F09BFA23680199DB6835
:106290000246204602B0BDE81040184702B010BDCB
:1062A00003689B68184738B50D210546FFF7F8FFCE
:1062B0000A2104462846FFF7F3FF204438BD38B5CD
:1062C0000546FFF7DBFF04462846FFF7ECFF2044B6
:1062D00038BD30B58BB00023012A8DF8243098BF2B
:1062E0000A2209AC0D46B1FBF2F101FB125303F097
:1062F000FF03092B94BF30333733DBB2AA4204F8D3
:10630000013DEFD92146FFF7B9FF0BB030BD0000CA
:106310002DE9F74F55EC104B06460F4610EE102AAC
:1063200010EE100A2B46294602F09EF840B1534960
:106330003046FFF7A3FF8246504603B0BDE8F08F1A
:1063400025F000494E4B4FF0FF322046494602F0FF
:106350008BF848B94A4B4FF0FF322046494602F0CD
:1063600065F808B94749E3E7474B4FF060422046DC
:10637000294602F06FF808B14449D9E7444B4FF081
:1063800060422046294602F047F80028F4D1002256
:1063900000232046294602F03FF8D0B12D21304697
:1063A000FFF77EFF05F1004382461D463949DFF8BD
:1063B000EC904FF0000B00204FF000085FFA8BF3D9
:1063C0009F4208D942464B4601F0DEFE0BF1010B1D
:1063D000F4E78246EAE722462B4601F0F5FB0D463C
:1063E000044602F07FF8804601F02AFD02460B4683
:1063F0002046294601F0E6FB0A2204460D463046B7
:106400004146FFF766FF8244002F95D02249DFF80E
:106410008C903046FFF732FF4FF000088244002F87
:106420008AD042464B462046294601F083FD044669
:106430000D4602F02FF8B0F1000B1CDA2D2130468A
:10644000FFF72EFFCBF1000103460A2230460193ED
:10645000FFF73FFF019B18448244584601F000FDBE
:1064600002460B462046294601F0ACFB013F04469C
:106470000D46FFB2D3E759460023E6E7B0AD0B0067
:10648000FFFFEF7FB4AD0B00FFFFEF41B8AD0B0096
:10649000FFFFEFC10000E03FBCAD0B000000244057
:1064A00038B5C9B20546FFF733FF04462846FFF763
:1064B000FAFE204438BD38B5044610EE100A0D46E9
:1064C00001F0E0FC41EC100B29462046BDE83840C5
:1064D000FFF7E6BF10B50446FFF7A8FBE0602368AE
:1064E00020465B699847002808DAFFF79FFBE368BE
:1064F000C01AA3689842F2D34FF0FF3010BD2DE9C7
:10650000F04107460C468E180D46B542A5EB04082F
:1065100007D03846FFF7DEFF031E02DB05F8013B1C
:10652000F3E74046BDE8F081014B024A1A6070472C
:10653000E0E60320BEAD0B00024B1A68024B1A6066
:10654000704700BF44E10320E4E603200021FFF789
:10655000ADBC000010B5044B03600446806908B16F
:10656000FFF75AFE204610BDB8AE0B0010B504462A
:10657000FFF7F0FF20461C21FDF795FD204610BDDA
:10658000014B00229A607047E8E60320014B186037
:10659000704700BF48E1032008B50B4B43B100F042
:1065A0007DF903681B699847002801DDAFF300807F
:1065B000064B43B100F0B8FE03681B6998470028FA
:1065C00001DDAFF3008008BD000000000000000006
:1065D00008B5FFF7E1FFFFF729FB014B186008BD85
:1065E00040E703200548064A064908B5121A02F09A
:1065F0007FF8054B054A1A6008BD00BF00F4032070
:1066000004F4032004B60B0000F403201E1C279A98
:1066100007B5002300931A466FF07701FFF758FC87
:1066200003B05DF804FB000007B543880A2B08D0CF
:10663000502B0BD1094B1B684BB103B05DF804EB39
:106640001847FFF7E5FF03B05DF804FB0023009354
:106650001A466FF07701FFF73BFCF4E7FCE60320F6
:1066600010B512480021FFF7F5FC114B1A68114BC9
:106670009A42114B0CBF012200221A7001D0FFF781
:10668000B1FFFFF7CBFA044602F062F80B4B13B1EF
:106690002046AFF3008000210848FFF793FCBDE8D7
:1066A000104007480021FFF709BC00BF8D650B00B3
:1066B00000F403201E1C279AF8E6032000000000C7
:1066C00029660B00704710B518210446FDF7EBFC56
:1066D000204610BDF0B5037D062B8DB00E4600F1AF
:1066E00004074FF0000412D000F1080515F8011D51
:1066F0000A223046FFF7EDFDAF42044419D0002CCA
:10670000F4D02E213046FFF7CBFD0444EEE72F23D3
:106710006A4639460A208DF80040FFF7AFFA68460E
:1067200002F04EF833680246DB6869463046984707
:10673000044620460DB0F0BD10B5054B04461122AD
:1067400040F8043B002101F0FBFF204610BD00BFD4
:10675000E8AD0B000346074A10B543F8042B01F1DE
:10676000100251F8044B43F8044B9142F9D10A78D6
:106770001A7010BDE8AD0B00037D042B04D14068F6
:10678000003818BF01207047062B07D143683BB97A
:1067900083682BB9C3681BB90069F1E70020704713
:1067A0000120704710B59DF8084044EA032343EAEE
:1067B000024242EA016104234160037510BD0000FA
:1067C00007B5064B0360CB7800938B784A7809783D
:1067D000FFF7E8FF03B05DF804FB00BFE8AD0B0076
:1067E000417470477047704708B50021007CFFF77F
:1067F00035FB40EAE07008BD08B50121007CFFF7D9
:106800002DFB40EAE07008BD08B5007CFFF71EFBD9
:1068100020EAE07008BD08B5007CFFF70FFB20EA16
:10682000E07008BD13B50446007C0191FFF70EFB34
:106830000028019901DC607C20B1207CFFF716FB69
:1068400020EAE07002B010BD007CFFF717BB10B566
:1068500014210446FDF727FC204610BD10B54FF467
:106860007A73044608460021C4E90113044B2360EF
:106870000123207463741146FFF7D0FA204610BD3F
:10688000FCAD0B00007C0022FFF7D0BA10B514223B
:106890000446002101F054FF204610BD10B50F4CF6
:1068A00088B003A8FFF7F2FF2178BFF35B8F11F0E8
:1068B00001010FD120460191FDF7F7FB019948B185
:1068C00003AA0748FFF7CAFF2046FDF7F3FB054878
:1068D00001F096FE024808B010BD00BF00E703209B
:1068E00004E70320E5670B0070474174704708B563
:1068F000007CFFF70BFA20EAE07008BD08B5007CC9
:10690000FFF7DCF920EAE07008BD08B5007CFFF76E
:10691000E5F940EAE07008BD08B5007CFFF7D6F95C
:1069200040EAE07008BD007CFFF7E0B937B5457C70
:1069300004462DB1207C03B0BDE83040FFF7B6B966
:10694000007C0191FFF7E2F900280199F2DC28466A
:1069500003B030BD10B514210446FDF7A4FB20465A
:1069600010BD000010B54FF47A7304460846114676
:106970000022C4E90123044B2360012320746374C3
:10698000FFF7CCF9204610BD2CAE0B007047F8B5D0
:10699000064615460C468F18BC4206D0336814F8DC
:1069A000011B9B6830469847F6E72846F8BD007CF7
:1069B0000022FFF7BBB9007C0021FFF7BFB9007CC4
:1069C0000021FFF7C3B9007C0021FFF7C7B9007CA5
:1069D0000021FFF7CBB910B514210446FDF763FB86
:1069E000204610BD10B54FF47A73044608460021C6
:1069F000C4E90113034B236020741146FFF7C6F965
:106A0000204610BD5CAE0B0013B503688DF807106F
:106A1000DC6B01224FF0FF330DF10701A04702B0FC
:106A200010BD10B40368DC6B4FF0FF33A4465DF873
:106A3000044B604713B5134602688DF80710D46BFA
:106A40000DF107010122A04702B010BD10B5436946
:106A5000B3F88620B3F884309A42044608D06369BC
:106A6000B3F88420511CA3F884101344187910BD86
:106A700003681B6998470028F1D14FF0FF30F6E713
:106A8000704743691868C043C00F704770470000E3
:106A9000064B994210B500F10C0405D0084600F0F1
:106AA000D1FC002808BF0024204610BDA8AD0B0073
:106AB00010B5AC210446FDF7F6FA204610BDAC2116
:106AC000FDF7F1BA2DE9F0414FF0000886B01C4601
:106AD000C0F8048005460E4617464146102202A81B
:106AE00001F02EFE631C09D04FF47A73B4FBF3F26D
:106AF00003FB1244CDE902285C4304946869102327
:106B00000093006802AB41F2050240F6FF71FFF707
:106B100045F9002807DAFFF78DFA03686B6000205B
:106B200006B0BDE8F0816869002300683A46314646
:106B3000FFF754F9031EEEDB1846F1E730B587B0D6
:106B4000044601AD6846FFF73BFE0FCD04340FC489
:106B50002B68237007B030BD70B54D69054B0446F6
:106B60008C3544F8043B06460FCD0FC42B682370C8
:106B7000304670BDE8AD0B002DE9F0439846036840
:106B800093B00D460024DB6A064617469847284610
:106B90006B46224621460094FEF7F0FF054600288A
:106BA00063D1009B002B4BD05B69002B48D006A81B
:106BB000FFF7C2FD009B5C696378022B04D1211DA5
:106BC00006A8FFF7BBFF26E00A2B24D11122294695
:106BD00001A801F0B5FDA368002B38D004F108032B
:106BE0000DF1040C183418685968624603C2083362
:106BF000A3429446F7D1062301A90CA88DF81430BE
:106C0000FFF7A8FD0DF1340CBCE80F0007AC0FC472
:106C1000DCF80030237006A8FFF7AEFD80B13368C2
:106C200007ADD3F82090124B0C930FCD0DAC0FC4D1
:106C30002B6823703A4643460CA93046C8470546A0
:106C40000098FEF793FF284613B0BDE8F083E36891
:106C5000002BC3D14FF6FF70D4F81090FFF716F851
:106C60008145BBD104F11401AAE72546E8E700BF3E
:106C7000E8AD0B0038B543691A68002A054610DAFA
:106C8000B3F88620B3F884309A420AD103681B69AE
:106C90009847044628B92B682846DB6A984720465F
:106CA00038BD0120FCE710B54369B3F88620B3F87E
:106CB00084309A42044605D06369B3F884201344B3
:106CC000187910BD03681B6998470028F4D14FF06C
:106CD000FF30F6E7F8B543691746B3F88620B3F8F6
:106CE00084309A4205460E4616D06969B1F8843060
:106CF000B1F88640E41ABC4228BF3C460433224621
:106D00001944304601F0F4FC6A69B2F88430234437
:106D1000A2F884302046F8BD03681B699847002814
:106D2000E3D14FF0FF34F5E742690023A2F8843045
:106D30004269A2F8863070472DE9F0411F4603688A
:106D40000C46DB6A8AB0054616469847237DD5F87F
:106D50001480042B0CBF02200A2006220121FFF719
:106D600045F8C8F800006B691B68002B08DA2B682F
:106D70002846DB6A0024984720460AB0BDE8F08127
:106D80002846FFF7D1FFB7B1002303A9F8B2039358
:106D9000ADF81030FEF73AFF0028E8D16869062305
:106DA0000093006803AB41F20B0240F6FF71FEF75F
:106DB000F5FF0028DBD11C22002103A801F0C0FC54
:106DC000237D042B1DD14FF407733046ADF80C30F2
:106DD000FEF764FFADF80E006068FEF757FF049001
:106DE0006B691C22186803A9FEF7E8FF0028BED1D2
:106DF00004340FCC6D698C350FC523682B700124CA
:106E0000BAE740F61C233046ADF80C30FEF746FFDB
:106E100005AEADF80E00231D04F11407186859687B
:106E2000324603C20833BB421646F7D1D8E700000A
:106E300030B54269B2F886308BB004462BB1B2F857
:106E400084209A4201D1FFF76FFF6169086800282A
:106E500018DBB1F886507F2D14D804310823C5F112
:106E600080022944FEF7B2FF002813DD6369B3F8FE
:106E700086200AB9A3F884206369B3F886201044F9
:106E8000A3F886006369B3F88600B3F88430C01AAB
:106E90000BB030BDFFF7CEF803680B2BF2D0FFF735
:106EA000C9F803680B2BEDD020230025CDE902356E
:106EB000FFF7C0F803680193084B0949009302AA41
:106EC0002B463220FEF7E2FF63691868FEF76EFF7B
:106ED00063694FF0FF321A60D4E700BF83AE0B0046
:106EE0007CAE0B0010B5436904461868002801DB2E
:106EF000FEF75CFF63694FF0FF321A606069112290
:106F000000218C3001F01CFC2046BDE81040FFF74A
:106F10000BBF10B5002304460160C0F884308830F0
:106F2000FFF70AFC204610BD73B500234FF47A72B8
:106F3000C0E901320E4A0361026043610446AC209D
:106F40000191FDF7A8F8051E05F10C0608D00123F4
:106F5000C5E90133074B01992B603046FFF7D9FF94
:106F60002046C4E90565FFF7DFFE02B070BD00BF33
:106F7000B8AE0B009CAE0B0010B54FF0FF310446CD
:106F8000FFF7D2FF204610BD10B504460068002868
:106F900001DBFEF70BFF204610BD0C30FFF7F4BFFE
:106FA000002240681146FEF7B5BF00224068114636
:106FB000FEF7D0BF002240681146FEF7DBBF4068F5
:106FC0000022FEF7CFBF4068002281F00101FEF7EA
:106FD000B9BF002340681A461946FEF7ABBF00232D
:106FE00040681A461946FEF79DBF002240681146C8
:106FF000FEF780BF406800220221FEF783BF002316
:1070000040681A46FEF76EBF024B04225A60024ADD
:107010001A60704718E7032004AF0B000023406894
:107020001A46FEF75FBF406800220221FEF76ABFE2
:10703000002240681146FEF75DBF002240681146FD
:10704000FEF768BF002340681A461946FEF76ABF7C
:10705000002340681A461946FEF76CBF40680021BD
:10706000FEF790BF40680021FEF794BF4068002201
:1070700081F00101FEF766BF40680022FEF772BF93
:10708000002240681146FEF775BF00224068114695
:10709000FEF760BF2DE9F04395B014460D46074654
:1070A000FFF74AFB00211C220DA8009101F048FBCC
:1070B00040230C9320466B460CAA0021FEF75EFD90
:1070C000044600284BD1024601216868FEF722FFE2
:1070D0000221804622466868FEF71CFF009E81461A
:1070E0002146002E3BD0002939D17368022B03D0F2
:1070F0000A2B11D0F669F4E7B8F1000FFAD07169E4
:1071000006A8043107ADFFF75BFB0FCD3C1D0FC494
:107110002B6823704146EDE7B9F1000FEAD074699E
:10712000102201A801F00CFB06238DF8143001ADEC
:1071300004F108031834186859682A4603C2083352
:10714000A3421546F7D101A906A807ADFFF702FB38
:107150000FCD3C1D0FC42B6823704946CAE7009829
:10716000FEF704FD384615B0BDE8F083024B034A34
:107170001A6000225A60704720E7032040AF0B00DE
:10718000232813B502D9002002B010BDA0F10B03D3
:10719000022B1AD8174C2178BFF35B8F11F0010135
:1071A0000BD120460191FCF780FF019928B11248CC
:1071B000FEF796FF2046FCF77DFF0F4B1878FEF791
:1071C00025FE0028DFD10120DEE7012809D800F0E4
:1071D000E7F80021007CFEF7D1FD80F00100C0B28D
:1071E000D2E709380128EED800F09EF8007CFEF7BF
:1071F00085FDF2E7B8E60320BCE60320232838B576
:1072000004460D460AD8FF2908D0FFF7B9FF28B178
:1072100029462046BDE83840FEF7C0BC38BD38B529
:1072200004460D46FEF7C2FCFF2810D0062804D8FD
:107230004D2323FA00F0C30709D42046FFF7A0FF2F
:1072400028B129462046BDE83840FEF7B7BC38BD16
:1072500010B50446FEF7AAFC031FDBB2012B08D9C8
:107260002046FFF78DFF20B12046BDE81040FEF715
:10727000ADBC002010BD0D2810B504469CBF0E34D7
:10728000A4B22046FFF77CFF50B103212046FEF751
:107290007DFC032804D12046BDE81040FEF7A6BCC3
:1072A000002010BD38B504460D46FFF769FFF0B168
:1072B00004212046FEF76AFC042805D1A9B2204625
:1072C000BDE83840FEF78ABC02212046FEF75EFC8E
:1072D00002280CD12046FEF769FC012801D00428C1
:1072E00005D129462046BDE83840FEF787BC38BDA9
:1072F0007047000038B5044614252A46002101F0E5
:107300001FFA25804025074925812846258200F05F
:107310006BF804496060284600F066F8E06020469B
:1073200038BD00BF74AF0B0030B50E4D2978BFF3E8
:107330005B8F11F0010487B011D12846FCF7B5FE30
:1073400068B101A8FFF7D6FF01AA21460648FFF75A
:1073500009FB2846FCF7AEFE044801F051F902484B
:1073600007B030BD28E703202CE70320F1720B00A3
:107370007047000038B5202514230446036085605B
:1073800005610649284600F02FF804496060284648
:1073900000F02AF8E060204638BD00BF74AF0B0053
:1073A00030B50E4D2978BFF35B8F11F0010487B023
:1073B00011D12846FCF779FE68B101A8FFF7DAFF82
:1073C00001AA21460648FFF70DFB2846FCF772FE8E
:1073D000044801F015F9024807B030BD44E7032026
:1073E00048E7032071730B00FCF757BE08B5FEF7A2
:1073F00011FE08B5FEF70EFE08B5FEF70BFE08B548
:10740000FEF708FE08B5FEF705FE0FB480B584B0A0
:1074100000AF07F1180454F8042B7A60104601F00D
:10742000CFF900F2072323F00703ADEB030D00F5BE
:1074300000717A68FC602346684600F05BF8FEF74E
:10744000E9FD0000014900F0A3BB00BF90AF0B00B5
:1074500080B59CB0064600AF0C46A41B0E496922BD
:10746000381D01F045F904F1700323F00703ADEB7B
:10747000030D6D466822391D284601F039F9224670
:10748000314605F168002C4401F032F9002384F8FC
:1074900068302846FFF7ADFF98AF0B002DE9F041AB
:1074A00000AF84B06D4605F10C04DFF8448023463C
:1074B0004FF00A0CB2FBFCF60CFB162E18F80EE08F
:1074C00003F801ED9646BEF1090F3246F2D8E41AF0
:1074D0008C4209D8C4F10C032246E91801F008F9DE
:1074E0002046BD46BDE8F0814FF0FF34F8E700BF0D
:1074F00001B00B0001392DE9F0410746154600EBBC
:10750000010804462A7892B344452AD2252A07D195
:107510006A78732A09D07A2A12D0252A00D1013537
:1075200015F8012B04F8012BECE753F8042B013A72
:1075300012F8011FC9B1444513D004F8011BF7E745
:10754000AA78752AECD11E46A8EB040156F8042B44
:107550002046FFF7A3FF002803DD0444033533462C
:10756000D0E721463846FFF773FF0235CAE722709D
:10757000E01BBDE8F0810AB101F0BAB870470AB16A
:1075800001F0A6B81046704713460A4611B11978A3
:1075900001F04EB80846704708B50B68B3F1804F4C
:1075A00002D30D48FFF72BFF93420BD9B3EB420FE9
:1075B0004FEA420006D2B0F1804F2ABF6FF040433D
:1075C00008600B600868013001D5FFF70FFFBDE8C8
:1075D0000840FCF760BD00BF0CB00B0050F8083B42
:1075E000834202D01846FCF75ABD704708B50346DF
:1075F00008465B689842114603D902460148FFF7E6
:1076000004FF08BD24B00B00406801F1804101393E
:10761000091A914208B502D21846FFF7F0FE08BDDC
:1076200003688B4206D840681844814294BF00200A
:107630000120704701207047012A10B404D10A7854
:107640005DF8044B027070475DF8044BFFF793BF81
:10765000012A30B403D10B78037030BC7047002A84
:10766000FBD030BC01F052B808B5521AFFF7E4FF66
:1076700008BD8842F7B504460E461ED003464D6845
:1076800053F8082B9A4214BF82680F22AA420AD2EA
:1076900001A90195FFF780FF07462046FFF79EFFEF
:1076A000019B2760A36025B1316820682A46FFF757
:1076B000C3FF2368656000225A5503B0F0BD2DE971
:1076C000F3470A9E1F46436801EB0208B21A1A44A8
:1076D000A3EB08090346019253F8082B9A4218BFFE
:1076E00082680D4608BF0F2201A90446FFF754FF28
:1076F00082461DB121682A46FFF79EFF37B12EB1A1
:10770000324639460AEB0500FFF796FFB9F1000F44
:1077100007D0216835444A4641440AEB0500FFF78B
:107720008BFF2046FFF75AFF019BC4F800A0A3601F
:1077300002B0BDE8F08700002DE9F74F0C9D14461C
:1077400080462A4689461F462146394BFFF75CFF93
:107750004246D8F8043052F8086B964218BFD8F861
:107760000820A5EB040B03EB0B0A08BF0F225245C0
:1077700051D34E443946A1444046A3EB0909FFF7D3
:107780004FFF80B1B9F1000F06D0AC4204D04A4699
:1077900031197019FFF75CFF15B32A463946304698
:1077A000FFF74AFF1CE035B1AC423CD32A463946CC
:1077B0003046FFF74DFFB9F1000F11D0AC420FD0AA
:1077C0004A4631197019FFF743FFAC4208D23444DE
:1077D0007B199C420FD32A4639463046FFF738FFC3
:1077E000D8F80030C8F804A00022404603F80A2068
:1077F00003B0BDE8F08FBC4203D82A4607EB0B016B
:10780000CDE7E41B224639463046FFF721FF2A1B0D
:1078100071193019C4E700953B4622464946404657
:10782000FFF74DFFDCE7B9F1000FD0D0C8E700BF8C
:107830005BB00B002DE9F7430E461D46416823B9A6
:10784000914221D24FF0FF321EE09142FAD9D0F896
:10785000008033788DF8073008EB010708EB020051
:10786000891AC5F10109A942ECD30DF10702494477
:10787000FFF78AFE04460028E4D02A463146FFF787
:107880007EFE28B9A4EB0802104603B0BDE8F083E1
:10789000601C391AE7E708B5D1E90013FFF7CAFF02
:1078A00008BD13B5044608460192009100F088FF18
:1078B000DDE9001203462046FFF7BCFF02B010BD11
:1078C00073B5466801910546084600F079FF864287
:1078D00004463246019928BF02462868FFF74FFE4A
:1078E00000B9301B02B070BD73B5044616460D4694
:1078F00019B912B10D48FFF77CFD731B0F2B0193D3
:1079000007D9002201A92046FFF746FE019B20600F
:10791000A360324629462068FFF7A6FE019B226835
:1079200063600021D15402B070BD00BF74B00B0081
:1079300008B54FF00003FFF7D7FF08BD2DE9F04170
:107940000D461746984600F1080304460360394681
:10795000094A2846FFF74AFE2E686A683118D21B8A
:107960002046424594BF8A1801EB0802FFF7E0FF6A
:107970002046BDE8F08100BF9EB00B0037B50D4634
:10798000044611462846064A0193FFF72FFE019B45
:10799000024629462046FFF7D1FF204603B030BDFE
:1079A000B9B00B007FB500241023CDE90234036881
:1079B00015469E6912686B46CDE90044B0479DF8B4
:1079C000043003F00603062B03BF009B2B6001204D
:1079D000204604B070BD0098904214BF01200620DC
:1079E0007047000010B5034B0360044600F0CDF86B
:1079F000204610BD08B10B0010B50446FFF7F2FF9A
:107A000020460821FCF74FFB204610BD2DE9F04130
:107A10001F46DDE90834DDF818809845064615460E
:107A200007D1079900F0B4F818B165710020BDE8DE
:107A3000F0813946304600F0ABF80028F6D001233B
:107A4000C4F800802571A371F0E738B515461C46CF
:107A500000F09EF820B10823E3600623256023711F
:107A600038BD73B505460C4601921E4600F090F8ED
:107A700050B9032E08D82368019A5B69294620462D
:107A800002B0BDE87040184702B070BD10B5034B9E
:107A900003600446FFF7A6FF204610BD68B10B0047
:107AA00010B50446FFF7F2FF20460C21FCF7FBFA65
:107AB000204610BDF7B5089F974205460E4614466E
:107AC0000AD0A86802680897156A31462246AC4673
:107AD00003B0BDE8F04060471946019300F058F844
:107AE000019B0028EDD0062003B0F0BD2DE9F14F39
:107AF0000D461946DDE90A4BDDE90CA6814617461D
:107B0000984600F045F890B1002D3460377109DBDC
:107B100061198A450CBF06210121B171002001B015
:107B2000BDE8F08F0235F9D10123B371F6E7544572
:107B300006D15946484600F02BF808B17771EDE7B9
:107B4000D9F808000368CDE90CA6CDE90A4BDC6939
:107B50003A4643462946A44601B0BDE8F04F604787
:107B60002DE9F04107460C4615461E46FFF76DFF0E
:107B700048B9B86803689F692A4633462146BC461F
:107B8000BDE8F0416047BDE8F081704700207047D4
:107B9000814208B50ED0406803782A2B0CD0496882
:107BA0000B782A2B08BF013100F000FEB0FA80F0FC
:107BB000400908BD0120FCE70020FAE781F0004100
:107BC00002E000BF83F0004330B54FEA41044FEAC2
:107BD000430594EA050F08BF90EA020F1FBF54EA5D
:107BE000000C55EA020C7FEA645C7FEA655C00F0F9
:107BF000E2804FEA5454D4EB5555B8BF6D420CDDCA
:107C00002C4480EA020281EA030382EA000083EA4C
:107C1000010180EA020281EA0303362D88BF30BDEC
:107C200011F0004F4FEA01314FF4801C4CEA113142
:107C300002D0404261EB410113F0004F4FEA0333A1
:107C40004CEA133302D0524263EB430394EA050F2C
:107C500000F0A780A4F10104D5F1200E0DDB02FA9B
:107C60000EFC22FA05F2801841F1000103FA0EF22F
:107C7000801843FA05F359410EE0A5F120050EF1F5
:107C8000200E012A03FA0EFC28BF4CF0020C43FA26
:107C900005F3C01851EBE37101F0004507D54FF033
:107CA000000EDCF1000C7EEB00006EEB0101B1F583
:107CB000801F1BD3B1F5001F0CD349085FEA3000C9
:107CC0004FEA3C0C04F101044FEA445212F5800FD4
:107CD00080F09A80BCF1004F08BF5FEA500C50F171
:107CE000000041EB045141EA050130BD5FEA4C0C54
:107CF000404141EB0101013C28BFB1F5801FE9D2B1
:107D000091F0000F04BF01460020B1FA81F308BFD3
:107D10002033A3F10B03B3F120020CDA0C3208DD9F
:107D200002F1140CC2F10C0201FA0CF021FA02F17A
:107D30000CE002F11402D8BFC2F1200C01FA02F1EA
:107D400020FA0CFCDCBF41EA0C019040E41AA2BF0F
:107D500001EB0451294330BD6FEA04041F3C1CDAD7
:107D60000C340EDC04F11404C4F1200220FA04F0F7
:107D700001FA02F340EA030021FA04F345EA0301A1
:107D800030BDC4F10C04C4F1200220FA02F001FA63
:107D900004F340EA0300294630BD21FA04F02946E5
:107DA00030BD94F0000F83F4801306BF81F480117E
:107DB0000134013D4EE77FEA645C18BF7FEA655CF1
:107DC00029D094EA050F08BF90EA020F05D054EAC3
:107DD000000C04BF1946104630BD91EA030F1EBFC8
:107DE0000021002030BD5FEA545C05D140004941CC
:107DF00028BF41F0004130BD14F580043CBF01F5BF
:107E0000801130BD01F0004545F0FE4141F47001A4
:107E10004FF0000030BD7FEA645C1ABF194610467F
:107E20007FEA655C1CBF0B46024650EA013406BF80
:107E300052EA033591EA030F41F4002130BD00BF3F
:107E400090F0000F04BF0021704730B54FF48064FC
:107E500004F132044FF000054FF0000150E700BF7D
:107E600090F0000F04BF0021704730B54FF48064DC
:107E700004F1320410F0004548BF40424FF00001C9
:107E80003EE700BF42004FEAE2014FEA31014FEA0C
:107E900002701FBF12F07F4393F07F4F81F060515B
:107EA000704732F07F4208BF704793F07F4F04BFA6
:107EB00041F40021704730B54FF4607401F0004583
:107EC00021F000411CE700BF50EA010208BF7047E3
:107ED00030B54FF000050AE050EA010208BF7047D4
:107EE00030B511F0004502D5404261EB41014FF43D
:107EF000806404F132045FEA915C3FF4D8AE4FF045
:107F000003025FEADC0C18BF03325FEADC0C18BF27
:107F1000033202EBDC02C2F1200300FA03FC20FA78
:107F200002F001FA03FE40EA0E0021FA02F11444C5
:107F3000BDE600BF70B54FF0FF0C4CF4E06C1CEADE
:107F400011541DBF1CEA135594EA0C0F95EA0C0F4F
:107F500000F0DEF82C4481EA030621EA4C5123EAC2
:107F60004C5350EA013518BF52EA033541F48011F1
:107F700043F4801338D0A0FB02CE4FF00005E1FBA4
:107F800002E506F00042E0FB03E54FF00006E1FBEE
:107F900003569CF0000F18BF4EF0010EA4F1FF0431
:107FA000B6F5007F64F5407404D25FEA4E0E6D4171
:107FB00046EB060642EAC62141EA55514FEAC52082
:107FC00040EA5E504FEACE2EB4F1FD0C88BFBCF5FE
:107FD000E06F1ED8BEF1004F08BF5FEA500E50F1AF
:107FE000000041EB045170BD06F0004646EA010175
:107FF00040EA020081EA0301B4EB5C04C2BFD4EBA7
:108000000C0541EA045170BD41F480114FF0000E9F
:10801000013C00F3AB8014F1360FDEBF002001F00D
:10802000004170BDC4F10004203C35DA0C341BDC87
:1080300004F11404C4F1200500FA05F320FA04F059
:1080400001FA05F240EA020001F0004221F000418D
:1080500010EBD37021FA04F642EB06015EEA430E00
:1080600008BF20EAD37070BDC4F10C04C4F1200530
:1080700000FA04F320FA05F001FA04F240EA0200E3
:1080800001F0004110EBD37041F100015EEA430EB4
:1080900008BF20EAD37070BDC4F1200500FA05F2D4
:1080A0004EEA020E20FA04F301FA05F243EA020353
:1080B00021FA04F001F0004121FA04F220EA020062
:1080C00000EBD3705EEA430E08BF20EAD37070BDA8
:1080D00094F0000F0FD101F00046400041EB010188
:1080E00011F4801F08BF013CF7D041EA060195F06A
:1080F000000F18BF704703F00046520043EB030324
:1081000013F4801F08BF013DF7D043EA0603704710
:1081100094EA0C0F0CEA135518BF95EA0C0F0CD01B
:1081200050EA410618BF52EA4306D1D181EA030161
:1081300001F000414FF0000070BD50EA410606BF5B
:108140001046194652EA430619D094EA0C0F02D1A0
:1081500050EA013613D195EA0C0F05D152EA0336E5
:108160001CBF104619460AD181EA030101F0004103
:1081700041F0FE4141F470014FF0000070BD41F04C
:10818000FE4141F4780170BD70B54FF0FF0C4CF426
:10819000E06C1CEA11541DBF1CEA135594EA0C0F45
:1081A00095EA0C0F00F0A7F8A4EB050481EA030E92
:1081B00052EA03354FEA013100F088804FEA033379
:1081C0004FF0805545EA131343EA12634FEA022247
:1081D00045EA111545EA10654FEA00260EF0004108
:1081E0009D4208BF964244F1FD0404F5407402D25A
:1081F0005B084FEA3202B61A65EB03055B084FEAEB
:1082000032024FF480104FF4002CB6EB020E75EBE7
:10821000030E22BFB61A754640EA0C005B084FEA0F
:108220003202B6EB020E75EB030E22BFB61A75468C
:1082300040EA5C005B084FEA3202B6EB020E75EBD7
:10824000030E22BFB61A754640EA9C005B084FEA4F
:108250003202B6EB020E75EB030E22BFB61A75465C
:1082600040EADC0055EA060E18D04FEA051545EA4B
:1082700016754FEA06164FEAC30343EA52734FEAF4
:10828000C2025FEA1C1CC0D111F4801F0BD141EA6D
:1082900000014FF000004FF0004CB6E711F4801FD2
:1082A00004BF01430020B4F1FD0C88BFBCF5E06FB2
:1082B0003FF6AFAEB5EB030C04BFB6EB020C5FEAC2
:1082C000500C50F1000041EB045170BD0EF0004E17
:1082D0004EEA113114EB5C04C2BFD4EB0C0541EA49
:1082E000045170BD41F480114FF0000E013C90E646
:1082F00045EA060E8DE60CEA135594EA0C0F08BF0A
:1083000095EA0C0F3FF43BAF94EA0C0F0AD150EA08
:1083100001347FF434AF95EA0C0F7FF425AF10469B
:1083200019462CE795EA0C0F06D152EA03353FF4C3
:10833000FDAE1046194622E750EA410618BF52EA40
:1083400043067FF4C5AE50EA41047FF40DAF52EA14
:1083500043057FF4EBAE12E74FF0FF3C06E000BFB1
:108360004FF0010C02E000BF4FF0010C4DF804CDBE
:108370004FEA410C7FEA6C5C4FEA430C18BF7FEA7E
:108380006C5C1BD001B050EA410C0CBF52EA430CAC
:1083900091EA030F02BF90EA020F0020704710F12C
:1083A000000F91EA030F58BF994208BF90422CBFBB
:1083B000D8176FEAE37040F0010070474FEA410CB4
:1083C0007FEA6C5C02D150EA013C07D14FEA430CD2
:1083D0007FEA6C5CD6D152EA033CD3D05DF8040B43
:1083E000704700BF8446104662468C461946634675
:1083F00000E000BF01B5FFF7B7FF002848BF10F14C
:10840000000F01BD4DF808EDFFF7F4FF0CBF012090
:1084100000205DF808FB00BF4DF808EDFFF7EAFF0C
:1084200034BF012000205DF808FB00BF4DF808EDC7
:10843000FFF7E0FF94BF012000205DF808FB00BFBC
:108440004DF808EDFFF7CEFF94BF012000205DF846
:1084500008FB00BF4DF808EDFFF7C4FF34BF012053
:1084600000205DF808FB00BF4FEA410C7FEA6C5C1E
:1084700002D150EA013C0AD14FEA430C7FEA6C5C1E
:1084800002D152EA033C02D14FF0000070474FF096
:10849000010070474FEA410212F5001215D211D5C2
:1084A0006FF47873B3EB625212D94FEAC12343F0F1
:1084B000004343EA505311F0004F23FA02F018BF73
:1084C000404270474FF00000704750EA013005D13C
:1084D00011F0004008BF6FF0004070474FF00000FF
:1084E000704700BF4A0011D212F5001211D20DD50B
:1084F0006FF47873B3EB62520ED44FEAC12343F0AA
:10850000004343EA505323FA02F070474FF0000053
:10851000704750EA013002D14FF0FF3070474FF002
:10852000000070474FEA4102B2F1E04324BFB3F5C7
:10853000001CDCF1FE5C0DD901F0004C4FEAC002DA
:108540004CEA5070B2F1004F40EB830008BF20F0BE
:108550000100704711F0804F21D113F13872BCBF78
:1085600001F00040704741F480114FEA5252C2F1CD
:108570001802C2F1200C10FA0CF320FA02F018BF16
:1085800040F001004FEAC1234FEAD32303FA0CFC69
:1085900040EA0C0023FA02F34FEA4303CCE77FEAF8
:1085A000625307D150EA01331EBF4FF0FE4040F442
:1085B0004000704701F0004040F0FE4040F40000F1
:1085C000704700BFD0B50C4B002206460F46FFF7A0
:1085D000B1FCFFF787FF0446FFF732FC074B002290
:1085E000FFF7A8FC02460B4630463946FFF7EAFA89
:1085F000FFF778FF2146D0BD0000F03D0000F041BC
:10860000002301461A46184600F0C4BF002100F0BE
:1086100029BF0A22002100F0B3BF0A22002100F086
:10862000AFBF0000000000000000000000000000DC
:1086300001F0FF01102A2BDB10F0070F08D010F813
:10864000013B013A8B422DD010F0070F42B3F6D117
:10865000F0B441EA012141EA014122F007047FF030
:1086600000070023F0E80256083C85EA010586EA87
:10867000010685FA47F5A3FA87F586FA47F6A5FAC3
:1086800087F68EB9EED1F0BC01F0FF0102F00702CF
:1086900032B110F8013B013A83EA010313B1F8D17A
:1086A0000020704701387047002D06BF354603385B
:1086B000073815F0010F07D1013015F4807F02BF94
:1086C000013015F4C03F0130F0BC0138704700BFE5
:1086D00010B501390244904201D1002005E0037831
:1086E00011F8014FA34201D0181B10BD0130F2E771
:1086F0000A44914200F1FF3300D1704710B511F8E0
:10870000014B03F8014F9142F9D110BD884210B5D9
:1087100001EB020402D98442234607D8431EA1423A
:1087200008D011F8012B03F8012FF8E702440146A5
:108730008A4200D110BD13F8014D02F8014DF7E750
:1087400002440346934200D1704703F8011BF9E746
:1087500038B5104B1D68AB6B0446B3B91820FDF754
:1087600039FC0246A86320B90B4B0C484221FDF7A7
:1087700069FC0B490B4BC0E900130B4B83600B23C7
:10878000838100210120C2E90401AB6B00221C613E
:108790005A6138BD48E10320A1B10B00B8B10B000C
:1087A0000E33CDAB34126DE6ECDE050010F8012B74
:1087B00011F8013B012A28BF9A42F7D0D01A70471E
:1087C000034613F8012B002AFBD1181A0138704711
:1087D00010B57AB103460139841813F8010B11F86A
:1087E000012F904201D1A34201D1801A10BD00286F
:1087F000F3D1FAE71046F9E710B50139034632B173
:1088000011F8014F03F8014B013A002CF7D11A443B
:108810000021934200D110BD03F8011BF9E770B5A8
:1088200004460D4645EC104B164601F00DFE51EC8A
:10883000100B7EB1C5F30A53C3F16B03002B09DDA6
:108840001B0503F17F55002405F5401522462B46F4
:10885000FFF770FB70BD00002DE9F04F2DED028B8E
:108860009DB01F4600231893A24B13921B680593DB
:10887000044618468846FFF7A3FF4FF0000A054656
:108880004FF0000BCDF85C80179B1A782B2A4ED046
:108890003BD80D2A34D8082A34D8002A3ED00023E9
:1088A0000A93179E3378302B40F0B080737803F032
:1088B000DF03582B68D10A9B019318AB02970093F2
:1088C0008D4A19AB17A9204600F02EFF10F00707BC
:1088D000054605D0062F2CD10136002317960A93A2
:1088E000139B002B40F090850A9BEBB152460BF195
:1088F000004343EC102B1DB0BDEC028BBDE8F08FA4
:10890000202ACCD101331793BEE72D2AC7D10122EB
:108910000A925A1C17925B78002BC2D1139BCDF898
:108920005C80002B40F06E8552465B46E1E70022FA
:10893000EEE7189A3AB135211AA801F090FE18997D
:10894000204601F04FFA013F042F06D8DFE807F078
:108950000A0314170A00DDE91AAB2807C0D54BF04B
:10896000004BBDE7DDE91AA3199A23F4801302F244
:10897000334243EA025BF0E7DFF880B1EDE76FF0E6
:10898000004B4FF0FF3AE8E7179B5A1C17925B78B1
:10899000302BF9D0002BA3D001234FF00009049312
:1089A000179B0893CDF81C904F460A22179806781B
:1089B000A6F13003D9B209292AD905992A46FFF729
:1089C00007FF98B3002032463D4605900346652ACE
:1089D00001D0452A18D11DB9049A02439ED0002522
:1089E000DDF85C8008F10102179298F801202B2A2B
:1089F00075D02D2A7BD04FF0000CA2F1300109294F
:108A000040F28280CDF85C8000269DE00023C4E720
:108A1000082FD8BF079900F10100DABF02FB01332C
:108A2000079302FB093901371790BFE7179B5A19C3
:108A300017925A5D002F37D005903D46A2F13003C2
:108A4000092B12D90123C2E7179B5A1C17925A7897
:108A50000130302AF8D0A2F13103082B00F2D9847A
:108A6000179B0590002008930546303A00F101035A
:108A700014D00599194405912B4600EB050E0A21E7
:108A8000734513D12B18082B05F1010505441CDC97
:108A900007990A2303FB012307930023179A511C0C
:108AA000179152781846C9E73846D2E7082B04DCFC
:108AB000079E4E4307960133E2E703F1010CBCF138
:108AC000100FD8BF01FB09F9F5E7102DDCBF0A2311
:108AD00003FB0929E1E70023059301237CE74FF01D
:108AE000000C08F10202179298F8022085E74FF077
:108AF000010CF6E728B40B003CB20B000000F07F3D
:108B0000179A511C17915278302AF9D0A2F13101ED
:108B100008293FF679AFA2F1300E179A0692179AFC
:108B2000511C17915278A2F13006092E37D9069EB2
:108B3000891B082944F61F6602DC7645A8BF7646E5
:108B4000BCF1000F00D07642002D4DD104990143B5
:108B50007FF4C6AE002B7FF4E1AE692A27D024DC77
:108B6000492A24D04E2A7FF4D9AE9F4917A801F094
:108B700033F800283FF4D2AE179B1B78282B2DD159
:108B80009A491AAA17A801F03BF8052826D11B9B81
:108B9000DDF868A043F0FF4B4BF4E00BA0E60A21A0
:108BA00001FB0E2EAEF1300EB9E76E2ADBE79049DD
:108BB00017A801F011F800283FF4B0AE179B8D49BB
:108BC000013B17A8179301F007F810B9179B013361
:108BD0001793DFF830B24FF0000A81E6864801F0C3
:108BE00093FD5BEC10AB7BE6059B0798F31A002F17
:108BF00008BF2F46102D0693A846A8BF4FF01008B7
:108C0000FFF71EF9092D82468B4613DD7B4B03EBE4
:108C1000C80353E91223FFF78DF9824648468B4675
:108C2000FFF70EF902460B4650465946FEF7CCFFB9
:108C300082468B460F2D38DC069B002B3FF450AE4E
:108C400024DD162B0BDC6D4901EBC301D1E90001DA
:108C500052465B46FFF76EF982468B4640E6069A1F
:108C6000C5F12503934220DB644CC5F10F0504EBED
:108C7000C50152465B46D1E90001FFF75BF9069B4F
:108C80005D1B04EBC504D4E90023E3E7069B163320
:108C90000BDB059B9E1B594B03EBC606D6E9002355
:108CA00050465946FFF770FAD6E7069BA5EB080831
:108CB0009844B8F1000F74DD18F00F030AD04F4943
:108CC00001EBC30152465B46D1E90001FFF732F9DF
:108CD00082468B4638F00F084FD0B8F59A7F22DDD8
:108CE00000252E46079505952223DFF818B123604D
:108CF0004FF0000A079B002B3FF4F2AD1899204675
:108D000001F070F80599204601F06CF831462046D4
:108D100001F068F80799204601F064F829462046DA
:108D200001F060F8DCE5364B049300234FEA281885
:108D3000504659469946B8F1010F21DC0BB18246E5
:108D40008B462F4BABF1547B03EBC90952465B4674
:108D5000D9E90001FFF7EEF82A4B0A460B402A49F1
:108D60008B428246BCD8A1F580118B4286BFDFF8CA
:108D70009CB04FF0FF3A02F1547B0023049384E04F
:108D800018F0010F05D0049BD3E90023FFF7D2F8B8
:108D90000123049A083209F101094FEA6808049294
:108DA000C9E7EAD0C8F1000818F00F020AD0134B47
:108DB00003EBC20350465946D3E90023FFF7E4F919
:108DC00082468B465FEA2818D7D0B8F11F0F1FDD07
:108DD00000252E460795059522234FF0000A4FF0F7
:108DE000000B236086E700BFB1AD0B0050B20B0053
:108DF000B5AD0B0035B20B0000B00B00E0B40B00BA
:108E0000B8B40B000000F07F0000A07CFFFFEF7FF4
:108E100018F0100318BF6A23DFF8AC930493504690
:108E20005946002318F0010F04D0D9E90023FFF7B9
:108E300081F801235FEA680809F10809F2D10BB152
:108E400082468B46049BC3B1CBF30A52C2F16B033B
:108E5000002B594611DD1F2B40F32481342BDEBF3C
:108E6000C2F14B024FF0FF3303FA02F24FF0000A57
:108E7000CCBF4FF05C7B02EA010B0022002350467E
:108E80005946FFF7BFFA0028A2D1079B0093089923
:108E90002B463A46204601F00DF8079000283FF493
:108EA0001FAF059B9E1B069B002BB4BF33460023C0
:108EB0000C93069B002523EAE37312932E46079B2F
:108EC0002046596800F04EFF059000283FF40CAF93
:108ED000079B1A69023203F10C0192000C30FFF774
:108EE00007FC4BEC10AB1AAA19A9204601F028FB8D
:108EF0004BEC18AB189000283FF4F6AE0121204649
:108F000001F072F8064600283FF4EEAE199B049972
:108F1000002BABBF0C9A129A129FDDF83090ACBFB9
:108F200003EB0209D71A1A9AA3EB01089044A14B4C
:108F300008F1FF389845C2F1360280F2C780A3EBF2
:108F400008031F2BA2EB03024FF0010100F3B180D5
:108F500001FA03F30D930023089309EB0208049B25
:108F6000C14517441F444B46A8BF4346BB42A8BF58
:108F70003B46002BC2BFA8EB0308FF1AA9EB03096D
:108F80000C9B002B17DD31461A46204601F0ECF809
:108F9000064600283FF4A8AE0146189A204601F084
:108FA00039F80B9000283FF49FAE1899204600F046
:108FB00019FF0B9B1893B8F1000F00F38C80069BF0
:108FC000002B08DD129A0599204601F0CDF8059096
:108FD00000283FF489AE002F08DD05993A46204667
:108FE00001F01CF9059000283FF47EAEB9F1000FA6
:108FF00008DD31464A46204601F010F906460028B1
:109000003FF472AE059A1899204601F093F905468F
:1090100000283FF469AEC3680B930023C360314658
:1090200001F06CF9002860DA0B9B53EA0A0340F068
:109030008280CBF31303002B7DD12BF000431B0D5B
:109040001B05B3F1D66F76D96B6913B92B69012B68
:1090500071DD29460122204601F0E0F8314605463F
:1090600001F04CF9002866DD0499534A5B4600295B
:1090700000F0818002EA0B01B1F1D66F7BDCB1F127
:109080005C7F7FF7A9AE4D4B504659460022FEF754
:1090900051FF0B46034308BF222382468B4608BF7D
:1090A00023602BE64FF0FF3202FA03F303EA0A0AC9
:1090B000E3E6C8F17F4808F57F0808F57B4808F12A
:1090C000E20801FA08F308930D9146E7002308939C
:1090D00001230D9341E718994246204601F09EF87E
:1090E000189000287FF46BAFFEE55F466ED10B9AB7
:1090F000CBF3130342B3324A934228D1049B514627
:10910000EBB12D4B3B40B3F1D46F4FF0FF3219D888
:109110001B0DC3F16B0302FA03F3994217D1294BDC
:109120009F4202D101313FF4DFAD234B3B4003F5B9
:10913000801B4FF0000A049B002BA4D1DEE54FF00A
:10914000FF33EAE71346E8E753EA0A038CD0089BAB
:10915000DBB13B42EFD00B9B049A50465946C3B15A
:10916000FFF75DFB02460B4651EC180BFEF72CFD9A
:1091700082468B46DFE71340A3F580136FEA135B4B
:109180006FEA0B5B4FF0FF3AD5E70D9B13EA0A0F2E
:10919000E0E7FFF744FB02460B4651EC180BFEF7E5
:1091A00011FD0022002382468B46FFF72BF9002891
:1091B000C1D011E602FCFFFF0000F07F0000503933
:1091C000FFFF0F00FFFFEF7F68B20B00314628461C
:1091D00001F012FA59EC108B10EE100A00224FF039
:1091E00080434946FFF722F900287AD00B9B002BD9
:1091F0004AD0954B0022CDE90823DFF84C924FF07E
:109200000008924B3B400D930D9A914B9A4240F0CF
:10921000B080DDE90801A7F1547B4BEC10ABCDE940
:10922000080101F011F9DDE9080153EC102BFEF7FC
:1092300081FE52465B46FEF7C7FC0B468349854AD2
:1092400019409142824660D918EE903A02F1547268
:10925000934204D118EE103A01333FF445ADDFF8E4
:1092600000B24FF0FF3A1899204600F0BBFD059977
:10927000204600F0B7FD3146204600F0B3FD2946F8
:10928000204600F0AFFD1AE6BAF1000F1BD1CBF378
:109290001303F3B96C4B002240464946FFF7BCF874
:1092A000D0B9404649466C4B0022FEF743FE80464B
:1092B000894609F10043CDF850801593DDE9142368
:1092C000CDE908239DE7BAF1010F02D1002F3FF449
:1092D00083AD624B00228EE7DFF87C914FF00008EF
:1092E000E7E75D4B404649460022FEF723FE0B9B15
:1092F0008046894633B901F100430E900F93DDE9B2
:109300000E23DDE7CDE90E89F9E703F1547B049BD9
:10931000002BA8D12BF000430D9A1B0D1B059A4280
:10932000A1D14046494601F005FAFEF7D5FD0246B7
:109330000B4640464946FEF745FC0B9ACBF3130318
:1093400043EA0A0313438046894655D036A3D3E93E
:109350000023FFF761F800287FF4D0AC34A3D3E9F1
:10936000002340464946FFF775F800283FF47BAFDD
:10937000C4E4049B33B30D9BB3F1D46F22D82EA366
:10938000D3E9002340464946FFF750F8A0B14946CB
:109390004046FFF7A7F8012838BF0120FEF750FD2F
:1093A0000B9B8046894623BB01F10043109011932B
:1093B000DDE91023CDE90823099B0D9A03F1D6635B
:1093C0009B1A0993DDE90801B0EE480AF0EE680A3D
:1093D000CDE9080101F038F8DDE9080153EC102B64
:1093E000FEF7A8FD53EC182BFEF7EEFB82468B46EA
:1093F0008DE7CDE91089DBE711A3D3E90023FFF75F
:109400000BF8B2E700230A93139A179B1360FFF738
:109410006BBA652A3FF45FAB452A3FF45CAB01238E
:10942000FFF794BBAFF300809535A094FFFFDF3FBB
:1094300035E5AF350000E03F0000C0FFFFFFDF4132
:109440009535A094FFFFCF3F0000F03F0000F07F74
:109450000000E07FFFFF9F7C0000E03F0000F0BFC6
:10946000FFFFEF7F0A4601460248034B0068FFF703
:10947000F3B900BF48E10320B4E10320012B2DE93B
:10948000F04701D0242B06D9FCF7D4FD1623036046
:109490000020BDE8F087DFF8E4C00D462E4615F841
:1094A000014B14F80C7017F00807F7D12D2C32D1AE
:1094B0002C780127B51C002B5BD0102B09D1302C48
:1094C00007D12C7804F0DF04582C4DD16C78102390
:1094D000023507F1004808F1FF384FF0000CB8FBE7
:1094E000F3F9664603FB198AA4F1300EBEF1090FA9
:1094F00016D87446A34224DDBCF1000F1EDBB14533
:109500001CD301D1A24519DB06FB03464FF0010C29
:1095100015F8014BE8E72B2C04BF2C78B51CCAE7E3
:10952000A4F1410EBEF1190F01D8373CE2E7A4F1D6
:10953000610EBEF1190F04D8573CDBE74FF0FF3C3A
:10954000E6E7BCF1000F05DA22230360464642B984
:1095500030469EE707B17642002AF9D0BCF1000FF1
:1095600000D0691E1160F3E73024002BB1D108232D
:10957000AFE7302CA5D00A23ABE700BF91B20B00B8
:1095800013460A46014602480068FFF777BF00BF4E
:1095900048E103202DE9F843DFF8B8800646D8F803
:1095A00000001F460D46914600F0C6FB254B1C6887
:1095B00034B9254C1C60254B13B11B68C4F88830A6
:1095C00063681F2B07DDD8F8000000F0B7FB4FF0F1
:1095D000FF30BDE8F8834EB3D4F8880088B91C4B3F
:1095E00023B9D8F8000000F0A8FBF0E74FF484702E
:1095F000FCF7F0FC0028F4D00023C0E94033C4F8A5
:109600008800636840F8239001229A4000EB8301B0
:10961000D0F800311343C0F80031022EC1F8807039
:1096200002BFD0F804311343C0F804316368D8F89E
:1096300000005A1C0233626044F8235000F07EFBA5
:109640000020C6E7E8E703205CE7032000000000F5
:10965000D55F0B00ACE103200369B3EB611F2DE97B
:10966000F0434FEA611200F1140445DD11F01F01CF
:1096700004EB830604EB82050CD100F110072946A8
:10968000B14234D39B1A9B00EA1E964238BF002396
:10969000234415E054F82270C1F12008CF4005F1B1
:1096A000040EA1467645F44615D89A1A9200043A5B
:1096B0000135AE4238BF0022A318A75007B10433CA
:1096C0001A1BA3424FEAA20208BF0023026108BF8F
:1096D0004361BDE8F083DCF800C00CFA08FC4CEAFA
:1096E000070749F8047B5EF8047BCF40DAE751F8BE
:1096F00004CB47F804CFC3E72346E1E7A0F13003EA
:10970000092B02D82038C0B27047A0F16103052BA5
:1097100001D84738F7E7A0F14103052B01D82738D6
:10972000F1E70020704700002DE9F04F2DED028B8E
:1097300089B008EE100A0493B44B1B6801931846D5
:109740008B469046FFF73CF8019BDBF80020034472
:10975000824613F8013C0593931CC2F1FF2202F5E7
:109760007F02FE32D1181F4613F8010B00913028FA
:10977000F8D0FFF7C3FF044600283AD101995246BA
:109780003846FFF725F80546002868D117F80A0083
:1097900007EB0A06FFF7B2FF002862D033461878BD
:1097A00030281F4603F10103F9D0FFF7A7FF01237B
:1097B000B0FA80F46409354600933A461646013201
:1097C0003078FFF79BFF0028F8D1019952463046C8
:1097D000FEF7FEFF80B94DB906EB0A052A4616468C
:1097E00001323078FFF78AFF0028F8D1AD1BAD00B9
:1097F00004E000242546E0E7002DF7D1337803F09C
:10980000DF03502B3BD173782B2B2CD02D2B2ED05C
:10981000711C4FF000090878FFF770FF431EDBB2A0
:10982000182B2CD8A0F1100211F8010FFFF766FFDA
:10983000431EDBB2182B1DD9B9F1000F00D05242E4
:109840001544CBF80010E4B1009B002B14BF002797
:109850000627384609B0BDEC028BBDE8F08F3E46C6
:1098600025460124CAE74FF00009B11CD3E74FF0A9
:109870000109FAE70A2303FB0202103AD4E7314652
:10988000DFE7F31B013B2146072B0BDC18EE100A28
:1098900000F068FA044640B95D4B0246DE215D489F
:1098A000FCF7D0FB01315B10EEE700F114094FF03B
:1098B000000BCAF10103CDF80890CDF800B0069373
:1098C000B74240D30298009B40F8043BA0EB09004C
:1098D000801046012061184600F036FB301AD8F897
:1098E0000060B04263DD871B3946204600F0DAFE97
:1098F0008246A8B17B1E591103F01F0259F82110AE
:109900004FF0010A0AFA02F20A4209D0534505DD76
:10991000B91E204600F0C6FE002845D14FF0020ACD
:1099200039462046FFF798FE3D44D8F80830AB4250
:109930004CDA18EE100A214600F054FA149A00236B
:109940001360A32785E7731E059A039316F8013C5D
:10995000934219D0BBF1200F07D1029B009A43F824
:10996000042B0293002300939B4616F8010CFFF78B
:10997000C5FE009B00F00F0000FA0BF003430093BC
:109980000BF1040B039B0DE0039B069A1344BB42AF
:10999000E0D31846019907935246FEF719FF079B3B
:1099A0000028D7D11E468BE74FF0030AB8E70ADA42
:1099B000371A214618EE100A3A4600F02FFCED1B2C
:1099C000044600F114094FF0000AAEE7D8F804008D
:1099D000A84272DD451BAE4236DCD8F80C30022BB3
:1099E0002AD0032B2CD0012B1CD1AE421AD1012E30
:1099F00012D1049AD8F80430136001232361C9F806
:109A00000030149B62271C6023E700BF28B40B00C2
:109A100091B30B00A2B30B00711E204600F042FE72
:109A20000028E6D118EE100A214600F0DBF9149A5E
:109A30000023136050270CE7159B002BF2D1D8E7C9
:109A4000159B002BD5D1EDE76F1EBAF1000F31D178
:109A500027B13946204600F025FE82467B110121C0
:109A600059F8233007F01F0701FA07F71F4229466C
:109A7000204618BF4AF0020A761BFFF7EDFDD8F822
:109A800004500227BAF1000F48D0D8F80C30022B4E
:109A900015D0032B17D0012B09D11AF0020F06D0D5
:109AA000D9F800004AEA000A1AF0010F0ED147F077
:109AB000100733E04FF0010AD0E70127E2E7159BDA
:109AC000C3F101031593159B002BF0D0D4F810B00F
:109AD00004F114034FEA8B0A03EB8B014FF0000CE7
