:02000002B0004C
:1040000000400B005C7D0B00000006000C00050268
:084010000401E50C00000000B2
:044018000C720B001B
:10401C0009480A49884208B505D0094A824202D0AB
:10402C00121A02F091FF0748074A0021121A02F0F7
:10403C0099FF014808BD00BFBCE20320C87C0B00FF
:10404C0028E3032028E30320EDE7032070B5074E97
:10405C00074C01F029FFA41BA4080025AC4200D199
:10406C0070BD56F8043B98470135F7E7707C0B00A0
:10407C00947C0B0000F0B2BD08B500F061FCBDE80B
:10408C00084001F0C9BE01F0B3BC01F0B1BC01F0B5
:10409C00B7BC01F0B5BC01F0B3BC0078B0FA80F04D
:1040AC004009704701230370704700002DE9F0436D
:1040BC0002F1080323F0070389B0144600AFADEBFF
:1040CC00030D68464FF0000902F03EFF0DF8049016
:1040DC0002F008F86946044607F1080001F06DFD8E
:1040EC00B968204601F0F1FD07F1080001F01AFD56
:1040FC0007F110056846BD6002F074FF0F28E84612
:10410C000DEB0004786008D94A46391D07F1080008
:10411C0002F09AFD7B68B8603B612246B868264C79
:10412C00414602F0C7FD7B68BA68FB600021D154A0
:10413C00BB682068FA68AB4224D112B1294602F060
:10414C00ADFDFB68226863600021D154BA681B4D39
:10415C000023FB6007F10800137002F097FD16496D
:10416C00284602F0ACFDD5E90023134493421AD043
:10417C00013B9A4217D21178187802F8010B03F818
:10418C000119F6E704F1080C6045C4E9003208BFD8
:10419C0008463B6918BFA668A36010B1B8603E61C1
:1041AC00D4E7BD60D2E701F09DFF216801F08DFDE1
:1041BC002437BD46BDE8F083D0E30320A0E3032001
:1041CC0008B501F039FA034B1860BDE8084001F05E
:1041DC00F7BB00BF40E7032003682BB14268934252
:1041EC0002D2184602F0A8BE0020704738B5056808
:1041FC00044645B143689D4205D2284602F0F2FEC2
:10420C00013005442560204638BDF8B504464768A2
:10421C000D4621B903687A1C4260D955F8BD084691
:10422C0002F0E0FEA368461CF2199A42F6D8206808
:10423C0032462946384402F087FE6068304460609C
:10424C00ECE7000038B504460B46D0E901012568BF
:10425C00044A091A284401F0E3FB63680130034463
:10426C00636038BD20720B0038B504460B46D0E9AC
:10427C0001012568044A091A284401F0D1FB63683E
:10428C0001300344636038BD23720B00F0B5D0F8E5
:10429C0034C087B006460F46BCF1000F0CD00A465E
:1042AC000023614602F08CF8012816BF0020012083
:1042BC000746778707B0F0BD074B009300F1200548
:1042CC000FCD01AC0FC42B6823703A466346694688
:1042DC00304602F055F9E7E740780B0010B5086856
:1042EC00084C02F029FE0849013801EB0011204668
:1042FC0001F077FC01F0F6FE2168BDE8104001F0FA
:10430C00E4BC00BF24E4032034E4032038B50D469C
:10431C0001461320144602F0E9FB2946122002F054
:10432C00E5FB21461120BDE8384002F0DFBB08B5A3
:10433C00002380F82D30006902F0F8F9BDE8084040
:10434C0001F004B92DE9F04301EB02098FB04945A6
:10435C00CDE9051980460D46164680F0928005A8D9
:10436C000F88FFF743FF03684B4580F08A8005A850
:10437C00FFF732FF47F276239F42C4B200F0A980C8
:10438C0027D847F261239F427ED047F264239F4295
:10439C0042D046F670539F4228D1634E634FDFF8EC
:1043AC00A081059B99456CD905A8FFF715FFC4B2F0
:1043BC0005A8FFF71BFF059D3146284602F008FEB5
:1043CC000146E0B9204602F03DFB05A8FFF70EFFC1
:1043DC00E7E747F264739F423FD047F276739F4200
:1043EC0000F0878047F261739F425FD00023CDE9D4
:1043FC00013302220092B8F82A20194629E03946E6
:10440C00284602F0E5FD28B14146284602F0E0FDC1
:10441C000028DAD10121D5E70AAB4549079307A853
:10442C0010230025CDE90853FFF7EFFE07A821461E
:10443C00FFF708FF204602F02FFB014607A8FFF705
:10444C0013FF089BCDE90155013B0093079B2A46BE
:10445C001421404600F09EFA13E005A8FFF7C6FEB3
:10446C00036899450DD9A4B20121204602F0EAFA5D
:10447C0005A8FFF7B1FE011E18BF0121204602F06E
:10448C00F2FA0FB0BDE8F0830AAB079307A810232C
:10449C0028490025CDE90853FFF7B7FE07A82146A8
:1044AC00FFF7D0FE204602F00AFBC6E705A8FFF78F
:1044BC009DFE03689945E4D9A4B20121204602F07F
:1044CC00C1FA05A8FFF788FE0146204602F00EFB54
:1044DC00D7E72046ADF8284001F03AF803460AA881
:1044EC0023B1154A934201D09847CAE701F02CF842
:1044FC00C7E705A8FFF77AFE059BADF81C405D1BCE
:10450C00751B2046CDE90A350C9501F02BF80346B6
:10451C000AA907A823B1094A934201D09847B0E7EA
:10452C0001F013F8ADE700BF27720B002A720B00E5
:10453C0032720B0035720B0055550B0057550B00A2
:10454C002E720B002DE9F0418CB004AF044605220D
:10455C000069391D01F0F6FBA8B3052804D0002032
:10456C002037BD46BDE8F081B7F805305BBA9AB28A
:10457C00A7F80530B7F807305BBA1FFA83F8A7F82D
:10458C000730002AEBD03B793BBB00F0DBFF024647
:10459C00E06194F82D00B7F80730D0B9B7F80510E2
:1045AC00012916D1092B10D0C82B01D0042BD7D13F
:1045BC0001256262204684F82D5000F0E9FAFFF7DD
:1045CC00FFFD00F0C3FF0120CAE7032384F82D3060
:1045DC00C6E7581F18BF0120C2E7B8F5806F03D992
:1045EC002046FFF7A4FEEEE708F108036E46DB0851
:1045FC00A6EBC3039D4604AD20694246294601F053
:10460C00A1FB80454FF0000041D1B7F80730E854CA
:10461C0000F098FF3B79E061142B69D009D80F2B7F
:10462C0066D0112B71D0062B16D02046FFF77FFEDB
:10463C001DE0292B1DD0372B19D01D2BF5D194F84B
:10464C002D304BB9012384F82D30204600F0A0FA10
:10465C00FFF7B6FD00F07AFF0023C821B7F805205C
:10466C000091CDE901331946204600F093F9012061
:10467C000DE0A3691BB9402001F0BAF9A061B7F8AD
:10468C000780A8444545C7E9055802D30020B54624
:10469C0066E729464022A06902F0ACFCA36900251C
:1046AC0083F83F5007F11400FFF7A0FD036898450D
:1046BC001CD9786920B1BB69984215D202F040FC34
:1046CC0085B2206902F032F82369A2695A631D870A
:1046DC00002384F82D3000F035FFA0F59C500838ED
:1046EC00C4E907006062C2E72846E9E75025E8E71D
:1046FC007B68B7F80720C3F30F2363852946204650
:10470C00FFF720FE00236385B1E700233B80B7F859
:10471C0007302B449D42C7E90353A8D207F10C0084
:10472C00D5F80080FFF762FDFB68B7F807105D1B3A
:10473C004D1BC7E905357B68FD61C3F30F2363850A
:10474C002D4B984552D020D8A3F57F236FF40072DF
:10475C001344984532D00FD8A3F50033063B984547
:10476C0032D003F5003303339845CBD107F1140154
:10477C00384600F0EAFEC5E7204B9845C2D107F158
:10478C001401384600F0E1FEBCE71D4B984521D0E2
:10479C0003F19F6303F5003303F5807398451FD035
:1047AC0003F16E4303F5302303F586739845A9D1C5
:1047BC0007F11401384600F0C8FEA3E707F1140115
:1047CC00384600F0C2FE9DE707F11401384600F0B0
:1047DC00BCFE97E707F11401384600F0B6FE91E7EE
:1047EC0007F11401384600F0B0FE8BE707F1140115
:1047FC00384600F0AAFE85E77666730064626700AF
:10480C0061636F6E70B5044686B00D46FFF7D8FC39
:10481C0094F82D30022B22D094F82C30628D013379
:10482C00DBB284F82C30AAB9022B13D8206901F022
:10483C0045FEB0B125B9206901F01EFF002810DD3E
:10484C002046FFF77FFE0028F5D1206901F06EFFAE
:10485C0000F07CFE94F82C30013B84F82C3006B030
:10486C0070BD00F06FFE0546206901F027FE94F83C
:10487C002D60012E24D120B965622046FFF757FD2B
:10488C00E8E7E3694FF21862EB1A9342F5D84AF65F
:10489C00C872934203D8236AEB1A9342DAD9636A3B
:1048AC0041F27072EB1A9342D4D90023CDE9013353
:1048BC0000931A460621204600F06CF86562C9E7A1
:1048CC00002EC7D1636AEB1A48B141F27072934261
:1048DC00C0D9206901F02AFF84F82D60BAE741F2B3
:1048EC0088329342B6D9206901F020FF2669318FB6
:1048FC003046FFF7CBFC48B9338F502B1AD141F619
:10490C0090713046FFF7C2FC0028D7D0636905933D
:10491C0001251846258502F065FB0022CDE9012210
:10492C00059B00902A461D21204600F033F8236A8F
:10493C0063628FE741F690729342BFD15021E0E75A
:10494C0038B50E4D0E480021FFF75CFF2C6800F0C7
:10495C0073FE04F51C54103484420DD8094B0A49DB
:10496C001A680A4800F0A5FD01F0BCFB084901F0EB
:10497C00ACF900F061FE286038BD00BFB4E603203E
:10498C0028E3032024E4032038720B0054E60320B0
:10499C0048720B002DE9F04F91B004AF044600694A
:1049AC00BD6D894616469A46EB4601F087FD0028F8
:1049BC0000F0B580B9F11D0F04D8714B23FA09F33F
:1049CC00DB0720D494F82D30012B40F0A880A9F1FE
:1049DC000F03052B17D8D4E90723934238BF13468E
:1049EC0003F1420800F0AEFDA8EB00000028C0F275
:1049FC009B8000212046FFF705FF00F0A3FDA8EBEC
:104A0C0000000028F5DA2378012B2DD10223237026
:104A1C00D4E90223134307F118004FF0000800F00B
:104A2C008C801823C7E9030856497B6107F10C00F9
:104A3C00FFF7EBFBD7E9043194ED027BF868524A9F
:104A4C00C91A18448DED007B00F0EAFF3B69013078
:104A5C0018443861CDE9018801380090FB68424662
:104A6C0015212046FFF796FF46B9668D36B9238D82
:104A7C0001339BB2002B70D02385268DBAF1000F29
:104A8C006DD005F10508FB6D002B3B6E08BF0023B4
:104A9C00984408F1070323F00703ADEB030D04ABB7
:104AAC007B603B6E8DF81090EA18C2F3072376BA40
:104ABC0043EA0223ADF81160ADF81330BAF1000FE0
:104ACC0050D0002D4ED02A4651460DF1150002F063
:104ADC003BFA681DFB6D3BB13B6E2BB11A467B68F4
:104AEC00F96D184402F030FA002545453ED2A8EB8A
:104AFC0005027B682069B2F5806F28BF4FF4806295
:104B0C00591901F0B2FB0646002000F019FD5EBBFE
:104B1C00206901F00BFE84F82D6000F017FD34378E
:104B2C00DD46BD46BDE8F08F94F82C1000297FF4CB
:104B3C006AAF2046FFF766FE65E707F10C03C7E98D
:104B4C000638124904233B62FFF75FFBCDE901886D
:104B5C00FB69013B0093BB6981E701238CE74FF0B4
:104B6C00050890E70520B5E73544BEE703D020469D
:104B7C00FFF7DDFBD3E700F0E5FC2062CFE700BFD9
:104B8C004100002046720B0055720B005A720B004C
:104B9C0030B599B008AB044605930025402305A811
:104BAC000B49CDE90653FFF730FB05A80949FFF780
:104BBC002CFB069B013B0293059B019371230093F5
:104BCC002A46054B11212046FFF7E4FE19B030BDF3
:104BDC005C720B0061720B004F730B00F0B585B06B
:104BEC0001F080FA4FF4165101F070FA01F07AFAE4
:104BFC002C492D4C01F069F841F2883001F0CAF8CB
:104C0C0040F6B83000F09CFC284B636100F09AFC35
:104C1C00A0F59C502369264A5A630838C4E907005A
:104C2C00502260621A87002644F24F67206901F017
:104C3C007DFD84F82D6000F085FC054694F82D3040
:104C4C00012B0DD000F07EFC401BB84204D8002193
:104C5C002046FFF7D7FDF1E794F82D30012BE5D175
:104C6C000121132001F0EEFE0121122001F0EAFED9
:104C7C000121112001F0E6FEFF2211461046FFF73C
:104C8C0045FB684600F0A4FE00990A4800F086FB3C
:104C9C00684600F047FF0849064805B0BDE8F040FB
:104CAC0000F04BBC6F720B0028E3032079720B00F1
:104CBC009A720B0054E60320A6720B0037B57E4C9B
:104CCC000021012000F000FE204601F079FD04F1E6
:104CDC001C0001F055F9794B002500210020C3E997
:104CEC000201C3E904451D70C3E90655C3E9085523
:104CFC009D629D85724B03F10802C3E90025C4E94E
:104D0C000D551D7200F098FC6E4B6F4C18606F4B7C
:104D1C006F491D7203F10802C3E900256D4B03F1C5
:104D2C000802C3E900251D72204600F046FF6A49BF
:104D3C0004F1100000F041FF684904F1200000F07C
:104D4C003CFF674904F1300000F037FF654904F17E
:104D5C00400000F032FF644904F1500000F02DFFD8
:104D6C00624904F1600000F028FF614904F1700011
:104D7C0000F023FF5F4904F1800000F01EFF5E4944
:104D8C0004F1900000F019FF5C4904F1A00000F060
:104D9C0014FF5B4904F1B00000F00FFF594904F116
:104DAC00C00000F00AFF584904F1D00000F005FFE4
:104DBC00564904F1E00000F000FF554904F1F00001
:104DCC0000F0FBFE534904F5807000F0F6FE5249EA
:104DDC0004F5887000F0F1FE504904F5907000F075
:104DEC00ECFE4F4904F5987000F0E7FE4D4904F5D0
:104DFC00A07000F0E2FE4C4904F5A87000F0DDFE56
:104E0C004A4904F5B07000F0D8FE494904F5B87071
:104E1C0000F0D3FE474904F5C07000F0CEFE4649C1
:104E2C0004F5C87000F0C9FE444904F5D07000F0D8
:104E3C00C4FE434904F5D87000F0BFFE414904F5A7
:104E4C00E07000F0BAFE404904F5E87000F0B5FEE1
:104E5C003E4904F5F07000F0B0FE3D4904F5F870E1
:104E6C0000F0ABFE3B4904F5007000F0A6FE3A4999
:104E7C0004F5047000F0A1FE3849394800F09DFE9D
:104E8C00384B39491D7203F10802C3E90025374B31
:104E9C0037481D7203F10802C3E90025354B03F1B5
:104EAC000802C3E900251D7240F25B72324B00957B
:104EBC0000F0A8F803B030BDE8E3032028E303209A
:104ECC00B8E30320B4E6032034E4032088E3032092
:104EDC00B0720B0058E30320B4720B00B8720B00D5
:104EEC00BC720B00C0720B00C4720B00C8720B00BA
:104EFC00CC720B00D0720B00D4720B00D8720B006A
:104F0C00DC720B00E0720B00E4720B00E8720B0019
:104F1C00EC720B00F0720B00F4720B00F8720B00C9
:104F2C00FC720B0000730B0004730B0008730B0076
:104F3C000C730B0010730B0014730B0018730B0025
:104F4C001C730B0020730B0024730B0028730B00D5
:104F5C002C730B0030730B0034730B00AF720B000F
:104F6C0024E4032070E3032038730B00D0E3032008
:104F7C0054E60320A0E30320B9400B0091F85C3009
:104F8C0010B50446016013B1886D00F065FB204636
:104F9C0010BD10B5036893F85C20044612B1986DEF
:104FAC0000F062FB204610BDF8B51F469DF824307A
:104FBC0004460D4616462BB1012380F85C30583060
:104FCC0000F042FB089B23630023636306B1A664D5
:104FDC0025B1294604F1380000F012FE069B23652A
:104FEC00079BE069A4F84C70FF2BB8BFFF23A4F813
:104FFC00543008B1FFF74DF8B4F85400FFF745F8FA
:10500C00E061F8BD2DE9FF4104460025174698469E
:10501C000E4601F0D5FB0D49E56104F1380000F0B6
:10502C00CCFD9DF82830A564CDE90283FF220F2327
:10503C00CDE90032204684F85C503B462A46314686
:10504C00FFF7B2FF204604B0BDE8F081AF720B0051
:10505C0010B50446204601F00FFB0028FAD020467C
:10506C0001F018F9C0B210BD2DE9F047054688468D
:10507C00FFF7EEFFEB691870EB6993F800A04FF0A7
:10508C0001090AF0F00A00274C462846FFF7E0FF1A
:10509C002646EB69985500F07F0313FB09F31F4478
:1050AC0001340306A4B2BFB24FEAC919EDD4631E92
:1050BC00BAF1300F88F800301ED12846FFF7C8FF30
:1050CC00EB6918552846FFF7C3FFF41C0236B6B23D
:1050DC00EB69A4B298550226B6B2BE420ED228464F
:1050EC00FFF7B6FFB5F85430A34284BFEB691855EF
:1050FC000134A4B20136EFE70026EDE7B5F85430E1
:10510C00A3422CBF20460020BDE8F0872DE9F341D7
:10511C0015461E461A4607460023964602A802F07C
:10512C007F0CBEF17F0F03F10104034488BF4CF0E8
:10513C00800CBEF17F0F4FEAD212E4B203F804CC1C
:10514C001ED8C4F10403C4F10500E954224601A998
:10515C00284405EB030801F0F7FE721C224441467B
:10516C00384601F082F8054600F066FA621C786257
:10517C003244A8B2131A5842584102B0BDE8F0812B
:10518C002346CAE70233F0B5054698B20023CE5C3D
:10519C009CB256B1B5F854C0844503F1010704D94B
:1051AC00441C16543B46A0B2F1E799B2411A0A448A
:1051BC00210A02F8021C02F8013CF0BD38B5044685
:1051CC0001F07CF9002814BF0125002502D12046EE
:1051DC0001F0ACFA284638BD2DE9F04788B00446FA
:1051EC00DDF840809DF850A0894617461E46FFF713
:1051FC00E5FF0546002840F0CD80214601A8FFF7C9
:10520C00BDFEA16C002940F08880B4F84C20A16B45
:10521C002B46204601F0D4F800287AD001232384B1
:10522C009DF85430E269042B5B4B40F08180186888
:10523C0099889B79ADF80C108DF80E300290C2F85D
:10524C0005009DF80E30BDF80C10A2F80910D372B1
:10525C000C23B8F1000F00F081809DF848009DF8F8
:10526C004420400140EAC20040F00600C0B2BAF14E
:10527C00000F01D100F0FD001FB1002E70D140F0E5
:10528C008000E269D054226DE169581C12120A5454
:10529C009A1CE169206D88540333E2694946204623
:1052AC00FFF770FF0346B8F1000F0BD0E2694146DF
:1052BC002046FFF767FFE269139903462046FFF784
:1052CC0061FF034667B1E26939462046FFF75AFF92
:1052DC0003462EB1E26931462046FFF753FF0346E1
:1052EC00053BE2699BB210212046FFF70FFF00F04F
:1052FC00A3F9C4E909004FF47A76204601F0BCF911
:10530C0088BB00F099F9A36AC01A236D73439842C5
:10531C00F3D9204601F00AFA35E002A800F074FE39
:10532C00B4F84C202B4602A9204601F029F973E76A
:10533C00D3F80700D3F80B10DB7B0DF1080CACE8AD
:10534C0003008CF8003002AB03CBC2F80500C2F8A6
:10535C0009109CF8003053730E237AE7022086E77D
:10536C0040F0C0008DE702A92046FFF77DFE04281F
:10537C00CFD1E369DE78002ECBD100F05DF90125A9
:10538C00A06284F82C6001A8FFF703FE284608B041
:10539C00BDE8F0870025F9E7C2730B007FB5012348
:1053AC000422CDE904320023CDE90233CDE90033E8
:1053BC001A46FFF711FF07B05DF804FB2DE9F74F14
:1053CC00DDF83C809DF834509DF8389004468B46AF
:1053DC0016461F46FFF7F2FE8246002851D02146A2
:1053EC0001A8FFF7CBFDB4F85420E069002101F0CF
:1053FC00B9FD0523E26959462046FFF7C3FE6B1E33
:10540C00012B15D8218CE369013189B22184090A59
:10541C001954421CE369218C92B20230995480B227
:10542C00B8F1000F04D0238C5A1C2284A8F8003049
:10543C0000210B188F42E2699BB20AD9B4F854C010
:10544C009C4506D916F801C002F803C0013189B297
:10545C00EFE79DF8301000290CBF30213121B9F154
:10546C00000F01D041F00801022D0ED141F00401D2
:10547C00053B9BB22046FFF749FE824601A8FFF789
:10548C0088FD504603B0BDE8F08F012D08BF41F0F8
:10549C000201EDE71FB5089C0394002402949DF8CB
:1054AC001C4001949DF818400094FFF787FF04B04E
:1054BC0010BD30B587B0044610460591049201F03A
:1054CC0091FD00250346CDE90155DDE90421009548
:1054DC002046FFF7DFFF07B030BDF7B504460F4697
:1054EC001646FFF76BFE054610B3214601A8FFF7E1
:1054FC0045FD238C01339BB2EBB12384238CE269F1
:10550C001B0A5371E369228C9A71E26907233946AD
:10551C002046FFF737FEE3691E54043883B2E26974
:10552C0082212046FFF7F2FD054601A8FFF731FD69
:10553C00284603B0F0BD0123DFE70022FFF7CDBF03
:10554C0000F028BC00F078B8704770477047000036
:10555C0003065ABF024B53F820000020704700BFCF
:10556C00D4730B0003065ABF024B53F820000020E3
:10557C00704700BFD4750B0008B5024B1B689B68C5
:10558C00019308BD6802030008B5024B1B68DB6879
:10559C00019308BD6802030008B5024B1B685B68E9
:1055AC00019308BD2C02030008B5024B1B689B68D5
:1055BC00019308BD2C02030008B5024B1B68DB6885
:1055CC00019308BD2C02030008B5024B1B681B6934
:1055DC00019308BD2C02030008B5024B1B685B69E4
:1055EC00019308BD2C02030008B5024B1B689B6A93
:1055FC00019308BD2C02030008B5024B1B681B6B02
:10560C00019308BD2C02030008B5024B1B689B6F6D
:10561C00019308BD2C02030008B5024B1B685B69A3
:10562C00019308BD6C02030008B5024B1B685B6854
:10563C00019308BD1802030008B5024B1B685B6997
:10564C00019308BD1802030008B5024B1B681B6BC5
:10565C00019308BD4802030008B5024B1B689B6B05
:10566C00019308BD4802030008B5024B1B681B6C74
:10567C00019308BD4802030008B5024B1B685B6C24
:10568C00019308BD4802030008B5024B1B685B6917
:10569C00019308BD6402030008B5024B1B681B6A2A
:1056AC00019308BD6402030008B5024B1B689B6A9A
:1056BC00019308BD6402030008B5024B1B68DB684C
:1056CC00019308BD3C02030008B5024B1B681B6923
:1056DC00019308BD3C02030008B5024B1B685B69D3
:1056EC00019308BD3C02030008B5024B1B689B6983
:1056FC00019308BD3C02030008B5024B1B68DB6933
:10570C00019308BD3C02030008B5024B1B681B6AE1
:10571C00019308BD3C02030008B5024B1B689B6A51
:10572C00019308BD3C02030008B5024B1B681B6CBF
:10573C00019308BD3C02030008B5024B1B681B6AB1
:10574C00019308BD2802030008B5024B1B685B6A75
:10575C00019308BD2802030008B5024B1B689B6A25
:10576C00019308BD2802030008B5024B1B68DB6AD5
:10577C00019308BD2802030008B5024B1B681B6B84
:10578C00019308BD2802030008B5024B1B685B6B34
:10579C00019308BD2802030008B5024B1B681B6C63
:1057AC00019308BD2802030008B5024B1B689B69D6
:1057BC00019308BD3802030008B5024B1B68DB6976
:1057CC00019308BD3802030008B5024B1B681B6A25
:1057DC00019308BD3802030008B5024B1B689B6A95
:1057EC00019308BD3802030008B5024B1B681B6B04
:1057FC00019308BD3802030008B5024B1B689B6B74
:10580C00019308BD3802030008B5024B1B68DB6925
:10581C00019308BD3002030008B5024B1B681B6ADC
:10582C00019308BD3002030008B5024B1B681B68CE
:10583C00019308BD4C02030008B5024B1B685B6862
:10584C00019308BD4C02030008B5024B1B681B6991
:10585C00019308BD4C02030008B5024B1B685B6941
:10586C00019308BD4C02030008B5024B1B689B69F1
:10587C00019308BD4C02030008B5024B1B68DB69A1
:10588C00019308BD4C02030008B5024B1B681B6A50
:10589C00019308BD4C02030008B5024B1B681B6D3D
:1058AC00019308BD6002030008B5024B1B685B68DE
:1058BC00019308BD2002030008B5024B1B685B690D
:1058CC00019308BD2002030008B5024B1B68DB6A7C
:1058DC00019308BD2002030008B5034B1B68D3F8E5
:1058EC008830019308BD00002002030008B5034B6B
:1058FC001B68D3F89430019308BD0000200203000C
:10590C0008B5024B1B685B68019308BD400203009D
:10591C0008B5024B1B689B68019308BD400203004D
:10592C0008B5024B1B68DB68019308BD40020300FD
:10593C0008B5024B1B681B69019308BD40020300AC
:10594C0008B5024B1B685B69019308BD400203005C
:10595C0008B5024B1B689B69019308BD400203000C
:10596C0008B5024B1B68DB69019308BD40020300BC
:10597C0008B5024B1B681B6A019308BD400203006B
:10598C0008B5024B1B681B6B019308BD400203005A
:10599C0008B5024B1B685B6B019308BD400203000A
:1059AC0008B5024B1B681B6C019308BD4002030039
:1059BC0008B5024B1B685B6C019308BD40020300E9
:1059CC0008B5024B1B689B68019308BD4402030099
:1059DC0008B5024B1B68DB69019308BD4402030048
:1059EC0008B5024B1B68DB6B019308BD4402030036
:1059FC0008B5024B1B681B68019308BD1C02030011
:105A0C0008B5024B1B685B68019308BD1C020300C0
:105A1C0008B5024B1B689B68019308BD1C02030070
:105A2C0008B5024B1B68DB69019308BD1C0203001F
:105A3C0008B5024B1B68DB6A019308BD1C0203000E
:105A4C0008B5024B1B68DB6B019308BD1C020300FD
:105A5C0008B5024B1B681B6C019308BD1C020300AC
:105A6C0008B5024B1B685B6C019308BD1C0203005C
:105A7C00002240681146FFF77BBF002240681146A8
:105A8C00FFF786BF40680022FFF77ABF406800220C
:105A9C0081F00101FFF764BF002340681A461946E4
:105AAC00FFF756BF002340681A461946FFF748BF58
:105ABC00002240681146FFF73BBF002240681146A8
:105ACC00FFF726BF406800220221FFF729BF002301
:105ADC0040681A46FFF714BF024B03225A60024A71
:105AEC001A607047C4E60320DC770B0010B504463F
:105AFC0008462170FFF788FE00236360204610BD26
:105B0C00054B02221A60054B054A9A600020C3E936
:105B1C000000FFF7C9BE00BFD8E60320CCE6032087
:105B2C000000FFFF10B504460068FFF769FF204630
:105B3C0010BD10B50446006808B1FFF761FF0023E3
:105B4C00C4E90133236010BD38B504460D46006826
:105B5C000131FFF75DFF10B1C4E90005012038BD2C
:105B6C0010B50368044623B143688B4201D301206E
:105B7C0010BD2046FFF7E8FF0028F9D0A368002BE2
:105B8C00F5D122681370F2E737B50D461146019234
:105B9C000446FFF7E5FF019A28B92046FFF7C9FF35
:105BAC00204603B030BDA2602946206801F0CCF934
:105BBC002268A3680021D154F2E7002313B5C0E991
:105BCC00003304468360037341B10846019101F030
:105BDC0009FA019902462046FFF7D6FF204602B08B
:105BEC0010BD884210B5044605D00B682BB18A68ED
:105BFC001946FFF7C9FF204610BDFFF79AFFFAE7D9
:105C0C0013B5044659B10846019101F0EBF901991D
:105C1C0002462046FFF7B8FF204602B010BDFFF742
:105C2C0088FFF9E710B54368013B0446436063B94C
:105C3C0003689B689847A368013BA3602BB9236852
:105C4C002046DB68BDE81040184710BD0248002311
:105C5C000360FFF711BD00BFDCE60320F8B5064674
:105C6C000D468F180024BD420CD0336815F8011B6B
:105C7C009B6830469847031E01DB1C44F3E7002C5D
:105C8C0008BF1C462046F8BD13B50446084659B15A
:105C9C00019101F0A7F923680199DB6802462046BF
:105CAC0002B0BDE81040184702B010BD03689B68F5
:105CBC00184738B50D210546FFF7F8FF0A210446B1
:105CCC002846FFF7F3FF204438BD38B50546FFF7EB
:105CDC00DBFF04462846FFF7ECFF204438BD30B507
:105CEC008BB00023012A8DF8243098BF0A2209AC0E
:105CFC000D46B1FBF2F101FB125303F0FF03092B2C
:105D0C0094BF30333733DBB2AA4204F8013DEFD9EC
:105D1C002146FFF7B9FF0BB030BD10B50446FFF7B5
:105D2C008BFCE060236820465B699847002808DA02
:105D3C00FFF782FCE368C01AA3689842F2D34FF0D5
:105D4C00FF3010BD2DE9F04107460C468E180D466C
:105D5C00B542A5EB040807D03846FFF7DEFF031E5B
:105D6C0002DB05F8013BF3E74046BDE8F08100009B
:105D7C00014B024A1A607047E0E6032018780B00CA
:105D8C00024B1A68024B1A60704700BFBCE203203A
:105D9C00E4E603200021FFF78FBD000010B5044B93
:105DAC0003600446806908B1FFF73CFF204610BD34
:105DBC0010790B0010B50446FFF7F0FF20461C21AC
:105DCC00FEF769F9204610BD014B00229A6070471E
:105DDC00E8E60320014B1860704700BFC0E20320C7
:105DEC0008B50B4B43B100F07DF903681B6998476C
:105DFC00002801DDAFF30080064B43B100F0B8FE84
:105E0C0003681B699847002801DDAFF3008008BDCB
:105E1C00000000000000000008B5FFF7E1FFFFF7ED
:105E2C000BFC014B186008BD40E703200548064AEF
:105E3C00064908B5121A01F087F8054B054A1A6095
:105E4C0008BD00BF00F4032004F40320C47C0B0045
:105E5C0000F403201E1C279A07B5002300931A4652
:105E6C006FF07701FFF742FD03B05DF804FB000013
:105E7C0007B543880A2B08D0502B0BD1094B1B6854
:105E8C004BB103B05DF804EB1847FFF7E5FF03B027
:105E9C005DF804FB002300931A466FF07701FFF7BF
:105EAC0025FDF4E7FCE6032010B512480021FFF7AE
:105EBC00D7FD114B1A68114B9A42114B0CBF0122A2
:105ECC0000221A7001D0FFF7B1FFFFF7ADFB0446BB
:105EDC0001F050F80B4B13B12046AFF300800021BA
:105EEC000848FFF77DFDBDE8104007480021FFF78B
:105EFC00F3BC00BFE15D0B0000F403201E1C279ACD
:105F0C00F8E60320000000007D5E0B00704710B522
:105F1C0018210446FEF7BFF8204610BDF0B5037DEE
:105F2C00062B8DB00E4600F104074FF0000412D082
:105F3C0000F1080515F8011D0A223046FFF7CFFEC7
:105F4C00AF42044419D0002CF4D02E213046FFF778
:105F5C00ADFE0444EEE72F236A4639460A208DF83D
:105F6C000040FFF791FB684601F03CF833680246AD
:105F7C00DB68694630469847044620460DB0F0BDB4
:105F8C0010B5054B0446112240F8043B002100F0EB
:105F9C00E9FF204610BD00BF40780B000346074ABE
:105FAC0010B543F8042B01F1100251F8044B43F8DF
:105FBC00044B9142F9D10A781A7010BD40780B004D
:105FCC00037D042B04D14068003818BF01207047B2
:105FDC00062B07D143683BB983682BB9C3681BB93F
:105FEC000069F1E7002070470120704710B59DF85B
:105FFC00084044EA032343EA024242EA01610423D3
:10600C004160037510BD000007B5064B0360CB78EB
:10601C0000938B784A780978FFF7E8FF03B05DF8B6
:10602C0004FB00BF40780B00417470477047704709
:10603C0008B50021007CFFF717FC40EAE07008BDB2
:10604C0008B50121007CFFF70FFC40EAE07008BDA9
:10605C0008B5007CFFF700FC20EAE07008BD08B52D
:10606C00007CFFF7F1FB20EAE07008BD13B5044695
:10607C00007C0191FFF7F0FB0028019901DC607CAA
:10608C0020B1207CFFF7F8FB20EAE07002B010BDD5
:10609C00007CFFF7F9BB10B514210446FDF7FBFF9C
:1060AC00204610BD10B54FF47A7304460846002103
:1060BC00C4E90113044B236001232074637411465B
:1060CC00FFF7B2FB204610BD54780B00007C002279
:1060DC00FFF7B2BB10B514220446002100F042FFBA
:1060EC00204610BD10B50F4C88B003A8FFF7F2FF87
:1060FC002178BFF35B8F11F001010FD12046019184
:10610C00FDF7CBFF019948B103AA0748FFF7CAFF77
:10611C002046FDF7C7FF054800F008FF024808B00D
:10612C0010BD00BF00E7032004E7032039600B001B
:10613C0070474174704708B5007CFFF7EDFA20EA10
:10614C00E07008BD08B5007CFFF7BEFA20EAE070ED
:10615C0008BD08B5007CFFF7C7FA40EAE07008BD3F
:10616C0008B5007CFFF7B8FA40EAE07008BD007C87
:10617C00FFF7C2BA37B5457C04462DB1207C03B07D
:10618C00BDE83040FFF798BA007C0191FFF7C4FAE4
:10619C0000280199F2DC284603B030BD10B514215B
:1061AC000446FDF778FF204610BD000010B54FF4F3
:1061BC007A730446084611460022C4E90123044BB5
:1061CC002360012320746374FFF7AEFA204610BDE0
:1061DC0084780B007047F8B5064615460C468F18A8
:1061EC00BC4206D0336814F8011B9B6830469847B4
:1061FC00F6E72846F8BD007C0022FFF79DBA007C2C
:10620C000021FFF7A1BA007C0021FFF7A5BA007CA2
:10621C000021FFF7A9BA007C0021FFF7ADBA10B539
:10622C0014210446FDF737FF204610BD10B54FF47E
:10623C007A73044608460021C4E90113034B23601A
:10624C0020741146FFF7A8FA204610BDB4780B0055
:10625C0013B503688DF80710DC6B01224FF0FF3388
:10626C000DF10701A04702B010BD10B40368DC6B40
:10627C004FF0FF33A4465DF8044B604713B513464B
:10628C0002688DF80710D46B0DF107010122A047AD
:10629C0002B010BD10B54369B3F88620B3F8843052
:1062AC009A42044608D06369B3F88420511CA3F8C1
:1062BC0084101344187910BD03681B699847002893
:1062CC00F1D14FF0FF30F6E7704743691868C043CF
:1062DC00C00F704770470000064B994210B500F193
:1062EC000C0405D0084600F0A5FC002808BF0024CB
:1062FC00204610BD10780B0010B5AC210446FDF7FC
:10630C00CAFE204610BDAC21FDF7C5BE2DE9F041FB
:10631C004FF0000886B01C46C0F8048005460E46B7
:10632C0017464146102202A800F01CFE631C09D03F
:10633C004FF47A73B4FBF3F203FB1244CDE9022859
:10634C005C430494686910230093006802AB41F22B
:10635C00050240F6FF71FFF727FA002807DAFFF76E
:10636C006FFB03686B60002006B0BDE8F0816869C4
:10637C00002300683A463146FFF736FA031EEEDB7F
:10638C001846F1E730B587B0044601AD6846FFF713
:10639C003BFE0FCD04340FC42B68237007B030BD07
:1063AC0070B54D69054B04468C3544F8043B0646E4
:1063BC000FCD0FC42B682370304670BD40780B0096
:1063CC002DE9F0439846036893B00D460024DB6A30
:1063DC0006461746984728466B46224621460094A7
:1063EC00FFF7D2F80546002863D1009B002B4BD059
:1063FC005B69002B48D006A8FFF7C2FD009B5C69C7
:10640C006378022B04D1211D06A8FFF7BBFF26E001
:10641C000A2B24D11122294601A800F0A3FDA36860
:10642C00002B38D004F108030DF1040C1834186853
:10643C005968624603C20833A3429446F7D1062337
:10644C0001A90CA88DF81430FFF7A8FD0DF1340C40
:10645C00BCE80F0007AC0FC4DCF80030237006A8B2
:10646C00FFF7AEFD80B1336807ADD3F82090124B27
:10647C000C930FCD0DAC0FC42B6823703A464346DA
:10648C000CA93046C84705460098FFF775F8284612
:10649C0013B0BDE8F083E368002BC3D14FF6FF7057
:1064AC00D4F81090FFF7F8F88145BBD104F1140132
:1064BC00AAE72546E8E700BF40780B0038B54369EA
:1064CC001A68002A054610DAB3F88620B3F884302F
:1064DC009A420AD103681B699847044628B92B686D
:1064EC002846DB6A9847204638BD0120FCE710B5EA
:1064FC004369B3F88620B3F884309A42044605D039
:10650C006369B3F884201344187910BD03681B69C0
:10651C0098470028F4D14FF0FF30F6E7F8B54369FF
:10652C001746B3F88620B3F884309A4205460E46D7
:10653C0016D06969B1F88430B1F88640E41ABC42CF
:10654C0028BF3C46043322461944304600F0FCFC7C
:10655C006A69B2F884302344A2F884302046F8BD2E
:10656C0003681B6998470028E3D14FF0FF34F5E727
:10657C0042690023A2F884304269A2F88630704741
:10658C002DE9F0411F4603680C46DB6A8AB00546CC
:10659C0016469847237DD5F81480042B0CBF022097
:1065AC000A2006220121FFF727F9C8F800006B69C1
:1065BC001B68002B08DA2B682846DB6A00249847F6
:1065CC0020460AB0BDE8F0812846FFF7D1FFB7B1ED
:1065DC00002303A9F8B20393ADF81030FFF71CF8B1
:1065EC000028E8D1686906230093006803AB41F2E8
:1065FC000B0240F6FF71FFF7D7F80028DBD11C2205
:10660C00002103A800F0AEFC237D042B1DD14FF418
:10661C0007733046ADF80C30FFF746F8ADF80E00B6
:10662C006068FFF739F804906B691C22186803A99D
:10663C00FFF7CAF80028BED104340FCC6D698C3535
:10664C000FC523682B700124BAE740F61C23304693
:10665C00ADF80C30FFF728F805AEADF80E00231D91
:10666C0004F1140718685968324603C20833BB4258
:10667C001646F7D1D8E7000030B54269B2F886303B
:10668C008BB004462BB1B2F884209A4201D1FFF7AB
:10669C006FFF61690868002818DBB1F886507F2D00
:1066AC0014D804310823C5F180022944FFF794F86B
:1066BC00002813DD6369B3F886200AB9A3F8842097
:1066CC006369B3F886201044A3F886006369B3F8B5
:1066DC008600B3F88430C01A0BB030BDFFF7B0F9A8
:1066EC0003680B2BF2D0FFF7ABF903680B2BEDD043
:1066FC0020230025CDE90235FFF7A2F903680193A9
:10670C00084B0949009302AA2B463220FFF7C4F824
:10671C0063691868FFF750F863694FF0FF321A602D
:10672C00D4E700BFDB780B00D4780B0010B54369BD
:10673C0004461868002801DBFFF73EF863694FF048
:10674C00FF321A606069112200218C3000F00AFCC3
:10675C002046BDE81040FFF70BBF10B500230446E0
:10676C000160C0F884308830FFF70AFC204610BD69
:10677C0073B500234FF47A72C0E901320E4A0361FB
:10678C00026043610446AC200191FDF77CFC051EC0
:10679C0005F10C0608D00123C5E90133074B01991B
:1067AC002B603046FFF7D9FF2046C4E90565FFF79B
:1067BC00DFFE02B070BD00BF10790B00F4780B0047
:1067CC0010B54FF0FF310446FFF7D2FF204610BD45
:1067DC0010B504460068002801DBFEF7EDFF2046EB
:1067EC0010BD0C30FFF7F4BF002240681146FFF7D4
:1067FC009FB8002240681146FFF7BAB800224068E3
:10680C001146FFF7C5B840680022FFF7B9B84068D9
:10681C00002281F00101FFF7A3B8002340681A465B
:10682C001946FFF795B8002340681A461946FFF73A
:10683C0087B8002240681146FFF76AB8406800220A
:10684C000221FFF76DB8002340681A46FFF758B8CD
:10685C00024B04225A60024A1A60704718E7032060
:10686C005C790B00002340681A46FFF749B8406872
:10687C0000220221FFF754B8002240681146FFF7AE
:10688C0047B8002240681146FFF752B80023406811
:10689C001A461946FFF754B8002340681A461946A1
:1068AC00FFF756B840680021FFF77AB8406800211E
:1068BC00FFF77EB84068002281F00101FFF750B865
:1068CC0040680022FFF75CB8002240681146FFF7D1
:1068DC005FB8002240681146FFF74AB82DE9F04333
:1068EC0095B014460D460746FFF74AFB00211C22C3
:1068FC000DA8009100F036FB40230C9320466B460C
:10690C000CAA0021FEF740FE044600284BD102469B
:10691C0001216868FFF70CF802218046224668685E
:10692C00FFF706F8009E81462146002E3BD0002939
:10693C0039D17368022B03D00A2B11D0F669F4E716
:10694C00B8F1000FFAD0716906A8043107ADFFF752
:10695C005BFB0FCD3C1D0FC42B6823704146EDE74C
:10696C00B9F1000FEAD07469102201A800F0FAFA0C
:10697C0006238DF8143001AD04F10803183418689F
:10698C0059682A4603C20833A3421546F7D101A918
:10699C0006A807ADFFF702FB0FCD3C1D0FC42B68FB
:1069AC0023704946CAE70098FEF7E6FD384615B055
:1069BC00BDE8F083024B034A1A6000225A6070470C
:1069CC0020E7032098790B00232813B502D9002067
:1069DC0002B010BDA0F10B03022B1AD8174C217872
:1069EC00BFF35B8F11F001010BD120460191FDF734
:1069FC0054FB019928B11248FFF778F82046FDF7AF
:106A0C0051FB0F4B1878FEF707FF0028DFD1012050
:106A1C00DEE7012809D800F0E7F80021007CFEF73A
:106A2C00B3FE80F00100C0B2D2E709380128EED8DD
:106A3C0000F09EF8007CFEF767FEF2E7B8E6032054
:106A4C00BCE60320232838B504460D460AD8FF2996
:106A5C0008D0FFF7B9FF28B129462046BDE83840D9
:106A6C00FEF7A2BD38BD38B504460D46FEF7A4FDB1
:106A7C00FF2810D0062804D84D2323FA00F0C307B2
:106A8C0009D42046FFF7A0FF28B129462046BDE8CF
:106A9C003840FEF799BD38BD10B50446FEF78CFDA5
:106AAC00031FDBB2012B08D92046FFF78DFF20B165
:106ABC002046BDE81040FEF78FBD002010BD0D280C
:106ACC0010B504469CBF0E34A4B22046FFF77CFFE1
:106ADC0050B103212046FEF75FFD032804D1204668
:106AEC00BDE81040FEF788BD002010BD38B5044647
:106AFC000D46FFF769FFF0B104212046FEF74CFD6F
:106B0C00042805D1A9B22046BDE83840FEF76CBD7B
:106B1C0002212046FEF740FD02280CD12046FEF74C
:106B2C004BFD012801D0042805D129462046BDE89B
:106B3C003840FEF769BD38BD7047000038B50446D3
:106B4C0014252A46002100F00DFA2580402507491E
:106B5C0025812846258200F06BF8044960602846A0
:106B6C0000F066F8E060204638BD00BFCC790B0021
:106B7C0030B50E4D2978BFF35B8F11F0010487B04F
:106B8C0011D12846FDF789FA68B101A8FFF7D6FFA5
:106B9C0001AA21460648FFF709FB2846FDF782FAB1
:106BAC00044800F0C3F9024807B030BD28E70320C1
:106BBC002CE70320456B0B007047000038B52025EF
:106BCC00142304460360856005610649284600F0DD
:106BDC002FF804496060284600F02AF8E06020464F
:106BEC0038BD00BFCC790B0030B50E4D2978BFF302
:106BFC005B8F11F0010487B011D12846FDF74DFAD7
:106C0C0068B101A8FFF7DAFF01AA21460648FFF791
:106C1C000DFB2846FDF746FA044800F087F90248B8
:106C2C0007B030BD44E7032048E70320C56B0B00D9
:106C3C00FDF72BBA014900F05DB900BFE8790B00F4
:106C4C000AB100F081B9704708B50B68B3F1804FF9
:106C5C0002D30D4800F067F993420BD9B3EB420F06
:106C6C004FEA420006D2B0F1804F2ABF6FF040438A
:106C7C0008600B600868013001D500F051F9BDE8DF
:106C8C000840FDF700BA00BFF0790B0050F8083B44
:106C9C00834202D01846FDF7FAB97047012A10B4A6
:106CAC0004D10A785DF8044B027070475DF8044B10
:106CBC00FFF7C6BF08B5521AFFF7F0FF08BD8842B0
:106CCC00F7B504460E461ED003464D6853F8082B04
:106CDC009A4214BF82680F22AA420AD201A90195D6
:106CEC00FFF7B2FF07462046FFF7D0FF019B276056
:106CFC00A36025B1316820682A46FFF7CFFF2368CF
:106D0C00656000225A5503B0F0BD7FB500241023F6
:106D1C00CDE90234036815469E6912686B46CDE9CD
:106D2C000044B0479DF8043003F00603062B03BF64
:106D3C00009B2B600120204604B070BD009890424F
:106D4C0014BF01200620704710B5034B03600446A6
:106D5C0000F0CDF8204610BD407A0B0010B504466B
:106D6C00FFF7F2FF20460821FDF795F9204610BDEC
:106D7C002DE9F0411F46DDE90834DDF8188098450F
:106D8C000646154607D1079900F0B4F818B165719D
:106D9C000020BDE8F0813946304600F0ABF8002801
:106DAC00F6D00123C4F800802571A371F0E738B543
:106DBC0015461C4600F09EF820B10823E36006231C
:106DCC002560237138BD73B505460C4601921E46ED
:106DDC0000F090F850B9032E08D82368019A5B692B
:106DEC002946204602B0BDE87040184702B070BD7D
:106DFC0010B5034B03600446FFF7A6FF204610BDF9
:106E0C00A07A0B0010B50446FFF7F2FF20460C21C8
:106E1C00FDF741F9204610BDF7B5089F974205468E
:106E2C000E4614460AD0A86802680897156A3146BF
:106E3C002246AC4603B0BDE8F040604719460193CA
:106E4C0000F058F8019B0028EDD0062003B0F0BDEF
:106E5C002DE9F14F0D461946DDE90A4BDDE90CA68B
:106E6C0081461746984600F045F890B1002D3460E5
:106E7C00377109DB61198A450CBF06210121B171FB
:106E8C00002001B0BDE8F08F0235F9D10123B371B8
:106E9C00F6E7544506D15946484600F02BF808B1A0
:106EAC007771EDE7D9F808000368CDE90CA6CDE9B8
:106EBC000A4BDC693A4643462946A44601B0BDE874
:106ECC00F04F60472DE9F04107460C4615461E462B
:106EDC00FFF76DFF48B9B86803689F692A463346C7
:106EEC002146BC46BDE8F0416047BDE8F0817047E3
:106EFC0000207047814208B50ED0406803782A2BD9
:106F0C000CD049680B782A2B08BF013100F060F8CF
:106F1C00B0FA80F0400908BD0120FCE70020FAE738
:106F2C0008B5FEF785FD08B5FEF782FD0023014686
:106F3C001A46184600F0FEB80A22002100F0F0B8FC
:106F4C000A22002100F0ECB80A44914200F1FF3310
:106F5C0000D1704710B511F8014B03F8014F914265
:106F6C00F9D110BD02440346934200D1704703F897
:106F7C00011BF9E738B5104B1D68AB6B0446B3B970
:106F8C001820FEF735FD0246A86320B90B4B0C48C0
:106F9C004221FEF75DFD0B490B4BC0E900130B4B77
:106FAC0083600B23838100210120C2E90401AB6BB8
:106FBC0000221C615A6138BDC0E20320D97A0B0053
:106FCC00F07A0B000E33CDAB34126DE6ECDE05001F
:106FDC0010F8012B11F8013B012A28BF9A42F7D077
:106FEC00D01A7047034613F8012B002AFBD1181A4C
:106FFC000138704710B50139034632B111F8014F11
:10700C0003F8014B013A002CF7D11A4400219342AA
:10701C0000D110BD03F8011BF9E70000012B2DE98D
:10702C00F04701D0242B06D9FEF70AFD1623036086
:10703C000020BDE8F087DFF8E4C00D462E4615F8B9
:10704C00014B14F80C7017F00807F7D12D2C32D126
:10705C002C780127B51C002B5BD0102B09D1302CC0
:10706C0007D12C7804F0DF04582C4DD16C78102308
:10707C00023507F1004808F1FF384FF0000CB8FB5F
:10708C00F3F9664603FB198AA4F1300EBEF1090F21
:10709C0016D87446A34224DDBCF1000F1EDBB145AB
:1070AC001CD301D1A24519DB06FB03464FF0010CA2
:1070BC0015F8014BE8E72B2C04BF2C78B51CCAE75C
:1070CC00A4F1410EBEF1190F01D8373CE2E7A4F14F
:1070DC00610EBEF1190F04D8573CDBE74FF0FF3CB3
:1070EC00E6E7BCF1000F05DA22230360464642B9FD
:1070FC0030469EE707B17642002AF9D0BCF1000F6A
:10710C0000D0691E1160F3E73024002BB1D10823A5
:10711C00AFE7302CA5D00A23ABE700BF6E7B0B008A
:10712C0013460A46014602480068FFF777BF00BFC6
:10713C00C0E203202DE9F843DFF8B8800646D8F802
:10714C0000001F460D46914600F056F8254B1C6872
:10715C0034B9254C1C60254B13B11B68C4F888301E
:10716C0063681F2B07DDD8F8000000F047F84FF0DC
:10717C00FF30BDE8F8834EB3D4F8880088B91C4BB7
:10718C0023B9D8F8000000F038F8F0E74FF4847019
:10719C00FEF72EFC0028F4D00023C0E94033C4F8DD
:1071AC008800636840F8239001229A4000EB830129
:1071BC00D0F800311343C0F80031022EC1F88070B2
:1071CC0002BFD0F804311343C0F804316368D8F817
:1071DC0000005A1C0233626044F8235000F00EF891
:1071EC000020C6E7E8E703205CE70320000000006E
:1071FC00FD590B0024E303207047704770470000D3
:10720C001D400B0059400B0081400B0085400B00CA
:10721C0000000000256900256C6900696E006F751F
:10722C00740070776D00647700617700616972702B
:10723C006F72742F7265717565737400636F6E6E07
:10724C00656374656477657200256C6C750062000B
:10725C00746D706C00544D504C3233375468394552
:10726C004C4500636F6E6E6563746564004E6A30E6
:10727C005F7A73644C426B4B624F73755F697962D2
:10728C0046464E6144637244687233665100626CC8
:10729C00796E6B2E636C6F756400616972706F72BE
:1072AC00742F230041544C00424F53004257490065
:1072BC00434C4500434C5400435647004443410063
:1072CC0044454E004446570044545700455752001D
:1072DC00464C4C0049414400494148004A464B0049
:1072EC004C4153004C4158004C4741004D434F001A
:1072FC004D4457004D454D004D4941004D535000F4
:10730C004F5244005044580050484C0050485800CC
:10731C005049540053414E005345410053464F00D1
:10732C00534C430053544C00545041006C61622E3A
:10733C0074686577636C2E636F6D00626C6E6B693D
:10734C006E66006D637500302E302E300066772D22
:10735C007479706500544D504C323337546839454C
:10736C004C45006275696C64004F637420313120A8
:10737C00323032332032323A35353A323600626CA2
:10738C00796E6B00312E332E3200682D626561747C
:10739C0000343500627566662D696E00313032340A
:1073AC0000646576005061727469636C652041728B
:1073BC00676F6E00000000044D5154540400064DDC
:1073CC00514973647003000055550B0055550B0063
:1073DC0055550B0055550B0055550B0055550B00CD
:1073EC0055550B0055550B0055550B0055550B00BD
:1073FC0055550B0055550B0055550B0055550B00AD
:10740C0055550B0055550B0055550B0055550B009C
:10741C0055550B0055550B0055550B0055550B008C
:10742C0055550B0055550B0055550B0055550B007C
:10743C0055550B0055550B0055550B0055550B006C
:10744C0055550B0055550B0055550B0055550B005C
:10745C0055550B0055550B0055550B0055550B004C
:10746C0055550B0055550B0055550B0055550B003C
:10747C0055550B0055550B0055550B0055550B002C
:10748C0055550B0055550B0055550B0055550B001C
:10749C0055550B0055550B0055550B0055550B000C
:1074AC0055550B0055550B0055550B0055550B00FC
:1074BC0055550B0055550B0055550B0055550B00EC
:1074CC0055550B0055550B0055550B0055550B00DC
:1074DC0055550B0055550B0055550B0055550B00CC
:1074EC0055550B0055550B0055550B0055550B00BC
:1074FC0055550B0055550B0055550B0055550B00AC
:10750C0055550B0055550B0055550B0055550B009B
:10751C0055550B0055550B0055550B0055550B008B
:10752C0055550B0055550B0055550B0055550B007B
:10753C0055550B0055550B0055550B0055550B006B
:10754C0055550B0055550B0055550B0055550B005B
:10755C0055550B0055550B0055550B0055550B004B
:10756C0055550B0055550B0055550B0055550B003B
:10757C0055550B0055550B0055550B0055550B002B
:10758C0055550B0055550B0055550B0055550B001B
:10759C0055550B0055550B0055550B0055550B000B
:1075AC0055550B0055550B0055550B0055550B00FB
:1075BC0055550B0055550B0055550B0055550B00EB
:1075CC0055550B0055550B0057550B00E9420B0058
:1075DC0057550B0057550B0057550B0057550B00C3
:1075EC0057550B0057550B0057550B0057550B00B3
:1075FC0057550B0057550B0057550B0057550B00A3
:10760C0057550B0057550B0057550B0057550B0092
:10761C0057550B0057550B0057550B0057550B0082
:10762C0057550B0057550B0057550B0057550B0072
:10763C0057550B0057550B0057550B0057550B0062
:10764C0057550B0057550B0057550B0057550B0052
:10765C0057550B0057550B0057550B0057550B0042
:10766C0057550B0057550B0057550B0057550B0032
:10767C0057550B0057550B0057550B0057550B0022
:10768C0057550B0057550B0057550B0057550B0012
:10769C0057550B0057550B0057550B0057550B0002
:1076AC0057550B0057550B0057550B0057550B00F2
:1076BC0057550B0057550B0057550B0057550B00E2
:1076CC0057550B0057550B0057550B0057550B00D2
:1076DC0057550B0057550B0057550B0057550B00C2
:1076EC0057550B0057550B0057550B0057550B00B2
:1076FC0057550B0057550B0057550B0057550B00A2
:10770C0057550B0057550B0057550B0057550B0091
:10771C0057550B0057550B0057550B0057550B0081
:10772C0057550B0057550B0057550B0057550B0071
:10773C0057550B0057550B0057550B0057550B0061
:10774C0057550B0057550B0057550B0057550B0051
:10775C0057550B0057550B0057550B0057550B0041
:10776C0057550B0057550B0057550B0057550B0031
:10777C0057550B0057550B0057550B0057550B0021
:10778C0057550B0057550B0057550B0057550B0011
:10779C0057550B0057550B0057550B0057550B0001
:1077AC0057550B0057550B0057550B0057550B00F1
:1077BC0057550B0057550B0057550B0057550B00E1
:1077CC0057550B0057550B0000000000000000003F
:1077DC00DB5A0B00D15A0B00C75A0B00BD5A0B00D9
:1077EC00B15A0B00A55A0B00B1680B00B9680B001D
:1077FC00995A0B00915A0B00875A0B007D5A0B00BB
:10780C00E9680B00000000000000000061707000CF
:10781C0025592D256D2D25645425483A254D3A259D
:10782C0053257A0061736374696D65000000000074
:10783C0000000000295F0B00195F0B001B5F0B00A1
:10784C0000000000000000003B600B00A3600B0078
:10785C0079600B00695C0B006B600B003D600B00EA
:10786C004D600B009D600B005D600B0035600B00E4
:10787C0000000000000000003D610B00A9610B003E
:10788C0081610B00695C0B0051610B006D610B0099
:10789C005F610B007B610B003F610B0043610B00D0
:1078AC000000000000000000E1610B002B620B00E7
:1078BC0003620B00E3610B000B620B0013620B0005
:1078CC001B620B0023620B00776972696E67007292
:1078DC00656376206572726F72203D20256400000E
:1078EC000000000000000000E1620B0005630B00CB
:1078FC00EF670B0013630B00E5620B000000000048
:10790C0000000000A95D0B00C15D0B005D620B0067
:10791C0077620B0085660B00A1620B00FB640B0009
:10792C00D5620B008D650B00CD630B0029650B0038
:10793C0039670B00C9640B00D7620B0089620B001E
:10794C0019630B00AD630B00000000000000000089
:10795C0053680B0049680B003F680B00F5670B0080
:10796C0033680B0027680B00B1680B00B9680B007B
:10797C001B680B0013680B0009680B00FF670B00FA
:10798C00E9680B00000000000000000071680B00AB
:10799C007B680B0085680B008F680B0099680B00E7
:1079AC00A5680B00B1680B00B9680B00C1680B002F
:1079BC00CD680B00D5680B00DF680B00E9680B0085
:1079CC0000537431395F53705F6D616B655F736821
:1079DC00617265645F74616700000000407A0B009F
:1079EC00CD790B0062617369635F737472696E6742
:1079FC003A3A5F4D5F63726561746500A07A0B0063
:107A0C00147A0B00C47A0B004E31305F5F637878C8
:107A1C00616269763131375F5F636C6173735F7478
:107A2C007970655F696E666F4500000000000000AC
:107A3C00087A0B00556D0B00696D0B00FD6E0B0089
:107A4C00FD6E0B00D36D0B00176D0B00BB6D0B00A7
:107A5C007D6D0B00496D0B00A07A0B00707A0B004A
:107A6C00087A0B004E31305F5F637878616269761B
:107A7C003132305F5F73695F636C6173735F74790C
:107A8C0070655F696E666F450000000000000000C5
:107A9C00647A0B00FD6D0B00116E0B00FD6E0B007C
:107AAC00FD6E0B00D36D0B00176D0B00D16E0B0030
:107ABC005D6E0B00256E0B00407A0B00CC7A0B0030
:107ACC00537439747970655F696E666F0052454501
:107ADC004E54206D616C6C6F6320737563636565C8
:107AEC00646564002F6D6E742F776F726B737061A9
:107AFC0063652F776F726B73706163652F474343B8
:107B0C002D31302D706970656C696E652F6A656EEC
:107B1C006B696E732D4743432D31302D7069706541
:107B2C006C696E652D34385F32303230313132341D
:107B3C005F313630363138303634312F7372632F33
:107B4C006E65776C69622F6E65776C69622F6C69F4
:107B5C0062632F7374646C69622F72616E642E633E
:107B6C000000202020202020202020282828282821
:107B7C0020202020202020202020202020202020F9
:107B8C002020881010101010101010101010101051
:107B9C001010040404040404040404041010101051
:107BAC00101010414141414141010101010101010C
:107BBC00010101010101010101010101011010107C
:107BCC0010101042424242424202020202020202DF
:107BDC00020202020202020202020202021010104F
:107BEC001020000000000000000000000000000059
:107BFC000000000000000000000000000000000079
:107C0C000000000000000000000000000000000068
:107C1C000000000000000000000000000000000058
:107C2C000000000000000000000000000000000048
:107C3C000000000000000000000000000000000038
:107C4C000000000000000000000000000000000028
:107C5C000000000000000000000000000000000018
:107C6C0000000000C94C0B00E55A0B000D5B0B002B
:107C7C00595C0B007D5D0B008D5D0B00D55D0B0021
:107C8C005D680B00C1690B000000000000000000E3
:047C9C0000000000E4
:107CA000040000001400000003000000474E5500CF
:107CB000D018DDF31F3D22FAE66364D95C2B6347DD
:047CC000F9F796DC5E
:047CC40000000000BC
:107CC80030780B00C4E20320000000000000000030
:107CD800000000000000000000000000000000009C
:107CE800000000000000000000000000000000008C
:107CF800000000000000000000000000000000007C
:107D0800000000000000000000000000000000006B
:107D1800000000000000000000000000000000005B
:0C7D28000000000000000000ECE7032059
:107D3400FFFFFFFF00000102030405060708090A0C
:107D44000B0C0D0E0F101112131415161718191A07
:087D54001B1C1D1E1F2028004E
:047D5C00785634120F
:04000003B000401CED
:00000001FF
