:02000002B0004C
:1040000000400B0054BE0B00000006000C0005022F
:084010000401E50C00000000B2
:0440180044AD0B00A8
:1040200009480A49884208B505D0094A824202D0A7
:10403000121A04F045FE0748074A0021121A04F03C
:1040400067FE014808BD00BF44E1032050BC0B00DF
:1040500020E3032020E30320EDE7032070B5074EA3
:10406000074C02F069FCA41BA4080025AC4200D157
:1040700070BD56F8043B98470135F7E7FCBB0B00D1
:1040800020BC0B0000F014BF08B500F0CDFEBDE869
:10409000084002F009BC02F0CFB802F0CDB802F03F
:1040A000D3B802F0D1B802F0CFB80078B0FA80F0FF
:1040B000400970470123037070471FB50446084646
:1040C000039104F06DFE039B00906268002120467E
:1040D00003F09EFC04B010BD70B50B460C4653F8BF
:1040E000081B9942054600680DD162680AB103F0C9
:1040F0000FFC63682A686B600021D154226800239A
:104100006360137070BD29606168696005F108061D
:10411000B042A16818BFAA68A96008BF002010B10A
:104120002060A260EAE72360E8E7000008B501F03C
:10413000AFFE034B1860BDE8084002F065B800BF51
:1041400040E7032003682BB14268934202D218462D
:1041500004F047BD0020704738B50568044645B1F6
:1041600043689D4205D2284604F01AFE01300544FA
:104170002560204638BDF8B5044647680D4621B98C
:1041800003687A1C4260D955F8BD084604F008FE61
:10419000A368461CF2199A42F6D82068324629468E
:1041A000384404F08DFD606830446060ECE7000046
:1041B00038B504460B46D0E901012568044A091ABE
:1041C000284402F051F8636801300344636038BD4D
:1041D00058AD0B0038B504460B46D0E901012568FF
:1041E000044A091A284402F03FF863680130034486
:1041F000636038BD5BAD0B00F0B5D0F834C087B05C
:1042000006460F46BCF1000F0CD00A46002361465B
:1042100002F01EFE012816BF002001200746778706
:1042200007B0F0BD074B009300F120050FCD01ACA6
:104230000FC42B6823703A4663466946304602F045
:10424000E7FEE7E758B40B0038B50D46C0F1FF01B3
:104250001320144603F092F9C5F1FF01122003F078
:104260008DF9C4F1FF011120BDE8384003F086B993
:1042700008B503F0C8FCB0FA80F0400908BD0000A2
:104280002DE9F04F2DED028B02F108038DB023F0E4
:10429000070302AFADEB030D154602AC2046002626
:1042A00004F00EFD665507F1180320463B6104F04B
:1042B00077FD0F2804EB0005386008D932463946EF
:1042C00007F1100003F0D4FA3B683861BB61214666
:1042D0003869AA4C2A4603F033FB3B683A697B6194
:1042E0000021D154A64807F11001FFF7F5FE07F1B0
:1042F000100003F0DFFAA249204603F026FBD4E9C0
:10430000002313449A4209D0013B9A4206D2117805
:10431000187802F8010B03F80119F6E702F02AFCFD
:10432000974C9849054607F1100002F01EF92168E4
:10433000384602F01AF9394607F1100002F099F9EF
:104340000168284602F009FA384602F0C3F807F17E
:10435000100002F0BFF88C490022204603F02FFC29
:10436000013053D088498948884E894DFFF7A5FE12
:1043700002F000FC8749044607F1100002F0F5F84E
:104380003168384602F0F1F8394607F1100002F0C2
:1043900070F90168204602F0E0F9384602F09AF818
:1043A00007F1100002F096F87B493046FFF760FFF6
:1043B0000446002860D1024631467148774E03F02A
:1043C000F8FB0323C2186E4907F1100003F07AFCD2
:1043D00007F110013046FFF77FFE07F1100003F0F0
:1043E00069FA366801F058FFD0F8008001F054FFF8
:1043F0000A22046007F11001304605F0B1FB3B6969
:104400009E42044627D1664803F062F965490022BE
:10441000204603F0D4FB013001D06249A3E7624992
:104420000022204603F0CBFB013001D05E499AE721
:104430005E490022204603F0C2FB013001D05B49F7
:1044400091E75B490022204603F0B9FB013014BF1D
:104450005749514987E701F01FFF0368222B02D11A
:104460004F4803F03BF901F017FF03681BB901F057
:1044700013FFC0F800802C6002F07CFB0A22044687
:104480002968384602F0B1F8394607F1100002F009
:104490008FF8484907F1100002F0F7F8016820464C
:1044A00002F05BF907F1100002F014F8384602F050
:1044B00011F841493148002203F081FB3E4906468C
:1044C00000222E4803F07BFB3C4902462B4803F0B8
:1044D00076FB394904460022284803F070FB023C71
:1044E000231A374C2549B21C07F1100003F0EAFBF0
:1044F00007F110012046FFF7EFFD07F1100003F070
:10450000D9F9D4E900231344934209D0013B9A42DC
:1045100006D21178187802F8010B03F80119F6E7B2
:1045200028492748284E002203F049FB013000F0BB
:10453000D78024492248002203F041FB6368984257
:10454000014604D902462149214803F0CAF84FF038
:104550000208204B1A48CDF80080002203F058FAD8
:104560006368C3F17F5303F57F1303F57F533F3334
:10457000012B33D8184803F0AEF800BF98E30320AE
:10458000C8E303205FAD0B006CAD0B0080E303209C
:10459000ACE6032084AD0B0080AD0B0050E303209C
:1045A00095AD0B0070AD0B0074AD0B0078AD0B003A
:1045B0007CAD0B009AAD0B00AFAD0B006FB60B00DE
:1045C00068E30320B2AD0B00B4E60320B4AD0B00EA
:1045D000CAAD0B0001AE0B0004AE0B0042467E4993
:1045E0007E4803F093FA7E497C48002203F0E7FA04
:1045F0007A490346002207F1100003F063FB386993
:1046000004F0ECFA07F1100059EC108B03F052F9AA
:1046100000222F21714803F0E1FA63686F49421CC0
:1046200007F1100003F04EFB386904F0D7FA07F1E8
:1046300010005BEC10AB03F03DF94946404604F036
:10464000D7F8594608EE100A504604F0D1F807EEA4
:10465000900AC8EE277AC6ED007A02F08BFA96ED42
:10466000000A04460621384601F0D2FF394607F118
:10467000100001F09DFF5B4907F1100002F005F802
:104680000168204602F069F807F1100001F022FFEE
:10469000384601F01FFF96ED007AF1EE047AB4EE91
:1046A000E77AF1EE10FA30DB4F495048FFF7E0FDB2
:1046B000F8B12B681E2B28DD4D494E48FFF7FDFC55
:1046C00000210846FF22FFF7BFFD02F053FA4849D8
:1046D00002F043F82C37BD46BDEC028BBDE8F08FED
:1046E000206804F07BFA51EC100B04F081F8306084
:1046F000B3E741493D48FFF7BBFD0028D9D13F4909
:104700003A48FFF7B5FD0028D3D1D6ED007AB0EED8
:10471000088AF4EEC87AF1EE10FA13DCD6ED007ACE
:10472000F4EEC87AF1EE10FA3AD435493148FFF781
:10473000C4FCFF2108460022FFF786FD02F01AFAAA
:104740002F49C5E72F492948FFF792FD78B12B681B
:104750000A2BE3DD2C492748FFF7AFFC0022FF219D
:104760001046FFF771FD02F005FA2749B0E7274927
:104770001E48FFF77DFD0028E9D11B491B48FFF7C4
:1047800077FD0028E3D11C491848FFF771FD002888
:10479000DDD11A491548FFF76BFD0028D7D1BDE7D9
:1047A0001A491248FFF764FD78B12B68092BBCDC6D
:1047B00017491048FFF781FC00221146FF20FFF740
:1047C00043FD02F0D7F9124982E70E490748FFF787
:1047D0004FFD0028E9D1A8E701AE0B0068E30320F4
:1047E000B2AD0B0019AE0B0074AD0B0080E30320DB
:1047F0002EAE0B00B0E3032080AD0B006CAD0B00C0
:1048000028AE0B007CAD0B002DAE0B0078AD0B007D
:1048100029AE0B0008B5002380F82D30006902F0A6
:10482000CDFCBDE8084001F0BDBA00002DE9F04321
:1048300001EB02098FB04945CDE9051980460D46C7
:10484000164680F0928005A80F88FFF785FC036864
:104850004B4580F08A8005A8FFF774FC47F2762369
:104860009F42C4B200F0A98027D847F261239F423B
:104870007ED047F264239F4242D046F670539F4257
:1048800028D1634E634FDFF8A081059B99456CD911
:1048900005A8FFF757FCC4B205A8FFF75DFC059D0E
:1048A0003146284604F06AFA0146E0B9204602F093
:1048B00011FE05A8FFF750FCE7E747F264739F423B
:1048C0003FD047F276739F4200F0878047F26173D2
:1048D0009F425FD00023CDE9013302220092B8F855
:1048E0002A20194629E03946284604F047FA28B11B
:1048F0004146284604F042FA0028DAD10121D5E7E2
:104900000AAB4549079307A810230025CDE90853B2
:10491000FFF731FC07A82146FFF74AFC204602F0CA
:1049200003FE014607A8FFF755FC089BCDE901559A
:10493000013B0093079B2A461421404600F014FBDC
:1049400013E005A8FFF708FC036899450DD9A4B248
:104950000121204602F0BEFD05A8FFF7F3FB011E72
:1049600018BF0121204602F0C6FD0FB0BDE8F0835C
:104970000AAB079307A8102328490025CDE908535F
:10498000FFF7F9FB07A82146FFF712FC204602F0CB
:10499000DEFDC6E705A8FFF7DFFB03689945E4D90C
:1049A000A4B20121204602F095FD05A8FFF7CAFB3D
:1049B0000146204602F0E2FDD7E72046ADF8284048
:1049C00001F0F2F903460AA823B1154A934201D037
:1049D0009847CAE701F0E4F9C7E705A8FFF7BCFB71
:1049E000059BADF81C405D1B751B2046CDE90A35C3
:1049F0000C9501F0E3F903460AA907A823B1094A77
:104A0000934201D09847B0E701F0CBF9ADE700BF82
:104A100032AE0B0035AE0B003DAE0B0040AE0B00CE
:104A2000A15D0B00A35D0B0039AE0B002DE9F04139
:104A30008CB004AF044605220069391D01F0CAFE9E
:104A4000A8B3052804D000202037BD46BDE8F0817A
:104A5000B7F805305BBA9AB2A7F80530B7F8073057
:104A60005BBA1FFA83F8A7F80730002AEBD03B792E
:104A70003BBB01F093F90246E06194F82D00B7F8D2
:104A80000730D0B9B7F80510012916D1092B10D07D
:104A9000C82B01D0042BD7D101256262204684F8AF
:104AA0002D5000F0B5FBFFF741FB01F07BF9012031
:104AB000CAE7032384F82D30C6E7581F18BF01202A
:104AC000C2E7B8F5806F03D92046FFF7A3FEEEE7F3
:104AD00008F108036E46DB08A6EBC3039D4604AD50
:104AE00020694246294601F075FE80454FF00000DE
:104AF00041D1B7F80730E85401F050F93B79E06153
:104B0000142B69D009D80F2B66D0112B71D0062B2E
:104B100016D02046FFF77EFE1DE0292B1DD0372B37
:104B200019D01D2BF5D194F82D304BB9012384F801
:104B30002D30204600F06CFBFFF7F8FA01F032F957
:104B40000023C821B7F805200091CDE901331946AB
:104B5000204600F009FA01200DE0A3691BB94020AE
:104B600001F06AFBA061B7F80780A8444545C7E992
:104B7000055802D30020B54666E729464022A069C1
:104B800004F02AF9A369002583F83F5007F11400C7
:104B9000FFF7E2FA036898451CD9786920B1BB6930
:104BA000984215D204F021F885B2206902F006FB84
:104BB0002369A2695A631D87002384F82D3001F010
:104BC000EDF8A0F59C500838C4E907006062C2E720
:104BD0002846E9E75025E8E77B68B7F80720C3F3E4
:104BE0000F23638529462046FFF720FE00236385B7
:104BF000B1E700233B80B7F807302B449D42C7E95B
:104C00000353A8D207F10C00D5F80080FFF7A4FAEF
:104C1000FB68B7F807105D1B4D1BC7E905357B68BE
:104C2000FD61C3F30F2363852D4B984552D020D8E7
:104C3000A3F57F236FF400721344984532D00FD848
:104C4000A3F50033063B984532D003F50033033318
:104C50009845CBD107F11401384601F0A2F8C5E719
:104C6000204B9845C2D107F11401384601F099F85C
:104C7000BCE71D4B984521D003F19F6303F500333A
:104C800003F5807398451FD003F16E4303F530237D
:104C900003F586739845A9D107F11401384601F050
:104CA00080F8A3E707F11401384601F07AF89DE790
:104CB00007F11401384601F074F897E707F1140181
:104CC000384601F06EF891E707F11401384601F01B
:104CD00068F88BE707F11401384601F062F885E7C0
:104CE000766673006462670061636F6E70B5044638
:104CF00086B00D46FFF71AFA94F82D30022B22D019
:104D000094F82C30628D0133DBB284F82C30AAB9D0
:104D1000022B13D8206902F019F9B0B125B9206926
:104D200002F0F2F9002810DD2046FFF77FFE002890
:104D3000F5D1206902F042FA01F034F894F82C30F1
:104D4000013B84F82C3006B070BD01F027F8054611
:104D5000206902F0FBF894F82D60012E24D120B9CF
:104D600065622046FFF756FDE8E7E3694FF21862F7
:104D7000EB1A9342F5D84AF6C872934203D8236AD5
:104D8000EB1A9342DAD9636A41F27072EB1A9342DA
:104D9000D4D90023CDE9013300931A4606212046D9
:104DA00000F0E2F86562C9E7002EC7D1636AEB1A2A
:104DB00048B141F270729342C0D9206902F0FEF905
:104DC00084F82D60BAE741F288329342B6D920695F
:104DD00002F0F4F92669318F3046FFF70DFA48B931
:104DE000338F502B1AD141F690713046FFF704FAF9
:104DF0000028D7D06369059301251846258503F05F
:104E0000CFFF0022CDE90122059B00902A461D21FB
:104E1000204600F0A9F8236A63628FE741F690729A
:104E20009342BFD15021E0E730B51A4885B0002148
:104E3000FFF75CFF184800F08DFCD8B1164800F071
:104E400060FE164D2C6801F023F804F51C54103454
:104E500084420DD8124B13491A680F4800F0F5FD33
:104E600001F088FE104901F078FC01F011F828608B
:104E700005B030BD684601F0CFF90099064800F052
:104E800059FD684601F026FB0849034800F081FF00
:104E9000D7E700BF20E303204CE60320B0E6032061
:104EA0001CE4032053AE0B0063AE0B0043AE0B00BB
:104EB000F8B501F05FFE4FF4165101F04FFE01F01E
:104EC00059FE2549254C01F048FC41F2883001F09B
:104ED000A9FC40F6B83000F05FFF214B636100F0A1
:104EE0005DFFA0F59C5023691E4A5A630838C4E947
:104EF0000700502260621A87002644F24F6720693B
:104F000002F05CF984F82D6000F048FF054694F843
:104F10002D30012B0DD000F041FF401BB84204D8CA
:104F200000212046FFF7E2FEF1E794F82D30012B37
:104F3000E5D10121132002F0CDFA0121122002F067
:104F4000C9FA0121112002F0C5FA0022BDE8F8409B
:104F500011461046FFF778B975AE0B0020E3032029
:104F60007FAE0B00A0AE0B002DE9F04F91B004AF67
:104F700004460069BD6D894616469A46EB4601F027
:104F8000E5FF002800F0B580B9F11D0F04D8714B82
:104F900023FA09F3DB0720D494F82D30012B40F0DD
:104FA000A880A9F10F03052B17D8D4E90723934252
:104FB00038BF134603F1420800F0F0FEA8EB0000F2
:104FC0000028C0F29B8000212046FFF78FFE00F0F2
:104FD000E5FEA8EB00000028F5DA2378012B2DD19F
:104FE00002232370D4E90223134307F118004FF082
:104FF000000800F08C801823C7E9030856497B613C
:1050000007F10C00FFF7B7F8D7E9043194ED027B04
:10501000F868524AC91A18448DED007B01F024F952
:105020003B69013018443861CDE9018801380090AE
:10503000FB68424615212046FFF796FF46B9668D6C
:1050400036B9238D01339BB2002B70D02385268D7A
:10505000BAF1000F6DD005F10508FB6D002B3B6E1A
:1050600008BF0023984408F1070323F00703ADEBC2
:10507000030D04AB7B603B6E8DF81090EA18C2F311
:10508000072376BA43EA0223ADF81160ADF8133076
:10509000BAF1000F50D0002D4ED02A4651460DF1E6
:1050A000150003F00DFE681DFB6D3BB13B6E2BB18F
:1050B0001A467B68F96D184403F002FE0025454549
:1050C0003ED2A8EB05027B682069B2F5806F28BF4D
:1050D0004FF48062591901F010FE0646002000F0DE
:1050E0005BFE5EBB206902F069F884F82D6000F079
:1050F00059FE3437DD46BD46BDE8F08F94F82C10DC
:1051000000297FF46AAF2046FFF7F0FD65E707F15D
:105110000C03C7E90638124904233B62FFF72BF85A
:10512000CDE90188FB69013B0093BB6981E701235D
:105130008CE74FF0050890E70520B5E73544BEE75A
:1051400003D02046FFF766FBD3E700F027FE20627E
:10515000CFE700BF4100002061AE0B00ACAE0B00FA
:10516000B1AE0B00F0B5ADF2344D0CAB00240546EA
:105170000F46059305A84FF4806311491646CDE903
:105180000643FEF7F8FF394605A8FFF711F8314648
:1051900008A801F00DFA089905A8FEF7ECFF08A889
:1051A00001F098F9069B013B0093CDE90144059B72
:1051B000224614212846FFF7D7FE0DF2344DF0BDEC
:1051C000B3AE0B001FB508680E4C03F00AFD0E4984
:1051D000013801EB0011204601F0DBF901F0CAFCB7
:1051E000216801F0BAFA2146684601F0E1F96A4601
:1051F00000210648FFF7B6FF684601F06BF904B0DE
:1052000010BD00BF1CE403202CE4032020E3032096
:1052100030B599B008AB044605930025402305A896
:105220000B49CDE90653FEF7A6FF05A80949FEF78D
:10523000A2FF069B013B0293059B01937123009300
:105240002A46054B11212046FFF78EFE19B030BDCE
:10525000B6AE0B00BBAE0B0068AF0B0073B57D4C58
:105260007D4E204601F0F4FF04F11C0001F0D0FB5C
:105270007A4B002500210020C3E90201C3E904455F
:105280001D70C3E90655C3E908559D629D85744BA1
:1052900003F10802C3E90025C4E90D551D7200F0B1
:1052A000F7FD704B704C1860704B71491D7203F123
:1052B0000802C3E900256F4B03F10802C3E900258A
:1052C0001D72204601F051F96B4904F1100001F004
:1052D0004CF96A4904F1200001F047F9684904F1EA
:1052E000300001F042F9674904F1400001F03DF956
:1052F000654904F1500001F038F9644904F1600097
:1053000001F033F9624904F1700001F02EF96149AE
:1053100004F1800001F029F95F4904F1900001F0E7
:1053200024F95E4904F1A00001F01FF95C4904F181
:10533000B00001F01AF95B4904F1C00001F015F961
:10534000594904F1D00001F010F9584904F1E00086
:1053500001F00BF9564904F1F00001F006F9554946
:1053600004F5807001F001F9534904F5887001F0EB
:10537000FCF8524904F5907001F0F7F8504904F533
:10538000987001F0F2F84F4904F5A07001F0EDF8C3
:105390004D4904F5A87001F0E8F84C4904F5B070E7
:1053A00001F0E3F8314604F5B87001F0DEF8484941
:1053B00004F5C07001F0D9F8464904F5C87001F051
:1053C000D4F8454904F5D07001F0CFF8434904F50D
:1053D000D87001F0CAF8424904F5E07001F0C5F850
:1053E000404904F5E87001F0C0F83F4904F5F07059
:1053F00001F0BBF83D4904F5F87001F0B6F83C49FE
:1054000004F5007001F0B1F83A4904F5047001F0B8
:10541000ACF83146384801F0A8F8384B38491D72CD
:1054200003F10802C3E90025364B37481D7203F12A
:105430000802C3E90025354B03F10802C3E9002542
:105440001D720123009340F25B72314B00F0A6F80D
:1054500002B070BDE0E3032025AF0B0020E3032082
:10546000B0E30320B0E603202CE4032080E3032014
:10547000C9AE0B0050E30320CDAE0B00D1AE0B0044
:10548000D5AE0B00D9AE0B00DDAE0B00E1AE0B00CC
:10549000E5AE0B00E9AE0B00EDAE0B00F1AE0B007C
:1054A000F5AE0B00F9AE0B00FDAE0B0001AF0B002B
:1054B00005AF0B0009AF0B000DAF0B0011AF0B00D8
:1054C00015AF0B0019AF0B001DAF0B0021AF0B0088
:1054D00029AF0B002DAF0B0031AF0B0035AF0B0028
:1054E00039AF0B003DAF0B0041AF0B0045AF0B00D8
:1054F00049AF0B004DAF0B001CE4032068E3032011
:1055000051AF0B00C8E303204CE6032098E30320CF
:1055100081420B0091F85C3010B50446016013B174
:10552000886D00F0C5FC204610BD10B5036893F8E7
:105530005C20044612B1986D00F0C2FC204610BDFC
:10554000F8B51F469DF8243004460D4616462BB18B
:10555000012380F85C30583000F0A2FC089B2363E4
:105560000023636306B1A66425B1294604F138001F
:1055700001F029F8069B2365079BE069A4F84C70AD
:10558000FF2BB8BFFF23A4F8543008B1FEF789FD04
:10559000B4F85400FEF781FDE061F8BD2DE9FF414C
:1055A00004460025174698460E4601F051FE0D4967
:1055B000E56104F1380000F0D8FF9DF82830A564BB
:1055C000CDE90283FF220F23CDE90032204684F883
:1055D0005C503B462A463146FFF7B2FF204604B0F6
:1055E000BDE8F08170B60B0010B50446204601F00E
:1055F0008BFD0028FAD0204601F094FBC0B210BD0C
:105600002DE9F04705468846FFF7EEFFEB69187075
:10561000EB6993F800A04FF001090AF0F00A0027A7
:105620004C462846FFF7E0FF2646EB69985500F008
:105630007F0313FB09F31F4401340306A4B2BFB276
:105640004FEAC919EDD4631EBAF1300F88F8003063
:105650001ED12846FFF7C8FFEB6918552846FFF70B
:10566000C3FFF41C0236B6B2EB69A4B29855022609
:10567000B6B2BE420ED22846FFF7B6FFB5F8543098
:10568000A34284BFEB6918550134A4B20136EFE799
:105690000026EDE7B5F85430A3422CBF2046002089
:1056A000BDE8F0872DE9F34115461E461A46074628
:1056B0000023964602A802F07F0CBEF17F0F03F193
:1056C0000104034488BF4CF0800CBEF17F0F4FEA09
:1056D000D212E4B203F804CC1ED8C4F10403C4F11E
:1056E0000500E954224601A9284405EB030803F00C
:1056F000E7FA721C22444146384601F0FEFA05469C
:1057000000F0C6FB621C78623244A8B2131A5842F9
:10571000584102B0BDE8F0812346CAE70233F0B534
:10572000054698B20023CE5C9CB256B1B5F854C081
:10573000844503F1010704D9441C16543B46A0B22A
:10574000F1E799B2411A0A44210A02F8021C02F850
:10575000013CF0BD38B5044601F0F8FB002814BF49
:105760000125002502D1204601F028FD284638BD3C
:105770002DE9F04788B00446DDF840809DF850A040
:10578000894617461E46FFF7E5FF0546002840F00C
:10579000CD80214601A8FFF7BDFEA16C002940F095
:1057A0008880B4F84C20A16B2B46204601F050FBBA
:1057B00000287AD0012323849DF85430E269042B19
:1057C0005B4B40F08180186899889B79ADF80C108C
:1057D0008DF80E300290C2F805009DF80E30BDF82D
:1057E0000C10A2F80910D3720C23B8F1000F00F0CE
:1057F00081809DF848009DF84420400140EAC200A5
:1058000040F00600C0B2BAF1000F01D100F0FD0077
:105810001FB1002E70D140F08000E269D054226D9B
:10582000E169581C12120A549A1CE169206D8854CF
:105830000333E26949462046FFF770FF0346B8F19B
:10584000000F0BD0E26941462046FFF767FFE2698F
:10585000139903462046FFF761FF034667B1E269EB
:1058600039462046FFF75AFF03462EB1E26931461A
:105870002046FFF753FF0346053BE2699BB2102128
:105880002046FFF70FFF00F003FBC4E909004FF4C7
:105890007A76204601F038FC88BB00F0F9FAA36A5A
:1058A000C01A236D73439842F3D9204601F086FC59
:1058B00035E002A801F0F0F8B4F84C202B4602A91C
:1058C000204601F0A5FB73E7D3F80700D3F80B10CF
:1058D000DB7B0DF1080CACE803008CF8003002AB68
:1058E00003CBC2F80500C2F809109CF800305373CE
:1058F0000E237AE7022086E740F0C0008DE702A978
:105900002046FFF77DFE0428CFD1E369DE78002E24
:10591000CBD100F0BDFA0125A06284F82C6001A86B
:10592000FFF703FE284608B0BDE8F0870025F9E739
:10593000DBAF0B007FB501230422CDE90432002345
:10594000CDE90233CDE900331A46FFF711FF07B066
:105950005DF804FB2DE9F74FDDF83C809DF83450ED
:105960009DF8389004468B4616461F46FFF7F2FE18
:105970008246002851D0214601A8FFF7CBFDB4F89C
:105980005420E069002103F0C3F90523E269594678
:105990002046FFF7C3FE6B1E012B15D8218CE3694F
:1059A000013189B22184090A1954421CE369218C0E
:1059B00092B20230995480B2B8F1000F04D0238C17
:1059C0005A1C2284A8F8003000210B188F42E2698B
:1059D0009BB20AD9B4F854C09C4506D916F801C048
:1059E00002F803C0013189B2EFE79DF830100029B9
:1059F0000CBF30213121B9F1000F01D041F0080175
:105A0000022D0ED141F00401053B9BB22046FFF769
:105A100049FE824601A8FFF788FD504603B0BDE865
:105A2000F08F012D08BF41F00201EDE71FB5089C82
:105A30000394002402949DF81C4001949DF81840A2
:105A40000094FFF787FF04B010BD30B587B004465F
:105A500010460591049203F0A3F900250346CDE911
:105A60000155DDE9042100952046FFF7DFFF07B06F
:105A700030BD73B504460E46FFF76CFE0546C8B14F
:105A8000214601A8FFF746FDE36962221A70E36927
:105A900002225A70E369320A9A70E369DE70E169A2
:105AA0000422204601F029F9051E01A818BF01258E
:105AB000FFF73BFD284602B070BD73B504460E46A5
:105AC000FFF748FE0546C8B1214601A8FFF722FDB1
:105AD000E36972221A70E36902225A70E369320A9A
:105AE0009A70E369DE70E1690422204601F005F94D
:105AF000051E01A818BF0125FFF717FD284602B0B3
:105B000070BD2DE9F04F2DED028B87B000AF04463C
:105B1000FFF720FE8146F8B1214607F11400FFF798
:105B2000F9FC00F0B5F9236D4FF47A725343A26A81
:105B3000821A9A42064603D8626A821A934221D296
:105B400094F82C307BB1204601F038FB4FF000096F
:105B500007F11400FFF7E9FC48461C37BD46BDECD1
:105B6000028BBDE8F08FE269C0211170E2695370C9
:105B7000E1690222204601F0C0F8C4E90966012368
:105B800084F82C30204601F0BFFA0028E0D007F15D
:105B900013012046FFF734FD83460028D8D0E3697F
:105BA000A662197801F0F002302A7FD1D4F830A033
:105BB000BAF1000FCCD097F813C06A4608EE102A4D
:105BC00003EB0C025178957805EB0125ADB205F198
:105BD00008026946D208A1EBC20295460CF1030205
:105BE000FA6003EB020E0DEB05026846C7F808D019
:105BF0007A60D7E901218A4206D00A461EF8018B55
:105C000002F8018BBA60F4E70022425593F8008055
:105C1000F96808F00608ABEB0C02033AB8F1020F82
:105C2000A2EB0502294425D113F801E01944023AF8
:105C300091F801B00CF10501294419440BEB0E2B2E
:105C4000D047E36940221A70E3691FFA8BFB83F89F
:105C50000180E3694FEA1B229A70E36983F803B07D
:105C6000E1690422204601F048F8666218EE103A15
:105C70009D466DE7B8F1040F15D113F801E0194402
:105C8000023A91F801B00CF10501294419440BEBDB
:105C90000E2BD047E36950221A70E36902221FFAE3
:105CA0008BFB5A70D5E71944D047DFE7502A08D15B
:105CB0009A78D97801EB022189B22046FFF7D9FE04
:105CC00046E7402A12D1626B002A3FF441AFBBF194
:105CD000040F7FF43DAF11F0060F7FF439AF9978D0
:105CE000D87800EB012080B2904731E7602A08D1D4
:105CF0009A78D97801EB022189B22046FFF7DDFEC0
:105D000026E7702ADFD0902A3FF422AFC02A0AD1BA
:105D1000D0221A70E36900225A70E16902222046FB
:105D200000F0EBFF14E7D02A04BF002384F82C30E6
:105D30000EE7F7B504460F461646FFF70BFD05467E
:105D400010B3214601A8FFF7E5FB238C01339BB27A
:105D5000EBB12384238CE2691B0A5371E369228C23
:105D60009A71E269072339462046FFF7D7FCE369B9
:105D70001E54043883B2E26982212046FFF792FC68
:105D8000054601A8FFF7D1FB284603B0F0BD01236B
:105D9000DFE70022FFF7CDBF00F044BD00F078B888
:105DA000704770477047000003065ABF024B53F814
:105DB00020000020704700BFECAF0B0003065ABF65
:105DC000024B53F820000020704700BFECB10B00DD
:105DD00008B5024B1B689B68019308BD680203006D
:105DE00008B5024B1B68DB68019308BD680203001D
:105DF00008B5024B1B685B68019308BD2C020300C9
:105E000008B5024B1B689B68019308BD2C02030078
:105E100008B5024B1B68DB68019308BD2C02030028
:105E200008B5024B1B681B69019308BD2C020300D7
:105E300008B5024B1B685B69019308BD2C02030087
:105E400008B5024B1B689B6A019308BD2C02030036
:105E500008B5024B1B681B6B019308BD2C020300A5
:105E600008B5024B1B689B6F019308BD2C02030011
:105E700008B5024B1B685B69019308BD6C02030007
:105E800008B5024B1B685B68019308BD180203004C
:105E900008B5024B1B685B69019308BD180203003B
:105EA00008B5024B1B681B6B019308BD4802030039
:105EB00008B5024B1B689B6B019308BD48020300A9
:105EC00008B5024B1B681B6C019308BD4802030018
:105ED00008B5024B1B685B6C019308BD48020300C8
:105EE00008B5024B1B685B69019308BD640203009F
:105EF00008B5024B1B681B6A019308BD64020300CE
:105F000008B5024B1B689B6A019308BD640203003D
:105F100008B5024B1B68DB68019308BD3C02030017
:105F200008B5024B1B681B69019308BD3C020300C6
:105F300008B5024B1B685B69019308BD3C02030076
:105F400008B5024B1B689B69019308BD3C02030026
:105F500008B5024B1B68DB69019308BD3C020300D6
:105F600008B5024B1B681B6A019308BD3C02030085
:105F700008B5024B1B689B6A019308BD3C020300F5
:105F800008B5024B1B681B6C019308BD3C02030063
:105F900008B5024B1B681B6A019308BD2802030069
:105FA00008B5024B1B685B6A019308BD2802030019
:105FB00008B5024B1B689B6A019308BD28020300C9
:105FC00008B5024B1B68DB6A019308BD2802030079
:105FD00008B5024B1B681B6B019308BD2802030028
:105FE00008B5024B1B685B6B019308BD28020300D8
:105FF00008B5024B1B681B6C019308BD2802030007
:1060000008B5024B1B689B69019308BD3802030069
:1060100008B5024B1B68DB69019308BD3802030019
:1060200008B5024B1B681B6A019308BD38020300C8
:1060300008B5024B1B689B6A019308BD3802030038
:1060400008B5024B1B681B6B019308BD38020300A7
:1060500008B5024B1B689B6B019308BD3802030017
:1060600008B5024B1B68DB69019308BD30020300D1
:1060700008B5024B1B681B6A019308BD3002030080
:1060800008B5024B1B681B68019308BD4C02030056
:1060900008B5024B1B685B68019308BD4C02030006
:1060A00008B5024B1B681B69019308BD4C02030035
:1060B00008B5024B1B685B69019308BD4C020300E5
:1060C00008B5024B1B689B69019308BD4C02030095
:1060D00008B5024B1B68DB69019308BD4C02030045
:1060E00008B5024B1B681B6A019308BD4C020300F4
:1060F00008B5024B1B681B6D019308BD60020300CD
:1061000008B5024B1B685B68019308BD20020300C1
:1061100008B5024B1B685B69019308BD20020300B0
:1061200008B5034B1B68D3F88830019308BD000005
:106130002002030008B5034B1B68D3F89430019389
:1061400008BD00002002030008B5024B1B685B6815
:10615000019308BD4002030008B5024B1B689B6811
:10616000019308BD4002030008B5024B1B68DB68C1
:10617000019308BD4002030008B5024B1B681B6970
:10618000019308BD4002030008B5024B1B685B6920
:10619000019308BD4002030008B5024B1B689B69D0
:1061A000019308BD4002030008B5024B1B68DB6980
:1061B000019308BD4002030008B5024B1B681B6A2F
:1061C000019308BD4002030008B5024B1B681B6B1E
:1061D000019308BD4002030008B5024B1B685B6BCE
:1061E000019308BD4002030008B5024B1B681B6CFD
:1061F000019308BD4002030008B5024B1B685B6CAD
:10620000019308BD4002030008B5024B1B689B6860
:10621000019308BD4402030008B5024B1B68DB690B
:10622000019308BD4402030008B5024B1B68DB6BF9
:10623000019308BD4402030008B5024B1B681B68AC
:10624000019308BD1C02030008B5024B1B685B6884
:10625000019308BD1C02030008B5024B1B689B6834
:10626000019308BD1C02030008B5024B1B68DB69E3
:10627000019308BD1C02030008B5024B1B68DB6AD2
:10628000019308BD1C02030008B5024B1B681B6B81
:10629000019308BD1C02030008B5024B1B68DB6BB1
:1062A000019308BD1C02030008B5024B1B681B6C60
:1062B000019308BD1C02030008B5024B1B685B6C10
:1062C000019308BD1C020300002240681146FFF73D
:1062D00073BF002240681146FFF77EBF406800226E
:1062E000FFF772BF4068002281F00101FFF75CBF39
:1062F000002340681A461946FFF74EBF0023406846
:106300001A461946FFF740BF002240681146FFF7C2
:1063100033BF002240681146FFF71EBF40680022CD
:106320000221FFF721BF002340681A46FFF70CBF88
:10633000024B03225A60024A1A607047C4E60320E7
:10634000F4B30B0010B5044608462170FFF788FE31
:1063500000236360204610BD054B02221A60054BE6
:10636000054A9A600020C3E90000FFF7C9BE00BFDC
:10637000D8E60320CCE603200000FFFF10B504465A
:1063800002F00EFD013823182046834206D9027818
:10639000197800F8011B03F80129F6E710BD70B564
:1063A0000C46911E22291DD8254630B9234430229F
:1063B0009D4210D205F8012BFAE7B0FBF2F602FB82
:1063C0001600C1B2092894BF30315731C9B205F85F
:1063D000011B3046E9E7002320462B70FFF7CEFF74
:1063E000204670BD0020FCE738B5031E0C4615465C
:1063F0000EDAB3F1004F4FF02D0214BF5842184689
:1064000001230A702A461944FFF7C9FF204638BD08
:106410000123F9E72DE9F14F57EC106B80460C464C
:1064200010EE100A00220023394602F099F928B133
:1064300007F100431F462D2304F8013B00234FF0D2
:1064400001090A22D9B2884503D902FB09F90133AF
:10645000F8E7484601F0A8FE32463B4601F00EFF41
:1064600006460F4602F02CFA8A4605468B4601F096
:10647000CFFE02460B463046394601F047FD144B2D
:10648000002202F081F910B101354AF1000B4A46B1
:106490002846D317594602F0FBF901231546214639
:1064A0000A22FFF77CFFB8F1000F0ED0204602F061
:1064B00077FC2E23211823540A2243460131284613
:1064C00001B0BDE8F04FFFF76ABF01B0BDE8F08F43
:1064D0000000E03F10B504460068FFF7B5FE204617
:1064E00010BD10B50446006808B1FFF7ADFE0023EB
:1064F000C4E90133236010BD38B504460D46006879
:106500000131FFF7A9FE10B1C4E90005012038BD33
:1065100010B50368044623B143688B4201D30120C0
:1065200010BD2046FFF7E8FF0028F9D0A368002B34
:10653000F5D122681370F2E737B50D461146019286
:106540000446FFF7E5FF019A28B92046FFF7C9FF87
:10655000204603B030BDA2602946206802F0B0FB9F
:106560002268A3680021D154F2E7002313B5C0E9E3
:10657000003304468360037341B10846019102F081
:106580000FFC019902462046FFF7D6FF204602B0D5
:1065900010BD884210B5044605D00B682BB18A683F
:1065A0001946FFF7C9FF204610BDFFF79AFFFAE72B
:1065B00010B500230446C0E9003383600373FFF77E
:1065C000E8FF204610BD13B5044659B108460191B5
:1065D00002F0E6FB019902462046FFF7ADFF204698
:1065E00002B010BDFFF77DFFF9E710B504468AB091
:1065F0000023C4E90033A3602373084601A9FFF711
:10660000F3FE01A92046FFF7DEFF20460AB010BDC9
:1066100030B5044600238BB0C4E90033A360237374
:1066200010EE100ACDB201F0D1FD41EC100B01A922
:106630002846FFF7EFFE01A92046FFF7C4FF2046DA
:106640000BB030BD70B505460E4609B9002070BDCF
:106650006AB1846814442146FFF75AFF0028F5D038
:106660002868AB683146184402F092FBAC60012008
:10667000EDE710B58A6809680446FFF7E3FF10B933
:106680002046FFF72EFF204610BD13B5044629B95A
:106690002046FFF726FF204602B010BD08460191B4
:1066A00002F07EFB019902462046FFF7CBFF00284F
:1066B000EED0F0E710B54368013B0446436063B990
:1066C00003689B689847A368013BA3602BB92368C4
:1066D0002046DB68BDE81040184710BD0248002383
:1066E0000360FFF7F5BB00BFDCE60320F8B5064604
:1066F0000D468F180024BD420CD0336815F8011BDD
:106700009B6830469847031E01DB1C44F3E7002CCE
:1067100008BF1C462046F8BD13B50446084659B1CB
:10672000019102F03DFB23680199DB680246204697
:1067300002B0BDE81040184702B010BD03689B6866
:10674000184738B50D210546FFF7F8FF0A21044622
:106750002846FFF7F3FF204438BD38B50546FFF75C
:10676000DBFF04462846FFF7ECFF204438BD30B578
:106770008BB00023012A8DF8243098BF0A2209AC7F
:106780000D46B1FBF2F101FB125303F0FF03092B9D
:1067900094BF30333733DBB2AA4204F8013DEFD95E
:1067A0002146FFF7B9FF0BB030BD10B50446FFF727
:1067B0006FFBE060236820465B699847002808DA91
:1067C000FFF766FBE368C01AA3689842F2D34FF064
:1067D000FF3010BD2DE9F04107460C468E180D46DE
:1067E000B542A5EB040807D03846FFF7DEFF031ECD
:1067F00002DB05F8013BF3E74046BDE8F08100000D
:10680000014B024A1A607047E0E6032030B40B00E7
:10681000024B1A68024B1A60704700BF44E1032024
:10682000E4E603200021FFF773BC000010B5044B21
:1068300003600446806908B1FFF73CFF204610BDA5
:1068400028B50B0010B50446FFF7F0FF20461C21C9
:10685000FDF729FC204610BD014B00229A607047CD
:10686000E8E60320014B1860704700BF48E10320B1
:1068700008B50B4B43B100F07DF903681B699847DD
:10688000002801DDAFF30080064B43B100F0B8FEF5
:1068900003681B699847002801DDAFF3008008BD3D
:1068A000000000000000000008B5FFF7E1FFFFF75F
:1068B000EFFA014B186008BD40E703200548064A7F
:1068C000064908B5121A02F0FBF9054B054A1A6091
:1068D00008BD00BF00F4032004F403204CBC0B00EF
:1068E00000F403201E1C279A07B5002300931A46C4
:1068F0006FF07701FFF71EFC03B05DF804FB0000AA
:1069000007B543880A2B08D0502B0BD1094B1B68C5
:106910004BB103B05DF804EB1847FFF7E5FF03B098
:106920005DF804FB002300931A466FF07701FFF730
:1069300001FCF4E7FCE6032010B512480021FFF744
:10694000BBFC114B1A68114B9A42114B0CBF012230
:1069500000221A7001D0FFF7B1FFFFF791FA044649
:1069600002F0DEF90B4B13B12046AFF3008000219B
:106970000848FFF759FCBDE8104007480021FFF721
:10698000CFBB00BF65680B0000F403201E1C279AD4
:10699000F8E603200000000001690B00704710B505
:1069A00018210446FDF77FFB204610BDF0B5037D9E
:1069B000062B8DB00E4600F104074FF0000412D0F4
:1069C00000F1080515F8011D0A223046FFF7CFFE39
:1069D000AF42044419D0002CF4D02E213046FFF7EA
:1069E000ADFE0444EEE72F236A4639460A208DF8AF
:1069F0000040FFF775FA684602F0D2F933680246A4
:106A0000DB68694630469847044620460DB0F0BD25
:106A100010B5054B0446112240F8043B002102F05A
:106A200077F9204610BD00BF58B40B000346074A53
:106A300010B543F8042B01F1100251F8044B43F850
:106A4000044B9142F9D10A781A7010BD58B40B006A
:106A5000037D042B04D14068003818BF0120704723
:106A6000062B07D143683BB983682BB9C3681BB9B0
:106A70000069F1E7002070470120704710B59DF8CC
:106A8000084044EA032343EA024242EA0161042344
:106A90004160037510BD000007B5064B0360CB785D
:106AA00000938B784A780978FFF7E8FF03B05DF828
:106AB00004FB00BF58B40B00417470477047704727
:106AC00008B50021007CFFF7FBFA40EAE07008BD42
:106AD00008B50121007CFFF7F3FA40EAE07008BD39
:106AE00008B5007CFFF7E4FA20EAE07008BD08B5BD
:106AF000007CFFF7D5FA20EAE07008BD13B5044624
:106B0000007C0191FFF7D4FA0028019901DC607C38
:106B100020B1207CFFF7DCFA20EAE07002B010BD63
:106B2000007CFFF7DDBA10B514210446FDF7BBFA6F
:106B3000204610BD10B54FF47A7304460846002174
:106B4000C4E90113044B23600123207463741146CC
:106B5000FFF796FA204610BD6CB40B00007C0022B3
:106B6000FFF796BA10B514220446002102F0D0F8BF
:106B7000204610BD10B50F4C88B003A8FFF7F2FFF8
:106B80002178BFF35B8F11F001010FD120460191F5
:106B9000FDF78BFA019948B103AA0748FFF7CAFF2E
:106BA0002046FDF787FA054802F012F8024808B0BF
:106BB00010BD00BF00E7032004E70320BD6A0B00FF
:106BC00070474174704708B5007CFFF7D1F920EA9F
:106BD000E07008BD08B5007CFFF7A2F920EAE0707C
:106BE00008BD08B5007CFFF7ABF940EAE07008BDCE
:106BF00008B5007CFFF79CF940EAE07008BD007C16
:106C0000FFF7A6B937B5457C04462DB1207C03B00B
:106C1000BDE83040FFF77CB9007C0191FFF7A8F98F
:106C200000280199F2DC284603B030BD10B51421CC
:106C30000446FDF738FA204610BD000010B54FF4A9
:106C40007A730446084611460022C4E90123044B26
:106C50002360012320746374FFF792F9204610BD6E
:106C60009CB40B007047F8B5064615460C468F18C5
:106C7000BC4206D0336814F8011B9B683046984725
:106C8000F6E72846F8BD007C0022FFF781B9007CBA
:106C90000021FFF785B9007C0021FFF789B9007C4E
:106CA0000021FFF78DB9007C0021FFF791B910B5E5
:106CB00014210446FDF7F7F9204610BD10B54FF436
:106CC0007A73044608460021C4E90113034B23608C
:106CD00020741146FFF78CF9204610BDCCB40B0090
:106CE00013B503688DF80710DC6B01224FF0FF33FA
:106CF0000DF10701A04702B010BD10B40368DC6BB2
:106D00004FF0FF33A4465DF8044B604713B51346BC
:106D100002688DF80710D46B0DF107010122A0471E
:106D200002B010BD10B54369B3F88620B3F88430C3
:106D30009A42044608D06369B3F88420511CA3F832
:106D400084101344187910BD03681B699847002804
:106D5000F1D14FF0FF30F6E7704743691868C04340
:106D6000C00F704770470000064B994210B500F104
:106D70000C0405D0084600F0D1FC002808BF002410
:106D8000204610BD28B40B0010B5AC210446FDF719
:106D90008AF9204610BDAC21FDF785B92DE9F041F7
:106DA0004FF0000886B01C46C0F8048005460E4629
:106DB00017464146102202A801F0AAFF631C09D021
:106DC0004FF47A73B4FBF3F203FB1244CDE90228CB
:106DD0005C430494686910230093006802AB41F29D
:106DE000050240F6FF71FFF70BF9002807DAFFF7FD
:106DF00053FA03686B60002006B0BDE8F081686953
:106E0000002300683A463146FFF71AF9031EEEDB0D
:106E10001846F1E730B587B0044601AD6846FFF784
:106E20003BFE0FCD04340FC42B68237007B030BD78
:106E300070B54D69054B04468C3544F8043B064655
:106E40000FCD0FC42B682370304670BD58B40B00B3
:106E50002DE9F0439846036893B00D460024DB6AA1
:106E600006461746984728466B4622462146009418
:106E7000FEF7B6FF0546002863D1009B002B4BD0E0
:106E80005B69002B48D006A8FFF7C2FD009B5C6938
:106E90006378022B04D1211D06A8FFF7BBFF26E073
:106EA0000A2B24D11122294601A801F031FFA36841
:106EB000002B38D004F108030DF1040C18341868C5
:106EC0005968624603C20833A3429446F7D10623A9
:106ED00001A90CA88DF81430FFF7A8FD0DF1340CB2
:106EE000BCE80F0007AC0FC4DCF80030237006A824
:106EF000FFF7AEFD80B1336807ADD3F82090124B99
:106F00000C930FCD0DAC0FC42B6823703A4643464B
:106F10000CA93046C84705460098FEF759FF284699
:106F200013B0BDE8F083E368002BC3D14FF6FF70C8
:106F3000D4F81090FEF7DCFF8145BBD104F11401B9
:106F4000AAE72546E8E700BF58B40B0038B5436907
:106F50001A68002A054610DAB3F88620B3F88430A0
:106F60009A420AD103681B699847044628B92B68DE
:106F70002846DB6A9847204638BD0120FCE710B55B
:106F80004369B3F88620B3F884309A42044605D0AA
:106F90006369B3F884201344187910BD03681B6932
:106FA00098470028F4D14FF0FF30F6E7F8B5436971
:106FB0001746B3F88620B3F884309A4205460E4649
:106FC00016D06969B1F88430B1F88640E41ABC4241
:106FD00028BF3C46043322461944304601F070FE77
:106FE0006A69B2F884302344A2F884302046F8BDA0
:106FF00003681B6998470028E3D14FF0FF34F5E799
:1070000042690023A2F884304269A2F886307047B2
:107010002DE9F0411F4603680C46DB6A8AB005463D
:1070200016469847237DD5F81480042B0CBF022008
:107030000A2006220121FFF70BF8C8F800006B694F
:107040001B68002B08DA2B682846DB6A0024984767
:1070500020460AB0BDE8F0812846FFF7D1FFB7B15E
:10706000002303A9F8B20393ADF81030FEF700FF38
:107070000028E8D1686906230093006803AB41F259
:107080000B0240F6FF71FEF7BBFF0028DBD11C228C
:10709000002103A801F03CFE237D042B1DD14FF4F9
:1070A00007733046ADF80C30FEF72AFFADF80E003E
:1070B0006068FEF71DFF04906B691C22186803A925
:1070C000FEF7AEFF0028BED104340FCC6D698C35BD
:1070D0000FC523682B700124BAE740F61C23304605
:1070E000ADF80C30FEF70CFF05AEADF80E00231D19
:1070F00004F1140718685968324603C20833BB42CA
:107100001646F7D1D8E7000030B54269B2F88630AC
:107110008BB004462BB1B2F884209A4201D1FFF71C
:107120006FFF61690868002818DBB1F886507F2D71
:1071300014D804310823C5F180022944FEF778FFF2
:10714000002813DD6369B3F886200AB9A3F8842008
:107150006369B3F886201044A3F886006369B3F826
:107160008600B3F88430C01A0BB030BDFFF794F836
:1071700003680B2BF2D0FFF78FF803680B2BEDD0D1
:1071800020230025CDE90235FFF786F80368019337
:10719000084B0949009302AA2B463220FEF7A8FFAC
:1071A00063691868FEF734FF63694FF0FF321A60B5
:1071B000D4E700BFF3B40B00ECB40B0010B5436987
:1071C00004461868002801DBFEF722FF63694FF0D0
:1071D000FF321A606069112200218C3001F098FDA5
:1071E0002046BDE81040FFF70BBF10B50023044652
:1071F0000160C0F884308830FFF70AFC204610BDDB
:1072000073B500234FF47A72C0E901320E4A03616C
:10721000026043610446AC200191FCF73CFF051E6F
:1072200005F10C0608D00123C5E90133074B01998C
:107230002B603046FFF7D9FF2046C4E90565FFF70C
:10724000DFFE02B070BD00BF28B50B000CB50B000F
:1072500010B54FF0FF310446FFF7D2FF204610BDB6
:1072600010B504460068002801DBFEF7D1FE204679
:1072700010BD0C30FFF7F4BF002240681146FEF746
:107280007BBF002240681146FEF796BF002240688F
:107290001146FEF7A1BF40680022FEF795BF406887
:1072A000002281F00101FEF77FBF002340681A46EB
:1072B0001946FEF771BF002340681A461946FEF7CB
:1072C00063BF002240681146FEF746BF40680022B7
:1072D0000221FEF749BF002340681A46FEF734BF7B
:1072E000024B04225A60024A1A60704718E70320D2
:1072F00074B50B00002340681A46FEF725BF4068AE
:1073000000220221FEF730BF002240681146FEF73E
:1073100023BF002240681146FEF72EBF00234068BD
:107320001A461946FEF730BF002340681A46194630
:10733000FEF732BF40680021FEF756BF40680021CB
:10734000FEF75ABF4068002281F00101FEF72CBF12
:1073500040680022FEF738BF002240681146FEF761
:107360003BBF002240681146FEF726BF2DE9F043DF
:1073700095B014460D460746FFF74AFB00211C2234
:107380000DA8009101F0C4FC40230C9320466B46ED
:107390000CAA0021FEF724FD044600284BD102462A
:1073A00001216868FEF7E8FE0221804622466868EF
:1073B000FEF7E2FE009E81462146002E3BD00029CA
:1073C00039D17368022B03D00A2B11D0F669F4E788
:1073D000B8F1000FFAD0716906A8043107ADFFF7C4
:1073E0005BFB0FCD3C1D0FC42B6823704146EDE7BE
:1073F000B9F1000FEAD07469102201A801F088FCED
:1074000006238DF8143001AD04F108031834186810
:1074100059682A4603C20833A3421546F7D101A989
:1074200006A807ADFFF702FB0FCD3C1D0FC42B686C
:1074300023704946CAE70098FEF7CAFC384615B0E3
:10744000BDE8F083024B034A1A6000225A6070477D
:1074500020E70320B0B50B00232813B502D9002084
:1074600002B010BDA0F10B03022B1AD8174C2178E3
:10747000BFF35B8F11F001010BD120460191FCF7A6
:1074800014FE019928B11248FEF75CFF2046FCF774
:1074900011FE0F4B1878FEF7EBFD0028DFD101201D
:1074A000DEE7012809D800F0E7F80021007CFEF7AC
:1074B00097FD80F00100C0B2D2E709380128EED86C
:1074C00000F09EF8007CFEF74BFDF2E7B8E60320E3
:1074D000BCE60320232838B504460D460AD8FF2908
:1074E00008D0FFF7B9FF28B129462046BDE838404B
:1074F000FEF786BC38BD38B504460D46FEF788FC5D
:10750000FF2810D0062804D84D2323FA00F0C30723
:1075100009D42046FFF7A0FF28B129462046BDE840
:107520003840FEF77DBC38BD10B50446FEF770FC50
:10753000031FDBB2012B08D92046FFF78DFF20B1D6
:107540002046BDE81040FEF773BC002010BD0D289A
:1075500010B504469CBF0E34A4B22046FFF77CFF52
:1075600050B103212046FEF743FC032804D12046F6
:10757000BDE81040FEF76CBC002010BD38B50446D5
:107580000D46FFF769FFF0B104212046FEF730FCFD
:10759000042805D1A9B22046BDE83840FEF750BC0A
:1075A00002212046FEF724FC02280CD12046FEF7DB
:1075B0002FFC012801D0042805D129462046BDE82A
:1075C0003840FEF74DBC38BD7047000038B5044662
:1075D00014252A46002101F09BFB25804025074900
:1075E00025812846258200F06BF804496060284612
:1075F00000F066F8E060204638BD00BFE4B50B003F
:1076000030B50E4D2978BFF35B8F11F0010487B0C0
:1076100011D12846FCF749FD68B101A8FFF7D6FF54
:1076200001AA21460648FFF709FB2846FCF742FD60
:10763000044801F0CDFA024807B030BD28E7032026
:107640002CE70320C9750B007047000038B52025D2
:10765000142304460360856005610649284600F04E
:107660002FF804496060284600F02AF8E0602046C0
:1076700038BD00BFE4B50B0030B50E4D2978BFF31F
:107680005B8F11F0010487B011D12846FCF70DFD86
:1076900068B101A8FFF7DAFF01AA21460648FFF703
:1076A0000DFB2846FCF706FD044801F091FA02485C
:1076B00007B030BD44E7032048E7032049760B00BC
:1076C000FCF7EBBC08B5FEF7D7FD08B5FEF7D4FD17
:1076D00008B5FEF7D1FD08B5FEF7CEFD08B5FEF7FB
:1076E000CBFD0FB480B584B000AF07F1180454F897
:1076F000042B7A60104601F053FB00F2072323F0BD
:107700000703ADEB030D00F500717A68FC602346BA
:10771000684600F05BF8FEF7AFFD0000014900F09D
:10772000DBBB00BF00B60B0080B59CB0064600AFC7
:107730000C46A41B0E496922381D01F0C1FA04F160
:10774000700323F00703ADEB030D6D466822391D6E
:10775000284601F0B5FA2246314605F168002C446E
:1077600001F0AEFA002384F868302846FFF7ADFF39
:1077700008B60B002DE9F04100AF84B06D4605F16D
:107780000C04DFF8448023464FF00A0CB2FBFCF6F1
:107790000CFB162E18F80EE003F801ED9646BEF12C
:1077A000090F3246F2D8E41A8C4209D8C4F10C030E
:1077B0002246E91801F084FA2046BD46BDE8F08172
:1077C0004FF0FF34F8E700BF71B60B0001392DE927
:1077D000F0410746154600EB010804462A7892B3AB
:1077E00044452AD2252A07D16A78732A09D07A2AF1
:1077F00012D0252A00D1013515F8012B04F8012BF0
:10780000ECE753F8042B013A12F8011FC9B14445C3
:1078100013D004F8011BF7E7AA78752AECD11E46AD
:10782000A8EB040156F8042B2046FFF7A3FF00281D
:1078300003DD044403353346D0E721463846FFF7DD
:1078400073FF0235CAE72270E01BBDE8F0810AB180
:1078500001F036BA70470AB101F022BA10467047FB
:1078600013460A4611B1197801F0CAB908467047A3
:1078700008B50B68B3F1804F02D30D48FFF72BFF1B
:1078800093420BD9B3EB420F4FEA420006D2B0F15C
:10789000804F2ABF6FF0404308600B6008680130DA
:1078A00001D5FFF70FFFBDE80840FCF7F4BB00BFB0
:1078B0007CB60B0050F8083B834202D01846FCF718
:1078C000EEBB704708B5034608465B689842114610
:1078D00003D902460148FFF704FF08BDCAAD0B00FB
:1078E000406801F180410139091A914208B502D27C
:1078F0001846FFF7F0FE08BD03688B4206D84068C3
:107900001844814294BF0020012070470120704735
:10791000012A10B404D10A785DF8044B0270704754
:107920005DF8044BFFF793BF012A30B403D10B7805
:10793000037030BC7047002AFBD030BC01F0CEB9D8
:1079400008B5521AFFF7E4FF08BD8842F7B50446B0
:107950000E461ED003464D6853F8082B9A4214BFBA
:1079600082680F22AA420AD201A90195FFF780FF7F
:1079700007462046FFF79EFF019B2760A36025B1C5
:10798000316820682A46FFF7C3FF2368656000223C
:107990005A5503B0F0BD2DE9F3470A9E1F464368D0
:1079A00001EB0208B21A1A44A3EB0809034601923C
:1079B00053F8082B9A4218BF82680D4608BF0F2261
:1079C00001A90446FFF754FF82461DB121682A46EB
:1079D000FFF79EFF37B12EB1324639460AEB05005C
:1079E000FFF796FFB9F1000F07D0216835444A46EA
:1079F00041440AEB0500FFF78BFF2046FFF75AFFD3
:107A0000019BC4F800A0A36002B0BDE8F0870000AD
:107A10002DE9F74F0C9D144680462A4689461F469D
:107A20002146394BFFF75CFF4246D8F8043052F844
:107A3000086B964218BFD8F80820A5EB040B03EB9F
:107A40000B0A08BF0F22524551D34E443946A14478
:107A50004046A3EB0909FFF74FFF80B1B9F1000FD2
:107A600006D0AC4204D04A4631197019FFF75CFFCA
:107A700015B32A4639463046FFF74AFF1CE035B1B8
:107A8000AC423CD32A4639463046FFF74DFFB9F1A8
:107A9000000F11D0AC420FD04A4631197019FFF7D0
:107AA00043FFAC4208D234447B199C420FD32A4690
:107AB00039463046FFF738FFD8F80030C8F804A040
:107AC0000022404603F80A2003B0BDE8F08FBC4214
:107AD00003D82A4607EB0B01CDE7E41B22463946C3
:107AE0003046FFF721FF2A1B71193019C4E70095B2
:107AF0003B46224649464046FFF74DFFDCE7B9F1D9
:107B0000000FD0D0C8E700BF94B60B0073B5044691
:107B10002346406853F8086B9E4218BFA36800EBE9
:107B2000020508BF0F239D420AD812B13044FFF767
:107B3000EFFE23686560002220465A5502B070BDF2
:107B400000920B46002201462046FFF724FFF0E793
:107B50002DE9F7430E461D46416823B9914221D2D3
:107B60004FF0FF321EE09142FAD9D0F8008033780E
:107B70008DF8073008EB010708EB0200891AC5F100
:107B80000109A942ECD30DF107024944FFF768FE51
:107B900004460028E4D02A463146FFF75CFE28B9A7
:107BA000A4EB0802104603B0BDE8F083601C391A4C
:107BB000E7E708B5D1E90013FFF7CAFF08BD13B521
:107BC000044608460192009101F0EAF8DDE900124E
:107BD00003462046FFF7BCFF02B010BD13B58DF879
:107BE000071041688A4213460AD204680DF1070261
:107BF000C91AE018FFF734FE10B1001B02B010BD27
:107C00004FF0FF30FAE773B5466801910546084624
:107C100001F0C6F8864204463246019928BF024662
:107C20002868FFF718FE00B9301B02B070BD0000D5
:107C300073B5044616460D4619B912B10D48FFF743
:107C400044FD731B0F2B019307D9002201A9204685
:107C5000FFF70EFE019B2060A36032462946206894
:107C6000FFF76EFE019B226863600021D15402B0D1
:107C700070BD00BFADB60B0008B54FF00003FFF7B5
:107C8000D7FF08BD2DE9F0410D461746984600F193
:107C90000803044603603946094A2846FFF712FEE6
:107CA0002E686A683118D21B2046424594BF8A1854
:107CB00001EB0802FFF7E0FF2046BDE8F08100BFBE
:107CC000D7B60B0037B50D46044611462846064A7E
:107CD0000193FFF7F7FD019B024629462046FFF777
:107CE000D1FF204603B030BDF2B60B007FB50024B3
:107CF0001023CDE90234036815469E6912686B466D
:107D0000CDE90044B0479DF8043003F00603062B8C
:107D100003BF009B2B600120204604B070BD00987B
:107D2000904214BF012006207047000010B5034B9D
:107D30000360044600F0CDF8204610BD40B70B00AC
:107D400010B50446FFF7F2FF20460821FCF7ABF917
:107D5000204610BD2DE9F0411F46DDE90834DDF86D
:107D6000188098450646154607D1079900F0B4F8E3
:107D700018B165710020BDE8F0813946304600F049
:107D8000ABF80028F6D00123C4F800802571A37158
:107D9000F0E738B515461C4600F09EF820B10823E0
:107DA000E36006232560237138BD73B505460C4694
:107DB00001921E4600F090F850B9032E08D82368AF
:107DC000019A5B692946204602B0BDE87040184719
:107DD00002B070BD10B5034B03600446FFF7A6FF69
:107DE000204610BDA0B70B0010B50446FFF7F2FF08
:107DF00020460C21FCF757F9204610BDF7B5089F27
:107E0000974205460E4614460AD0A86802680897AD
:107E1000156A31462246AC4603B0BDE8F0406047E3
:107E20001946019300F058F8019B0028EDD0062078
:107E300003B0F0BD2DE9F14F0D461946DDE90A4BBF
:107E4000DDE90CA681461746984600F045F890B14A
:107E5000002D3460377109DB61198A450CBF06219A
:107E60000121B171002001B0BDE8F08F0235F9D1D8
:107E70000123B371F6E7544506D15946484600F050
:107E80002BF808B17771EDE7D9F808000368CDE960
:107E90000CA6CDE90A4BDC693A4643462946A4467E
:107EA00001B0BDE8F04F60472DE9F04107460C46B0
:107EB00015461E46FFF76DFF48B9B86803689F690D
:107EC0002A4633462146BC46BDE8F0416047BDE83E
:107ED000F081704700207047814208B50ED040689D
:107EE00003782A2B0CD049680B782A2B08BF013164
:107EF00000F044FFB0FA80F0400908BD0120FCE723
:107F00000020FAE781F0004102E000BF83F0004367
:107F100030B54FEA41044FEA430594EA050F08BF24
:107F200090EA020F1FBF54EA000C55EA020C7FEAE8
:107F3000645C7FEA655C00F0E2804FEA5454D4EB65
:107F40005555B8BF6D420CDD2C4480EA020281EA2F
:107F5000030382EA000083EA010180EA020281EA67
:107F60000303362D88BF30BD11F0004F4FEA0131B9
:107F70004FF4801C4CEA113102D0404261EB4101C8
:107F800013F0004F4FEA03334CEA133302D052424E
:107F900063EB430394EA050F00F0A780A4F101040A
:107FA000D5F1200E0DDB02FA0EFC22FA05F2801844
:107FB00041F1000103FA0EF2801843FA05F359412A
:107FC0000EE0A5F120050EF1200E012A03FA0EFCA9
:107FD00028BF4CF0020C43FA05F3C01851EBE371D3
:107FE00001F0004507D54FF0000EDCF1000C7EEBF0
:107FF00000006EEB0101B1F5801F1BD3B1F5001F2E
:108000000CD349085FEA30004FEA3C0C04F101044C
:108010004FEA445212F5800F80F09A80BCF1004F75
:1080200008BF5FEA500C50F1000041EB045141EAF7
:10803000050130BD5FEA4C0C404141EB0101013CC0
:1080400028BFB1F5801FE9D291F0000F04BF0146AF
:108050000020B1FA81F308BF2033A3F10B03B3F181
:1080600020020CDA0C3208DD02F1140CC2F10C0211
:1080700001FA0CF021FA02F10CE002F11402D8BF6F
:10808000C2F1200C01FA02F120FA0CFCDCBF41EA3B
:108090000C019040E41AA2BF01EB0451294330BD0A
:1080A0006FEA04041F3C1CDA0C340EDC04F11404E7
:1080B000C4F1200220FA04F001FA02F340EA0300BE
:1080C00021FA04F345EA030130BDC4F10C04C4F104
:1080D000200220FA02F001FA04F340EA03002946E4
:1080E00030BD21FA04F0294630BD94F0000F83F42E
:1080F000801306BF81F480110134013D4EE77FEA11
:10810000645C18BF7FEA655C29D094EA050F08BF5C
:1081100090EA020F05D054EA000C04BF194610463D
:1081200030BD91EA030F1EBF0021002030BD5FEA81
:10813000545C05D14000494128BF41F0004130BDA9
:1081400014F580043CBF01F5801130BD01F00045FD
:1081500045F0FE4141F470014FF0000030BD7FEA70
:10816000645C1ABF194610467FEA655C1CBF0B466B
:10817000024650EA013406BF52EA033591EA030F82
:1081800041F4002130BD00BF90F0000F04BF00217A
:10819000704730B54FF4806404F132044FF00005AD
:1081A0004FF0000150E700BF90F0000F04BF002126
:1081B000704730B54FF4806404F1320410F000458C
:1081C00048BF40424FF000013EE700BF42004FEA87
:1081D000E2014FEA31014FEA02701FBF12F07F4304
:1081E00093F07F4F81F06051704732F07F4208BFBB
:1081F000704793F07F4F04BF41F40021704730B5C2
:108200004FF4607401F0004521F000411CE700BF0D
:1082100050EA010208BF704730B54FF000050AE090
:1082200050EA010208BF704730B511F0004502D591
:10823000404261EB41014FF4806404F132045FEA93
:10824000915C3FF4D8AE4FF003025FEADC0C18BF3C
:1082500003325FEADC0C18BF033202EBDC02C2F12E
:10826000200300FA03FC20FA02F001FA03FE40EAC0
:108270000E0021FA02F11444BDE600BF70B54FF0C4
:10828000FF0C4CF4E06C1CEA11541DBF1CEA1355A2
:1082900094EA0C0F95EA0C0F00F0DEF82C4481EA0A
:1082A000030621EA4C5123EA4C5350EA013518BF2A
:1082B00052EA033541F4801143F4801338D0A0FB17
:1082C00002CE4FF00005E1FB02E506F00042E0FBC4
:1082D00003E54FF00006E1FB03569CF0000F18BFCA
:1082E0004EF0010EA4F1FF04B6F5007F64F5407472
:1082F00004D25FEA4E0E6D4146EB060642EAC62105
:1083000041EA55514FEAC52040EA5E504FEACE2E71
:10831000B4F1FD0C88BFBCF5E06F1ED8BEF1004F74
:1083200008BF5FEA500E50F1000041EB045170BDF0
:1083300006F0004646EA010140EA020081EA030134
:10834000B4EB5C04C2BFD4EB0C0541EA045170BD30
:1083500041F480114FF0000E013C00F3AB8014F1AA
:10836000360FDEBF002001F0004170BDC4F10004F3
:10837000203C35DA0C341BDC04F11404C4F1200574
:1083800000FA05F320FA04F001FA05F240EA0200CF
:1083900001F0004221F0004110EBD37021FA04F605
:1083A00042EB06015EEA430E08BF20EAD37070BDBF
:1083B000C4F10C04C4F1200500FA04F320FA05F01E
:1083C00001FA04F240EA020001F0004110EBD37020
:1083D00041F100015EEA430E08BF20EAD37070BD90
:1083E000C4F1200500FA05F24EEA020E20FA04F369
:1083F00001FA05F243EA020321FA04F001F0004118
:1084000021FA04F220EA020000EBD3705EEA430E88
:1084100008BF20EAD37070BD94F0000F0FD101F0B7
:108420000046400041EB010111F4801F08BF013CF0
:10843000F7D041EA060195F0000F18BF704703F02E
:108440000046520043EB030313F4801F08BF013DB5
:10845000F7D043EA0603704794EA0C0F0CEA135571
:1084600018BF95EA0C0F0CD050EA410618BF52EA2B
:108470004306D1D181EA030101F000414FF0000031
:1084800070BD50EA410606BF1046194652EA43063F
:1084900019D094EA0C0F02D150EA013613D195EAB3
:1084A0000C0F05D152EA03361CBF104619460AD1FB
:1084B00081EA030101F0004141F0FE4141F4700105
:1084C0004FF0000070BD41F0FE4141F4780170BDF5
:1084D00070B54FF0FF0C4CF4E06C1CEA11541DBF5A
:1084E0001CEA135594EA0C0F95EA0C0F00F0A7F85C
:1084F000A4EB050481EA030E52EA03354FEA013189
:1085000000F088804FEA03334FF0805545EA13139B
:1085100043EA12634FEA022245EA111545EA106563
:108520004FEA00260EF000419D4208BF964244F1FA
:10853000FD0404F5407402D25B084FEA3202B61A19
:1085400065EB03055B084FEA32024FF480104FF4ED
:10855000002CB6EB020E75EB030E22BFB61A754661
:1085600040EA0C005B084FEA3202B6EB020E75EBF4
:10857000030E22BFB61A754640EA5C005B084FEA5C
:108580003202B6EB020E75EB030E22BFB61A754629
:1085900040EA9C005B084FEA3202B6EB020E75EB34
:1085A000030E22BFB61A754640EADC0055EA060EF5
:1085B00018D04FEA051545EA16754FEA06164FEA38
:1085C000C30343EA52734FEAC2025FEA1C1CC0D1E4
:1085D00011F4801F0BD141EA00014FF000004FF071
:1085E000004CB6E711F4801F04BF01430020B4F132
:1085F000FD0C88BFBCF5E06F3FF6AFAEB5EB030CEA
:1086000004BFB6EB020C5FEA500C50F1000041EBE6
:10861000045170BD0EF0004E4EEA113114EB5C04B3
:10862000C2BFD4EB0C0541EA045170BD41F4801186
:108630004FF0000E013C90E645EA060E8DE60CEA8E
:10864000135594EA0C0F08BF95EA0C0F3FF43BAFAB
:1086500094EA0C0F0AD150EA01347FF434AF95EA62
:108660000C0F7FF425AF104619462CE795EA0C0F46
:1086700006D152EA03353FF4FDAE1046194622E713
:1086800050EA410618BF52EA43067FF4C5AE50EAED
:1086900041047FF40DAF52EA43057FF4EBAE12E7DD
:1086A0004FF0FF3C06E000BF4FF0010C02E000BFBE
:1086B0004FF0010C4DF804CD4FEA410C7FEA6C5CA1
:1086C0004FEA430C18BF7FEA6C5C1BD001B050EA44
:1086D000410C0CBF52EA430C91EA030F02BF90EA2F
:1086E000020F0020704710F1000F91EA030F58BFEE
:1086F000994208BF90422CBFD8176FEAE37040F050
:10870000010070474FEA410C7FEA6C5C02D150EAED
:10871000013C07D14FEA430C7FEA6C5CD6D152EAA8
:10872000033CD3D05DF8040B704700BF844610466D
:1087300062468C461946634600E000BF01B5FFF76C
:10874000B7FF002848BF10F1000F01BD4DF808ED3C
:10875000FFF7F4FF0CBF012000205DF808FB00BF0D
:108760004DF808EDFFF7EAFF34BF012000205DF867
:1087700008FB00BF4DF808EDFFF7E0FF94BF0120B4
:1087800000205DF808FB00BF4DF808EDFFF7CEFFB5
:1087900094BF012000205DF808FB00BF4DF808EDF4
:1087A000FFF7C4FF34BF012000205DF808FB00BFC5
:1087B0004A0011D212F5001211D20DD56FF4787360
:1087C000B3EB62520ED44FEAC12343F0004343EAB5
:1087D000505323FA02F070474FF00000704750EA00
:1087E000013002D14FF0FF3070474FF0000070476A
:1087F0004FEA4102B2F1E04324BFB3F5001CDCF1C3
:10880000FE5C0DD901F0004C4FEAC0024CEA5070FA
:10881000B2F1004F40EB830008BF20F00100704729
:1088200011F0804F21D113F13872BCBF01F000402C
:10883000704741F480114FEA5252C2F11802C2F15E
:10884000200C10FA0CF320FA02F018BF40F00100DF
:108850004FEAC1234FEAD32303FA0CFC40EA0C0091
:1088600023FA02F34FEA4303CCE77FEA625307D1CE
:1088700050EA01331EBF4FF0FE4040F44000704705
:1088800001F0004040F0FE4040F40000704700BF9F
:1088900053B94AB9002908BF00281CBF4FF0FF3167
:1088A0004FF0FF3000F092B9ADF1080C6DE904CE45
:1088B00000F024F8DDF804E0DDE9022304B070479D
:1088C000D0B50C4B002206460F46FFF7D7FCFFF74A
:1088D0006FFF0446FFF758FC074B0022FFF7CEFC62
:1088E00002460B4630463946FFF710FBFFF760FFA4
:1088F0002146D0BD0000F03D0000F0412DE9F047D9
:10890000089D04468E46002B4DD18A42944669D973
:10891000B2FA82F252B101FA02F3C2F1200120FA56
:1089200001F10CFA02FC41EA030E94404FEA1C48A4
:10893000210CBEFBF8F61FFA8CF708FB16E341EAA0
:10894000034306FB07F199420AD91CEB030306F126
:10895000FF3080F01F81994240F21C81023E634447
:108960005B1AA4B2B3FBF8F008FB103344EA0344EB
:1089700000FB07F7A7420AD91CEB040400F1FF3300
:1089800080F00A81A74240F207816444023840EA3D
:108990000640E41B00261DB1D4400023C5E9004376
:1089A0003146BDE8F0878B4209D9002D00F0EF80F9
:1089B0000026C5E9000130463146BDE8F087B3FA2C
:1089C00083F6002E4AD18B4202D3824200F2F98014
:1089D000841A61EB030301209E46002DE0D0C5E917
:1089E000004EDDE702B9FFDEB2FA82F2002A40F063
:1089F0009280A1EB0C014FEA1C471FFA8CFE012666
:108A0000200CB1FBF7F307FB131140EA01410EFB09
:108A100003F0884208D91CEB010103F1FF3802D2B0
:108A2000884200F2CB804346091AA4B2B1FBF7F0AA
:108A300007FB101144EA01440EFB00FEA64508D9CD
:108A40001CEB040400F1FF3102D2A64500F2BB800A
:108A50000846A4EB0E0440EA03409CE7C6F1200759
:108A6000B34022FA07FC4CEA030C20FA07F401FA9F
:108A700006F31C43F9404FEA1C4900FA06F3B1FB28
:108A8000F9F8200C1FFA8CFE09FB181140EA01418D
:108A900008FB0EF0884202FA06F20BD91CEB01012A
:108AA00008F1FF3A80F08880884240F28580A8F182
:108AB00002086144091AA4B2B1FBF9F009FB1011D4
:108AC00044EA014100FB0EFE8E4508D91CEB010172
:108AD00000F1FF346CD28E456AD90238614440EA15
:108AE0000840A0FB0294A1EB0E01A142C846A64695
:108AF00056D353D05DB1B3EB080261EB0E0101FA1E
:108B000007F722FA06F3F1401F43C5E9007100267A
:108B10003146BDE8F087C2F12003D8400CFA02FCD0
:108B200021FA03F3914001434FEA1C471FFA8CFEE0
:108B3000B3FBF7F007FB10360B0C43EA064300FBD0
:108B40000EF69E4204FA02F408D91CEB030300F16E
:108B5000FF382FD29E422DD9023863449B1B89B225
:108B6000B3FBF7F607FB163341EA034106FB0EF3AE
:108B70008B4208D91CEB010106F1FF3816D28B425B
:108B800014D9023E6144C91A46EA004638E72E4627
:108B9000284605E70646E3E61846F8E64B45A9D21F
:108BA000B9EB020864EB0C0E0138A3E74646EAE78E
:108BB000204694E74046D1E7D0467BE7023B61443C
:108BC00032E7304609E76444023842E7704700BFA5
:108BD000002301461A46184600F0CCBF002100F0E1
:108BE00031BF0A22002100F0BBBF0A22002100F0A1
:108BF000B7BF0000000000000000000000000000FF
:108C000001F0FF01102A2BDB10F0070F08D010F83D
:108C1000013B013A8B422DD010F0070F42B3F6D141
:108C2000F0B441EA012141EA014122F007047FF05A
:108C300000070023F0E80256083C85EA010586EAB1
:108C4000010685FA47F5A3FA87F586FA47F6A5FAED
:108C500087F68EB9EED1F0BC01F0FF0102F00702F9
:108C600032B110F8013B013A83EA010313B1F8D1A4
:108C70000020704701387047002D06BF3546033885
:108C8000073815F0010F07D1013015F4807F02BFBE
:108C9000013015F4C03F0130F0BC0138704700BF0F
:108CA00010B501390244904201D1002005E003785B
:108CB00011F8014FA34201D0181B10BD0130F2E79B
:108CC0000A44914200F1FF3300D1704710B511F80A
:108CD000014B03F8014F9142F9D110BD884210B504
:108CE00001EB020402D98442234607D8431EA14265
:108CF00008D011F8012B03F8012FF8E702440146D0
:108D00008A4200D110BD13F8014D02F8014DF7E77A
:108D100002440346934200D1704703F8011BF9E770
:108D200038B5104B1D68AB6B0446B3B91820FDF77E
:108D300083FA0246A86320B90B4B0C484221FDF789
:108D4000B3FA0B490B4BC0E900130B4B83600B23A9
:108D5000838100210120C2E90401AB6B00221C6168
:108D60005A6138BD48E10320D9B70B00F0B70B00BA
:108D70000E33CDAB34126DE6ECDE050010F8012B9E
:108D800011F8013B012A28BF9A42F7D0D01A704748
:108D9000034611F8012B03F8012B002AF9D1704783
:108DA000034613F8012B002AFBD1181A013870472B
:108DB00010B57AB103460139841813F8010B11F884
:108DC000012F904201D1A34201D1801A10BD002889
:108DD000F3D1FAE71046F9E710B50139034632B18D
:108DE00011F8014F03F8014B013A002CF7D11A4456
:108DF0000021934200D110BD03F8011BF9E770B5C3
:108E000004460D4645EC104B164601F00DFE51ECA4
:108E1000100B7EB1C5F30A53C3F16B03002B09DDC0
:108E20001B0503F17F55002405F5401522462B460E
:108E3000FFF724FA70BD00002DE9F04F2DED028BF5
:108E40009DB01F4600231893A24B13921B680593F5
:108E5000044618468846FFF7A3FF4FF0000A054670
:108E60004FF0000BCDF85C80179B1A782B2A4ED060
:108E70003BD80D2A34D8082A34D8002A3ED0002303
:108E80000A93179E3378302B40F0B080737803F04C
:108E9000DF03582B68D10A9B019318AB029700930C
:108EA0008D4A19AB17A9204600F02EFF10F00707D6
:108EB000054605D0062F2CD10136002317960A93BC
:108EC000139B002B40F090850A9BEBB152460BF1AF
:108ED000004343EC102B1DB0BDEC028BBDE8F08FBE
:108EE000202ACCD101331793BEE72D2AC7D1012206
:108EF0000A925A1C17925B78002BC2D1139BCDF8B3
:108F00005C80002B40F06E8552465B46E1E7002214
:108F1000EEE7189A3AB135211AA801F090FE189997
:108F2000204601F04FFA013F042F06D8DFE807F092
:108F30000A0314170A00DDE91AAB2807C0D54BF065
:108F4000004BBDE7DDE91AA3199A23F4801302F25E
:108F5000334243EA025BF0E7DFF880B1EDE76FF000
:108F6000004B4FF0FF3AE8E7179B5A1C17925B78CB
:108F7000302BF9D0002BA3D001234FF0000904932C
:108F8000179B0893CDF81C904F460A221798067835
:108F9000A6F13003D9B209292AD905992A46FFF743
:108FA00007FF98B3002032463D4605900346652AE8
:108FB00001D0452A18D11DB9049A02439ED000253C
:108FC000DDF85C8008F10102179298F801202B2A45
:108FD00075D02D2A7BD04FF0000CA2F13001092969
:108FE00040F28280CDF85C8000269DE00023C4E73B
:108FF000082FD8BF079900F10100DABF02FB013347
:10900000079302FB093901371790BFE7179B5A19DD
:1090100017925A5D002F37D005903D46A2F13003DC
:10902000092B12D90123C2E7179B5A1C17925A78B1
:109030000130302AF8D0A2F13103082B00F2D98494
:10904000179B0590002008930546303A00F1010374
:1090500014D00599194405912B4600EB050E0A2101
:10906000734513D12B18082B05F1010505441CDCB1
:1090700007990A2303FB012307930023179A511C26
:10908000179152781846C9E73846D2E7082B04DC16
:10909000079E4E4307960133E2E703F1010CBCF152
:1090A000100FD8BF01FB09F9F5E7102DDCBF0A232B
:1090B00003FB0929E1E70023059301237CE74FF037
:1090C000000C08F10202179298F8022085E74FF091
:1090D000010CF6E76CBA0B007CB80B000000F07FC7
:1090E000179A511C17915278302AF9D0A2F1310108
:1090F00008293FF679AFA2F1300E179A0692179A17
:10910000511C17915278A2F13006092E37D9069ECC
:10911000891B082944F61F6602DC7645A8BF7646FF
:10912000BCF1000F00D07642002D4DD104990143CF
:109130007FF4C6AE002B7FF4E1AE692A27D024DC91
:10914000492A24D04E2A7FF4D9AE9F4917A801F0AE
:1091500033F800283FF4D2AE179B1B78282B2DD173
:109160009A491AAA17A801F03BF8052826D11B9B9B
:10917000DDF868A043F0FF4B4BF4E00BA0E60A21BA
:1091800001FB0E2EAEF1300EB9E76E2ADBE79049F7
:1091900017A801F011F800283FF4B0AE179B8D49D5
:1091A000013B17A8179301F007F810B9179B01337B
:1091B0001793DFF830B24FF0000A81E6864801F0DD
:1091C00093FD5BEC10AB7BE6059B0798F31A002F31
:1091D00008BF2F46102D0693A846A8BF4FF01008D1
:1091E000FEF7D2FF092D82468B4613DD7B4B03EB46
:1091F000C80353E91223FFF741F8824648468B46DD
:10920000FEF7C2FF02460B4650465946FEF780FE67
:1092100082468B460F2D38DC069B002B3FF450AE68
:1092200024DD162B0BDC6D4901EBC301D1E90001F4
:1092300052465B46FFF722F882468B4640E6069A86
:10924000C5F12503934220DB644CC5F10F0504EB07
:10925000C50152465B46D1E90001FFF70FF8069BB6
:109260005D1B04EBC504D4E90023E3E7069B16333A
:109270000BDB059B9E1B594B03EBC606D6E900236F
:1092800050465946FFF724F9D6E7069BA5EB080898
:109290009844B8F1000F74DD18F00F030AD04F495D
:1092A00001EBC30152465B46D1E90001FEF7E6FF40
:1092B00082468B4638F00F084FD0B8F59A7F22DDF2
:1092C00000252E46079505952223DFF818B1236067
:1092D0004FF0000A079B002B3FF4F2AD189920468F
:1092E00001F070F80599204601F06CF831462046EF
:1092F00001F068F80799204601F064F829462046F5
:1093000001F060F8DCE5364B049300234FEA28189F
:10931000504659469946B8F1010F21DC0BB18246FF
:109320008B462F4BABF1547B03EBC90952465B468E
:10933000D9E90001FEF7A2FF2A4B0A460B402A4951
:109340008B428246BCD8A1F580118B4286BFDFF8E4
:109350009CB04FF0FF3A02F1547B0023049384E069
:1093600018F0010F05D0049BD3E90023FEF786FF18
:109370000123049A083209F101094FEA68080492AE
:10938000C9E7EAD0C8F1000818F00F020AD0134B61
:1093900003EBC20350465946D3E90023FFF798F880
:1093A00082468B465FEA2818D7D0B8F11F0F1FDD21
:1093B00000252E460795059522234FF0000A4FF011
:1093C000000B236086E700BF76B80B0090B80B0057
:1093D0006DB80B0070B80B0070B60B0028BB0B000B
:1093E00000BB0B000000F07F0000A07CFFFFEF7FC0
:1093F00018F0100318BF6A23DFF8AC9304935046AB
:109400005946002318F0010F04D0D9E90023FEF7D4
:1094100035FF01235FEA680809F10809F2D10BB1B1
:1094200082468B46049BC3B1CBF30A52C2F16B0355
:10943000002B594611DD1F2B40F32481342BDEBF56
:10944000C2F14B024FF0FF3303FA02F24FF0000A71
:10945000CCBF4FF05C7B02EA010B00220023504698
:109460005946FFF773F90028A2D1079B009308998A
:109470002B463A46204601F00DF8079000283FF4AD
:109480001FAF059B9E1B069B002BB4BF33460023DA
:109490000C93069B002523EAE37312932E46079B49
:1094A0002046596800F04EFF059000283FF40CAFAD
:1094B000079B1A69023203F10C0192000C30FFF78E
:1094C000FFFB4BEC10AB1AAA19A9204601F028FBB0
:1094D0004BEC18AB189000283FF4F6AE0121204663
:1094E00001F072F8064600283FF4EEAE199B04998D
:1094F000002BABBF0C9A129A129FDDF83090ACBFD4
:1095000003EB0209D71A1A9AA3EB01089044A14B66
:1095100008F1FF389845C2F1360280F2C780A3EB0C
:1095200008031F2BA2EB03024FF0010100F3B180EF
:1095300001FA03F30D930023089309EB0208049B3F
:10954000C14517441F444B46A8BF4346BB42A8BF72
:109550003B46002BC2BFA8EB0308FF1AA9EB030987
:109560000C9B002B17DD31461A46204601F0ECF823
:10957000064600283FF4A8AE0146189A204601F09E
:1095800039F80B9000283FF49FAE1899204600F060
:1095900019FF0B9B1893B8F1000F00F38C80069B0A
:1095A000002B08DD129A0599204601F0CDF80590B0
:1095B00000283FF489AE002F08DD05993A46204681
:1095C00001F01CF9059000283FF47EAEB9F1000FC0
:1095D00008DD31464A46204601F010F906460028CB
:1095E0003FF472AE059A1899204601F093F90546AA
:1095F00000283FF469AEC3680B930023C360314673
:1096000001F06CF9002860DA0B9B53EA0A0340F082
:109610008280CBF31303002B7DD12BF000431B0D75
:109620001B05B3F1D66F76D96B6913B92B69012B82
:1096300071DD29460122204601F0E0F83146054659
:1096400001F04CF9002866DD0499534A5B46002975
:1096500000F0818002EA0B01B1F1D66F7BDCB1F141
:109660005C7F7FF7A9AE4D4B504659460022FEF76E
:1096700005FE0B46034308BF222382468B4608BFE4
:1096800023602BE64FF0FF3202FA03F303EA0A0AE3
:10969000E3E6C8F17F4808F57F0808F57B4808F144
:1096A000E20801FA08F308930D9146E700230893B6
:1096B00001230D9341E718994246204601F09EF898
:1096C000189000287FF46BAFFEE55F466ED10B9AD1
:1096D000CBF3130342B3324A934228D1049B514641
:1096E000EBB12D4B3B40B3F1D46F4FF0FF3219D8A3
:1096F0001B0DC3F16B0302FA03F3994217D1294BF7
:109700009F4202D101313FF4DFAD234B3B4003F5D3
:10971000801B4FF0000A049B002BA4D1DEE54FF024
:10972000FF33EAE71346E8E753EA0A038CD0089BC5
:10973000DBB13B42EFD00B9B049A50465946C3B174
:10974000FFF75DFB02460B4651EC180BFEF7E0FB02
:1097500082468B46DFE71340A3F580136FEA135B65
:109760006FEA0B5B4FF0FF3AD5E70D9B13EA0A0F48
:10977000E0E7FFF744FB02460B4651EC180BFEF7FF
:10978000C5FB0022002382468B46FEF7DFFF002840
:10979000C1D011E602FCFFFF0000F07F000050394D
:1097A000FFFF0F00FFFFEF7FA8B80B0031462846F0
:1097B00001F012FA59EC108B10EE100A00224FF053
:1097C00080434946FEF7D6FF00287AD00B9B002B3A
:1097D0004AD0954B0022CDE90823DFF84C924FF098
:1097E0000008924B3B400D930D9A914B9A4240F0EA
:1097F000B080DDE90801A7F1547B4BEC10ABCDE95B
:10980000080101F011F9DDE9080153EC102BFEF716
:1098100035FD52465B46FEF77BFB0B468349854A86
:1098200019409142824660D918EE903A02F1547282
:10983000934204D118EE103A01333FF445ADDFF8FE
:1098400000B24FF0FF3A1899204600F0BBFD059991
:10985000204600F0B7FD3146204600F0B3FD294612
:10986000204600F0AFFD1AE6BAF1000F1BD1CBF392
:109870001303F3B96C4B002240464946FEF770FFD4
:10988000D0B9404649466C4B0022FEF7F7FC8046B3
:10989000894609F10043CDF850801593DDE9142382
:1098A000CDE908239DE7BAF1010F02D1002F3FF463
:1098B00083AD624B00228EE7DFF87C914FF0000809
:1098C000E7E75D4B404649460022FEF7D7FC0B9B7D
:1098D0008046894633B901F100430E900F93DDE9CC
:1098E0000E23DDE7CDE90E89F9E703F1547B049BF4
:1098F000002BA8D12BF000430D9A1B0D1B059A429B
:10990000A1D14046494601F005FAFEF789FC02461E
:109910000B4640464946FEF7F9FA0B9ACBF3130380
:1099200043EA0A0313438046894655D036A3D3E958
:109930000023FEF715FF00287FF4D0AC34A3D3E951
:10994000002340464946FEF729FF00283FF47BAF3D
:10995000C4E4049B33B30D9BB3F1D46F22D82EA380
:10996000D3E9002340464946FEF704FFA0B149462B
:109970004046FEF71DFF012838BF0120FEF704FC1A
:109980000B9B8046894623BB01F100431090119345
:10999000DDE91023CDE90823099B0D9A03F1D66375
:1099A0009B1A0993DDE90801B0EE480AF0EE680A57
:1099B000CDE9080101F038F8DDE9080153EC102B7E
:1099C000FEF75CFC53EC182BFEF7A2FA82468B469E
:1099D0008DE7CDE91089DBE711A3D3E90023FEF77A
:1099E000BFFEB2E700230A93139A179B1360FFF799
:1099F0006BBA652A3FF45FAB452A3FF45CAB0123A9
:109A0000FFF794BBAFF300809535A094FFFFDF3FD5
:109A100035E5AF350000E03F0000C0FFFFFFDF414C
:109A20009535A094FFFFCF3F0000F03F0000F07F8E
:109A30000000E07FFFFF9F7C0000E03F0000F0BFE0
:109A4000FFFFEF7F0A4601460248034B0068FFF71D
:109A5000F3B900BF48E10320B4E10320012B2DE955
:109A6000F04701D0242B06D9FCF716FC162303601F
:109A70000020BDE8F087DFF8E4C00D462E4615F85B
:109A8000014B14F80C7017F00807F7D12D2C32D1C8
:109A90002C780127B51C002B5BD0102B09D1302C62
:109AA00007D12C7804F0DF04582C4DD16C781023AA
:109AB000023507F1004808F1FF384FF0000CB8FB01
:109AC000F3F9664603FB198AA4F1300EBEF1090FC3
:109AD00016D87446A34224DDBCF1000F1EDBB1454D
