:02000002B0004C
:1040000000400B005CD30B00000006000C00050212
:084010000401E50C00000000B2
:0440180094B70B004E
:1040200009480A49884208B505D0094A824202D0A7
:10403000121A05F075FB0748074A0021121A05F00D
:1040400097FB014808BD00BFC8E0032058D10B0012
:10405000A4E20320A8E20320F1E7032070B5074E95
:10406000074C03F03BFBA41BA4080025AC4200D185
:1040700070BD56F8043B98470135F7E70CD10B00AB
:1040800030D10B0000F0DABE08B500F08DFDBDE8C0
:10409000084003F0DBBA02F0D9BF02F0D7BF02F04C
:1040A000DDBF02F0DBBF02F0D9BF000008B5034A54
:1040B00003490C2002F016FFFEE700BFC56B0B00A2
:1040C000A8B70B000078B0FA80F0400970470123D0
:1040D0000370704770B50B460C4653F8081B9942A5
:1040E000054600680DD162680AB104F0FBFA636806
:1040F0002A686B600021D15422680023636013702A
:1041000070BD29606168696005F10806B042A16868
:1041100018BFAA68A96008BF002010B12060A26083
:10412000EAE72360E8E71FB504460846039105F077
:104130005FFB039B009062680021204604F052FB65
:1041400004B010BDF0B52DED028B02F1080387B06D
:1041500023F0070300AFADEB030D1446684605F0EE
:10416000DFFA00230DF804308D4C8E486946FFF7C6
:10417000DAFF8C49204604F0D2FAD4E90023134434
:10418000934209D0013B9A4206D21178187802F87E
:10419000010B03F80119F6E783498248002204F075
:1041A000D6FB01302AD080498048FFF7BCFF7F4909
:1041B0007C487F4C002204F0C4FB0323C2187949D9
:1041C000384604F031FC39462046FFF783FF384675
:1041D00004F05AFA256802F071FF066802F06EFFDB
:1041E000002303600A223946284606F0E1F93B68BD
:1041F0009D42044626D16F4804F054F96E4969483F
:10420000002204F0A4FB013001D06B49CCE76B49DC
:104210006448002204F09BFB013001D06749C3E7EA
:1042200067496048002204F092FB013001D06449E4
:10423000BAE764495B48002204F089FB0130B6D03C
:104240006049B1E702F03AFF0368222B02D15948D6
:1042500004F02EF902F032FF036813B902F02EFFCA
:104260000660594D59494E482C60002204F06FFBFE
:104270005649064600224A4804F069FB5449024662
:10428000474804F064FB514904460022444804F0C6
:104290005EFB023C231A4F4C4149B21C384604F0E5
:1042A000C3FB39462046FFF715FF384604F0ECF90A
:1042B000D4E900231344934209D0013B9A4206D229
:1042C0001178187802F8010B03F80119F6E7206855
:1042D000414C05F0B3F951EC100B05F03BF907EE3A
:1042E000900AB7EE007AF4EEC77AF1EE10FA206089
:1042F00013D53A493A4C3B48FFF715FF0023236199
:10430000384B2046196803F0CAF8204602F044FBF7
:104310001C37BD46BDEC028BF0BD2A49234804F092
:1043200025FB68B92B68042BE3DDD4ED007AB0EEF1
:10433000088AF4EEC87AF1EE10FA08D52A49D9E7CE
:104340001F491A4804F012FB0028EBD0EDE71D4985
:10435000164804F00BFB58B92B68092BEEDDD4EDA1
:10436000007AF4EEC87AF1EE10FA08DB1F49C1E7D3
:1043700013490E4804F0FAFA0028EDD0EFE710498F
:104380000A4804F0F3FA20B92B68092BEEDC18492F
:10439000B0E70C49054804F0E9FA0028F4D0F6E744
:1043A0002CE303205CE30320BDB70B0014E30320E0
:1043B000E4E20320D1B70B00C1B70B00C5B70B0077
:1043C000C9B70B00CDB70B00B0E60320D6B70B0082
:1043D00047CB0B00FCE20320B8E60320D9B70B0063
:1043E00040E6032044E30320DAB70B00DEB70B00FE
:1043F000DFB70B0008B502F0EDFB034B1860BDE81A
:10440000084002F00BBE00BF44E7032003682BB155
:104410004268934202D2184605F013B90020704753
:1044200038B50568044645B143689D4205D2284623
:1044300005F0DEF9013005442560204638BDF8B5A9
:10444000044647680D4621B903687A1C4260D95575
:10445000F8BD084605F0CCF9A368461CF2199A424B
:10446000F6D8206832462946384405F059F9606884
:1044700030446060ECE7000038B504460B46D0E9F4
:1044800001012568044A091A284402F0F7FD63680F
:1044900001300344636038BDE3B70B0038B5044610
:1044A0000B46D0E901012568044A091A284402F0A4
:1044B000E5FD636801300344636038BDE6B70B0077
:1044C000F0B5D0F834C087B006460F46BCF1000FF7
:1044D0000CD00A460023614603F0A4FB012816BF56
:1044E000002001200746778707B0F0BD074B0093F7
:1044F00000F120050FCD01AC0FC42B6823703A46A4
:1045000063466946304603F06DFCE7E730C90B00AF
:1045100008B5086805F095F80449013801EB001169
:10452000BDE80840024802F042BF00BFC0E30320DC
:10453000B0E3032008B5002380F82D30006903F0B4
:1045400027FDBDE8084002F0C7BA00002DE9F0439E
:104550008F188FB0B942CDE90517064689469046B7
:1045600080F0C28005A80D88FFF75AFF0368BB42A0
:1045700080F0BA8005980378412B49D1013005F0CD
:1045800060F8052837DDFF2447F276239D4200F0CE
:10459000D38041D847F261239D4200F0A88047F2C2
:1045A00064239D426BD046F670539D4241D1784DB5
:1045B000784EDFF8F4810598B84280F09580037852
:1045C000412B4BD1013005F03CF8052839DDFF24A3
:1045D00005A8FFF725FFDDF814902946484605F0A9
:1045E000FDF8014600283DD1204603F05DFE05A8F8
:1045F000FFF716FFDFE70598013005F022F80028E5
:10460000C1DB0598013005F01CF80E30C4B2BBE7E1
:1046100005A8FFF7FBFEF9E747F264739D424FD010
:1046200047F276739D4200F0978047F261739D4296
:104630006FD00023CDE9013302220092728D19461A
:104640003AE00598013004F0FCFF0028BFDB059834
:10465000013004F0F6FF0E30C4B2B9E705A8FFF749
:10466000D5FEF9E73146484605F0B8F828B141468D
:10467000484605F0B3F80028B9D10121B4E70AABE8
:104680004549079307A810230025CDE90853FFF7F4
:10469000D6FE07A82146FFF7EFFE204603F02EFEC8
:1046A000014607A8FFF7FAFE089BCDE90155013B3B
:1046B0000093079B2A461421304600F09BFA13E032
:1046C00005A8FFF7ADFE03689F420DD9A4B20121F2
:1046D000204603F0E9FD05A8FFF798FE011E18BF6C
:1046E0000121204603F0F1FD0FB0BDE8F0830AABD5
:1046F000079307A8102329490025CDE90853FFF7A0
:104700009EFE07A82146FFF7B7FE204603F009FEEC
:10471000C6E705A8FFF784FE03689F42E4D9A4B268
:104720000121204603F0C0FD05A8FFF76FFE0146FA
:10473000204603F00DFED7E72046ADF8284002F0F2
:10474000CDF903460AA823B1154A934201D09847F0
:10475000CAE702F0BFF9C7E705A8FFF761FE059BAE
:10476000ADF81C40A3EB0901A8EB01012046CDE9FF
:104770000A310C9102F0BCF903460AA907A823B13B
:10478000084A934201D09847AEE702F0A4F9ABE79C
:10479000EAB70B00EDB70B00F5B70B00F8B70B004D
:1047A000D56A0B00D76A0B00F1B70B002DE9F04179
:1047B0008CB004AF044605220069391D02F0DDFE0D
:1047C000A8B3052804D000202037BD46BDE8F081FD
:1047D000B7F805305BBA9AB2A7F80530B7F80730DA
:1047E0005BBA1FFA83F8A7F80730002AEBD03B79B1
:1047F0003BBB02F06DF90246E06194F82D00B7F87A
:104800000730D0B9B7F80510012916D1092B10D0FF
:10481000C82B01D0042BD7D101256262204684F831
:104820002D5000F0E5FAFFF7E5FD02F055F9012003
:10483000CAE7032384F82D30C6E7581F18BF0120AC
:10484000C2E7B8F5806F03D92046FFF773FEEEE7A5
:1048500008F108036E46DB08A6EBC3039D4604ADD2
:1048600020694246294602F088FE80454FF000004C
:1048700041D1B7F80730E85402F02AF93B79E061FA
:10488000142B69D009D80F2B66D0112B71D0062BB1
:1048900016D02046FFF74EFE1DE0292B1DD0372BEA
:1048A00019D01D2BF5D194F82D304BB9012384F884
:1048B0002D30204600F09CFAFFF79CFD02F00CF929
:1048C0000023C821B7F805200091CDE9013319462E
:1048D000204600F08FF901200DE0A3691BB94020AC
:1048E00002F0B4FBA061B7F80780A8444545C7E9CA
:1048F000055802D30020B54666E729464022A06944
:1049000004F092FFA369002583F83F5007F11400DB
:10491000FFF786FD036898451CD9786920B1BB690B
:10492000984215D204F091FE85B2206903F030FB65
:104930002369A2695A631D87002384F82D3002F091
:10494000C7F8A0F59C500838C4E907006062C2E7C8
:104950002846E9E75025E8E77B68B7F80720C3F366
:104960000F23638529462046FFF7F0FD002363856A
:10497000B1E700233B80B7F807302B449D42C7E9DD
:104980000353A8D207F10C00D5F80080FFF748FDCB
:10499000FB68B7F807105D1B4D1BC7E905357B6841
:1049A000FD61C3F30F2363852D4B984552D020D86A
:1049B000A3F57F236FF400721344984532D00FD8CB
:1049C000A3F50033063B984532D003F5003303339B
:1049D0009845CBD107F11401384602F07CF8C5E7C1
:1049E000204B9845C2D107F11401384602F073F804
:1049F000BCE71D4B984521D003F19F6303F50033BD
:104A000003F5807398451FD003F16E4303F53023FF
:104A100003F586739845A9D107F11401384602F0D1
:104A20005AF8A3E707F11401384602F054F89DE75D
:104A300007F11401384602F04EF897E707F1140128
:104A4000384602F048F891E707F11401384602F0C1
:104A500042F88BE707F11401384602F03CF885E78D
:104A6000766673006462670061636F6E70B50446BA
:104A700086B00D46FFF7BEFC94F82D30022B22D0F5
:104A800094F82C30628D0133DBB284F82C30AAB953
:104A9000022B13D8206903F043F9B0B125B920697E
:104AA00003F01CFA002810DD2046FFF77FFE0028E7
:104AB000F5D1206903F06CFA02F00EF894F82C306E
:104AC000013B84F82C3006B070BD02F001F80546B9
:104AD000206903F025F994F82D60012E24D120B926
:104AE00065622046FFF726FDE8E7E3694FF21862AA
:104AF000EB1A9342F5D84AF6C872934203D8236A58
:104B0000EB1A9342DAD9636A41F27072EB1A93425C
:104B1000D4D90023CDE9013300931A46062120465B
:104B200000F068F86562C9E7002EC7D1636AEB1A26
:104B300048B141F270729342C0D9206903F028FA5B
:104B400084F82D60BAE741F288329342B6D92069E1
:104B500003F01EFA2669318F3046FFF7B1FC48B9E1
:104B6000338F502B1AD141F690713046FFF7A8FCD5
:104B70000028D7D06369059301251846258504F0E0
:104B800037FE0022CDE90122059B00902A461D2117
:104B9000204600F02FF8236A63628FE741F6907297
:104BA0009342BFD15021E0E708B50C4800F0C7FFA1
:104BB0000B480021FFF75AFF02F00CF8094B00F5F3
:104BC0001C501B681030984207D8074B07491A68D9
:104BD0000748BDE8084001F0B8BA08BD40E6032028
:104BE000A8E20320B4E60320B0E30320FBB70B00E8
:104BF000E0E503202DE9F04F91B004AF04460069D1
:104C0000BD6D894616469A46EB4603F089F80028A2
:104C100000F0B580B9F11D0F04D8714B23FA09F3E8
:104C2000DB0720D494F82D30012B40F0A880A9F1A7
:104C30000F03052B17D8D4E90723934238BF134637
:104C400003F1420801F044FFA8EB00000028C0F285
:104C50009B8000212046FFF709FF01F039FFA8EBF8
:104C600000000028F5DA2378012B2DD102232370D0
:104C7000D4E90223134307F118004FF0000800F0B5
:104C80008C801823C7E9030856497B6107F10C00A3
:104C9000FFF7D5FBD7E9043194ED027BF868524A5F
:104CA000C91A18448DED007B02F0E8F93B69013028
:104CB00018443861CDE9018801380090FB6842460C
:104CC00015212046FFF796FF46B9668D36B9238D2C
:104CD00001339BB2002B70D02385268DBAF1000FD3
:104CE0006DD005F10508FB6D002B3B6E08BF00235E
:104CF000984408F1070323F00703ADEB030D04AB61
:104D00007B603B6E8DF81090EA18C2F3072376BAE9
:104D100043EA0223ADF81160ADF81330BAF1000F89
:104D200050D0002D4ED02A4651460DF1150004F00A
:104D3000F7FC681DFB6D3BB13B6E2BB11A467B68DF
:104D4000F96D184404F0ECFC002545453ED2A8EB73
:104D500005027B682069B2F5806F28BF4FF480623E
:104D6000591902F0B4FE0646002001F0AFFE5EBB0A
:104D7000206903F00DF984F82D6001F0ADFE3437A1
:104D8000DD46BD46BDE8F08F94F82C1000297FF475
:104D90006AAF2046FFF76AFE65E707F10C03C7E933
:104DA0000638124904233B62FFF749FBCDE901882D
:104DB000FB69013B0093BB6981E701238CE74FF05E
:104DC000050890E70520B5E73544BEE703D0204647
:104DD000FFF7B0FBD3E701F07BFE2062CFE700BF17
:104DE0004100002009B80B000BB80B0010B80B00F5
:104DF00030B599B008AB044605930025402305A8BB
:104E00000B49CDE90653FFF71AFB05A80949FFF73F
:104E100016FB069B013B0293059B019371230093B4
:104E20002A46054B11212046FFF7E4FE19B030BD9C
:104E300012B80B0017B80B0005B90B00F0B585B020
:104E400002F06AFD4FF4165102F05AFD02F064FDC3
:104E50003049314C02F023FB41F2883002F0B4FBC0
:104E600040F6B83001F032FE2C4B636101F030FEA9
:104E7000A0F59C5023692A4A5A630838C4E9070000
:104E8000502260621A87002644F24F67206903F0BF
:104E90007FF884F82D6001F01BFE054694F82D3054
:104EA000012B0DD001F014FE401BB84204D80021A4
:104EB0002046FFF7DBFDF1E794F82D30012BE5D11B
:104EC000184800F013FE0221164800F0C0FD1548F6
:104ED000002303614FF00113436101F0EFFA114821
:104EE00001F05AFD684602F0A1F800990E4801F061
:104EF000A1F8684602F0FCF90B4800F0ABFF30B1B6
:104F00000A49094805B0BDE8F04001F062B905B0B2
:104F1000F0BD00BF25B80B00A8E203202FB80B009E
:104F200050B80B0040E60320E0E503205CB80B001E
:104F300037B50021012001F0F5FF824B824A834CF6
:104F40009A600025C3E90055032001F0DBFF2046ED
:104F500003F068F804F11C0002F02CFC7C4B0020EC
:104F60000021C3E90201C3E90445C4E90D55C3E9C1
:104F70000655C3E908551D709D629D85072175483A
:104F8000754C00F085FD754B03F10802C3E900255F
:104F90001D7201F01FFE724B72491860724B03F1D3
:104FA0000802C3E900251D72704B03F10802C3E932
:104FB00000251D72204602F0E6F96D4904F110004B
:104FC00002F0E1F96B4904F1200002F0DCF96A49D2
:104FD00004F1300002F0D7F9684904F1400002F012
:104FE000D2F9674904F1500002F0CDF9654904F1A6
:104FF000600002F0C8F9644904F1700002F0C3F9DE
:10500000624904F1800002F0BEF9614904F19000A8
:1050100002F0B9F95F4904F1A00002F0B4F95E4969
:1050200004F1B00002F0AFF95C4904F1C00002F0F5
:10503000AAF95B4904F1D00002F0A5F9594904F13D
:10504000E00002F0A0F9584904F1F00002F09BF9E9
:10505000564904F5807002F096F9554904F58870B8
:1050600002F091F9534904F5907002F08CF952491D
:1050700004F5987002F087F9504904F5A07002F029
:1050800082F94F4904F5A87002F07DF94D4904F505
:10509000B07002F078F94C4904F5B87002F073F979
:1050A0004A4904F5C07002F06EF9494904F5C87028
:1050B00002F069F9474904F5D07002F064F94649F5
:1050C00004F5D87002F05FF9444904F5E07002F08D
:1050D0005AF9434904F5E87002F055F9414904F5DD
:1050E000F07002F050F9404904F5F87002F04BF905
:1050F0003E4904F5007002F046F93D4904F504709C
:1051000002F041F93B493C4802F03DF93B4B3C4938
:105110001D7203F10802C3E900253A4B3A481D729B
:1051200003F10802C3E90025384B03F10802C3E983
:1051300000251D7240F25B72354B009500F0AEFD0C
:1051400003B030BDD8E203200000FFFF74E303206A
:10515000A8E2032040E60320C0E3032044E3032049
:10516000B4E6032066B80B0014E30320E4E2032056
:105170006AB80B006EB80B0072B80B0076B80B0063
:105180007AB80B007EB80B0082B80B0086B80B0013
:105190008AB80B008EB80B0092B80B0096B80B00C3
:1051A0009AB80B009EB80B00A2B80B00A6B80B0073
:1051B000AAB80B00AEB80B00B2B80B00B6B80B0023
:1051C000BAB80B00BEB80B00C2B80B00C6B80B00D3
:1051D000CAB80B00CEB80B00D2B80B00D6B80B0083
:1051E000DAB80B00DEB80B00E2B80B00E6B80B0033
:1051F000EAB80B0048CB0B00B0E30320FCE203202D
:10520000EEB80B005CE30320E0E503202CE3032071
:1052100045410B00704710B510210446FEF743FFCF
:10522000204610BD0EB403B503AB002153F8042B88
:10523000019302F05CF902B05DF804EB03B0704733
:1052400073B5044608462279A36832B1A3B90B4965
:1052500002B0BDE8704002F00FB9094A267B094D43
:105260000949647B012E18BF2946CDE9001407497E
:10527000FFF7D8FF02B070BD054AEFE789B90B0010
:1052800048CB0B0085B90B0081B90B009FB90B000F
:1052900078B90B002DE9F04F85B01F46BDF9388075
:1052A000BDF83C30A8EB0209A7EB010AB9F1000FE9
:1052B000B8BFC9F10009BAF1000FB8BFCAF1000ABE
:1052C000D14583460C46154604DD3A462C464746F2
:1052D0000D469046BC4205DD2A464546904622468C
:1052E0003C4617463E1BB2B20092A8EB050282EA8A
:1052F000E271A1EBE271C6F3C03202FA86F64545CF
:10530000B4BF01224FF0FF32019176100292BC42ED
:105310001CDCDBF800200393D145D2F81880C7BF0E
:10532000294622462A4621465846C047019A039BF1
:10533000B61AB1B236B2002E05DA029A1544009AB6
:1053400056182DB236B2013424B2E0E705B0BDE8FC
:10535000F08F704710B404682469A4465DF8044BCC
:10536000604730B40468BDF808500295A46BA446A9
:1053700030BC604730B40468BDF808500295E46B57
:10538000A44630BC604770B4BDF90C50BDF8106045
:105390000468CDE90356246CA44670BC60472DE92F
:1053A000F3411C460368BDF820805B69054616463C
:1053B000013C34440F4624B298472B68CDF8048052
:1053C00000949C6A28463B4632463946A0472B68E3
:1053D000DB6A284602B0BDE8F04118472DE9F341E9
:1053E0001D460368BDF820805B69044617460E46DB
:1053F0009847CDE9007822686B1E3344956A2046B1
:105400001BB23A463146A8472368DB6A204602B001
:10541000BDE8F04118472DE9F3471E460368BDF982
:1054200028905B69BDF82C800C46054617469847C6
:105430002644B4422B680BDACDF80080D3F820A0C4
:1054400021464B463A4628460134D04724B2F0E77D
:10545000DB6A284602B0BDE8F047184713B502687A
:105460000191B0F90E100091146CB0F90C300022CB
:105470001146A04702B010BD2DE9F74399421646E8
:10548000BDF92870BDF82C90026880460D461C4678
:1054900013D1BE42C8BF3346CDF82890C4BF3E46A4
:1054A0001F467B1C946B9B1B1BB232462946404611
:1054B000A44603B0BDE8F0436047BE420AD199421A
:1054C000C2BF0B4625461C46631CCDF82890D46B02
:1054D0005B1BE9E753699847CDE90079D8F80030BC
:1054E00040469F6A324623462946B847D8F80030DE
:1054F000DB6A404603B0BDE8F04318472DE9F347A7
:105500001D460368BDF82C805B69BDF928900446F0
:105510000F46164698472368CDF80080D3F824A09C
:1055200032462B4639462046D0472368CDF80080C6
:1055300009F1FF323244D3F824A039462B462046E5
:1055400012B2D0472368CDF80080D3F820A03246AD
:105550004B4639462046D0476B1ED9192368CDF8F3
:1055600000801D6A20464B46324609B2A847236890
:10557000DB6A204602B0BDE8F0471847704701F0EB
:105580000303B0F90A208376C907B0F9083059BF80
:105590008381C2818281C3817047000030B542811E
:1055A000C281074A074D0181002481814FF0FF31FC
:1055B000C0E905124460056004610477046230BDEF
:1055C00001010001C4BE0B002DE9F04F89B0CDE907
:1055D00002120268BDF948800493BDF94C3052694B
:1055E0000593BDF850A00446904718F107024FF00C
:1055F000000648BF08F10E024FEAE20B019635465D
:10560000039B019ABDF904109A18059B8B4212B2B4
:1056100027DD049B33444FF0000906930FFA89F00D
:1056200080451FFA89F117DD4F0705BF069BC010A3
:105630006D001D5C18BFEDB22B060AD5029B2068D9
:1056400007921944836909B21F4620465346B8475A
:10565000079A09F10109E1E7019B013301935E44D7
:10566000CEE72368DB6A204609B0BDE8F04F184753
:105670002DE9F04F2DED028B91B01646026ABDF870
:1056800074809DF878509DF87C4003911F46BDF8CA
:10569000703004938346002A40F0C580B0F90C3086
:1056A0008B4240F34C81B0F90E30B34240F3478156
:1056B000062313FB0513002B40F3418106EBC403C3
:1056C000002B40F33C81037F1BB9AF2F84BF013710
:1056D000FFB2DBF8003058465B6998470522099213
:1056E00000220592984A07EB8703D3180C93B3B2B4
:1056F0000693059A0C9B9B5C0793ABB20B93BDF88A
:105700000C300893039B02FB05F919FA83F90FFA91
:1057100089F308EE103A08230A93039B02EB030A6D
:105720004FF000090FFA8AFA079ADBF80030D20727
:1057300052D5012D1FFA89F23ED1012C3CD19B6933
:1057400006991F46049B0A4412B251465846B84770
:1057500009F101034FFA83F9079B5B0807930A9B42
:10576000013B13F0FF030A93DED1059F01377BB2A3
:105770000593099B013B13F0FF030993B9D1049BE7
:1057800043450FD0012DDBF800303BD1012C39D13E
:105790000899CDF8008005311C6A3246082309B209
:1057A0005846A047DBF80030DB6A584611B0BDEC24
:1057B000028BBDE8F04F1847069914FB02F20A4429
:1057C000049901910094DB6918EE101A1F4612B279
:1057D0002B465846B847BBE7049A4245B8D0012D3E
:1057E0001FFA89F207D1012C05D19B6906991F4642
:1057F0000A444346A8E70699CDF8048014FB02F258
:105800000A44DFE70B9ACDF8048002EB8201089A84
:10581000E4000A4411460094DC6932462B4609B282
:105820005846A047BEE7137A516812680B92FF1AD8
:10583000FFB201EBC70331F8372006929A7809923C
:10584000DA780C92012D93F9052093F906A00A92BB
:1058500001D8012C57D9BDF9283008930FFA8AF3E3
:105860000793DBF8003058465B699847B3B24FF0B6
:1058700000080E931AFA86F3C14647460F930C9B15
:105880009F428FD2079B0E9A3B4403FB04230022C6
:1058900005920F9A1BB202EB070A08EE103A0FFAB4
:1058A0008AFA4346099A0599914241D25A1CD2B2CA
:1058B0005B070D9207D1069B06990B9A01339BB2A9
:1058C00012F80190069319F0800F12D0012DDBF829
:1058D0000030BDF80C101AD1012C18D10A9A9B691E
:1058E0001144059A11441E465246049B09B258467B
:1058F000B047059E0136F3B24FEA490905935FFAB6
:1059000089F90D9BCEE70023CDE90733A9E7059878
:10591000089A024402FB0511049ACDE90042DB69B2
:1059200018EE102A1E4609B22B465846B047E0E74B
:10593000099B013798445FFA88F8FFB29FE711B0DE
:10594000BDEC028BBDE8F08FBCB90B00F0B5026A6C
:1059500085B004460B46002A34D10A2908D1438A6F
:105960000282427E03EBC2036382012005B0F0BDD8
:105970000D29FAD0E17E007E657E71B1B4F9106028
:10598000062111FB0061B4F90C60B142C1BFB4F94A
:105990001210228201EBC5026282E28A0192A28A7F
:1059A0000092CDE90205B4F91220B4F91010204696
:1059B000FFF75EFE237E228A03EB430302EB4303E1
:1059C0002382D2E70A2907D100230382417E927AFB
:1059D000438A01FB0233C7E70D29C6D0157AA942D5
:1059E000C3D3517A9942C0D351685D1BEDB201EB2C
:1059F000C505A87828B3E97819B3E17E267E677ECD
:105A000091B195F905100844B4F9101006FB001186
:105A1000B4F90C00814207DD00202082B4F9121095
:105A2000927A02FB07126282E28A0192A28A0092B3
:105A3000CDE90267B4F91220B4F910102046FFF73F
:105A400017FE2979227E238A01FB0233B8E7012958
:105A500038BF0121017641767047000010B5064B32
:105A600003600446006D08B101F0C4F8204600F060
:105A7000B3FB204610BD00BF1CBF0B0010B5044691
:105A8000FFF7ECFF20467021FEF70DFB204610BD0E
:105A900030B585B004460D4602F0D8FC104A1149D5
:105AA000CDE901214FF0FF328021034600922046CC
:105AB000202200F009FC0C4B23600023C4E91435BC
:105AC00004F1580000F054F804F1600000F050F8C0
:105AD00004F1680000F04CF8204605B030BD00BF6E
:105AE000801A0600A08601001CBF0B0013B50446F7
:105AF000503001F077F8636DD90705D502220421F3
:105B000004F1580000F048F8636D9A0705D50022AB
:105B1000032104F1600000F03FF8636D5B0705D5D9
:105B20000222114604F1680000F036F801230093C8
:105B30003C220221204600F0CFFC02B010BD10B57F
:105B4000436DD907044602D5583000F032F8636D32
:105B50009A0703D504F1600000F02BF8636D5B0732
:105B600005D504F16800BDE8104000F022B810BD72
:105B700000210A22C0E900127047002310B5044634
:105B8000C171837188B202F0B9FB08B10323A3711C
:105B900001F020F8206010BD38B50C4605461146CE
:105BA000A0B202F081FB21462846BDE83840FFF74D
:105BB000E4BF38B50446C07902F0A0FBA5790038EF
:105BC00025F0080318BF0120C5F340058542A371E5
:105BD0000AD000F0FFFFA379206083F00203A371D5
:105BE000A079C0F3C00038BD00F0F4FF2368C01AEC
:105BF000A3889842F4D3A37903F00103AB42EFD01A
:105C000000F0E8FFA379206083F0010343F008036C
:105C1000E5E791F85C3010B50446016013B1886D7A
:105C200000F0F0FF204610BD10B5036893F85C202B
:105C3000044612B1986D00F0EDFF204610BDF8B596
:105C40001F469DF8243004460D4616462BB101230D
:105C500080F85C30583000F0C5FF089B23630023B8
:105C6000636306B1A66425B1294604F1380001F04A
:105C7000ADFB069B2365079BE069A4F84C70FF2BE6
:105C8000B8BFFF23A4F8543008B1FEF70AFAB4F8FD
:105C90005400FEF702FAE061F8BD00002DE9FF4173
:105CA00004460025174698460E4602F0BBF90D49FA
:105CB000E56104F1380001F066FB9DF82830A56429
:105CC000CDE90283FF220F23CDE90032204684F87C
:105CD0005C503B462A463146FFF7B1FF204604B0F0
:105CE000BDE8F08148CB0B0010B50446204602F019
:105CF000F5F80028FAD0204601F0FEFEC0B210BD33
:105D00002DE9F04705468846FFF7EEFFEB6918706E
:105D1000EB6993F800A04FF001090AF0F00A0027A0
:105D20004C462846FFF7E0FF2646EB69985500F001
:105D30007F0313FB09F31F4401340306A4B2BFB26F
:105D40004FEAC919EDD4631EBAF1300F88F800305C
:105D50001ED12846FFF7C8FFEB6918552846FFF704
:105D6000C3FFF41C0236B6B2EB69A4B29855022602
:105D7000B6B2BE420ED22846FFF7B6FFB5F8543091
:105D8000A34284BFEB6918550134A4B20136EFE792
:105D90000026EDE7B5F85430A3422CBF2046002082
:105DA000BDE8F0872DE9F34115461E461A46074621
:105DB0000023964602A802F07F0CBEF17F0F03F18C
:105DC0000104034488BF4CF0800CBEF17F0F4FEA02
:105DD000D212E4B203F804CC1ED8C4F10403C4F117
:105DE0000500E954224601A9284405EB030803F005
:105DF00097FC721C22444146384601F068FE054675
:105E000000F0E8FE621C78623244A8B2131A5842CD
:105E1000584102B0BDE8F0812346CAE70233F0B52D
:105E2000054698B20023CE5C9CB256B1B5F854C07A
:105E3000844503F1010704D9441C16543B46A0B223
:105E4000F1E799B2411A0A44210A02F8021C02F849
:105E5000013CF0BD38B5044601F062FF002814BFD4
:105E60000125002502D1204602F092F8284638BDCF
:105E70002DE9F04788B00446DDF840809DF850A039
:105E8000894617461E46FFF7E5FF0546002840F005
:105E9000CD80214601A8FFF7BCFEA16C002940F08F
:105EA0008880B4F84C20A16B2B46204601F0BAFE46
:105EB00000287AD0012323849DF85430E269042B12
:105EC0005B4B40F08180186899889B79ADF80C1085
:105ED0008DF80E300290C2F805009DF80E30BDF826
:105EE0000C10A2F80910D3720C23B8F1000F00F0C7
:105EF00081809DF848009DF84420400140EAC2009E
:105F000040F00600C0B2BAF1000F01D100F0FD0070
:105F10001FB1002E70D140F08000E269D054226D94
:105F2000E169581C12120A549A1CE169206D8854C8
:105F30000333E26949462046FFF770FF0346B8F194
:105F4000000F0BD0E26941462046FFF767FFE26988
:105F5000139903462046FFF761FF034667B1E269E4
:105F600039462046FFF75AFF03462EB1E269314613
:105F70002046FFF753FF0346053BE2699BB2102121
:105F80002046FFF70FFF00F025FEC4E909004FF49B
:105F90007A76204601F0A2FF88BB00F01BFEA36AC0
:105FA000C01A236D73439842F3D9204601F0F0FFE5
:105FB00035E002A801F042FCB4F84C202B4602A9BF
:105FC000204601F00FFF73E7D3F80700D3F80B105A
:105FD000DB7B0DF1080CACE803008CF8003002AB61
:105FE00003CBC2F80500C2F809109CF800305373C7
:105FF0000E237AE7022086E740F0C0008DE702A971
:106000002046FFF77DFE0428CFD1E369DE78002E1D
:10601000CBD100F0DFFD0125A06284F82C6001A83F
:10602000FFF702FE284608B0BDE8F0870025F9E733
:106030006CBF0B007FB501230422CDE9043200239D
:10604000CDE90233CDE900331A46FFF711FF07B05F
:106050005DF804FB2DE9F74FDDF83C809DF83450E6
:106060009DF8389004468B4616461F46FFF7F2FE11
:106070008246002851D0214601A8FFF7CAFDB4F896
:106080005420E069002103F073FB0523E2695946BF
:106090002046FFF7C3FE6B1E012B15D8218CE36948
:1060A000013189B22184090A1954421CE369218C07
:1060B00092B20230995480B2B8F1000F04D0238C10
:1060C0005A1C2284A8F8003000210B188F42E26984
:1060D0009BB20AD9B4F854C09C4506D916F801C041
:1060E00002F803C0013189B2EFE79DF830100029B2
:1060F0000CBF30213121B9F1000F01D041F008016E
:10610000022D0ED141F00401053B9BB22046FFF762
:1061100049FE824601A8FFF787FD504603B0BDE85F
:10612000F08F012D08BF41F00201EDE71FB5089C7B
:106130000394002402949DF81C4001949DF818409B
:106140000094FFF787FF04B010BD30B587B0044658
:1061500010460591049203F04BFB00250346CDE960
:106160000155DDE9042100952046FFF7DFFF07B068
:1061700030BDF7B504460F461646FFF76BFE0546E1
:1061800010B3214601A8FFF744FD238C01339BB2D5
:10619000EBB12384238CE2691B0A5371E369228CDF
:1061A0009A71E269072339462046FFF737FEE36913
:1061B0001E54043883B2E26982212046FFF7F2FDC3
:1061C000054601A8FFF730FD284603B0F0BD0123C6
:1061D000DFE70022FFF7CDBF10B5044B0360044694
:1061E000C06A08B100F03AFF204610BD38C40B0069
:1061F00010B50446FFF7F0FF20465021FDF753FF8E
:10620000204610BD002910B54BDBB0F90C408C4284
:1062100047DD002A45DBB0F90E40944241DD847E23
:10622000022C1FD0032C26D0012C04D10489D24388
:1062300014440A4621B2012B23D0022B32D083BB57
:10624000002A13460489C06AB8BFD31DDB1013FBB4
:10625000041102F0070201239340425C22EA030288
:1062600042541EE00489013C611A4489D24322440D
:1062700009B212B2DFE74489013C641A114622B226
:10628000D9E7002A04891346B8BFD31DDB1013FBDE
:106290000411C36A02F0070001228240585C0243E5
:1062A0005A5410BD002A13460489C06AB8BFD31DD2
:1062B000DB1013FB041102F00702012303FA02F2C0
:1062C000435C5A40CCE7000070B504461D460026EA
:1062D000FFF764F9114B2360666215B902F0B6F856
:1062E0000546FF2384F8333084F836309DF91030AA
:1062F00084F837300A4BA363012384F83C30059BB4
:10630000A3644FF6FF72069BA286C4E90A56266470
:10631000A4F84460E364204670BD00BF38C40B009D
:1063200084BF0B00F8B50446806A0D4690B194F91D
:10633000301001F0B5FBA06A036800219B68984704
:10634000A06A036829469B689847A06ABDE8F840A0
:1063500001F0ADBB94F93530014698B201F0B5FFBC
:10636000606A20B12946BDE8F84000F0A9BF0826C0
:10637000802794F9330005EA070180B201F0A5FFF8
:1063800094F93400012180B201F09FFF94F93400A8
:10639000002180B201F099FF013E4FEA5707E8D192
:1063A000F8BD38B50446806A0D4680B1A16C01F095
:1063B00069FB002D204614BFA721A621FFF7B2FFDD
:1063C000A06A88B1E16CBDE8384001F05BBB606A4F
:1063D00018B104F1380100F005FF94F936000021EE
:1063E00080B201F072FFE4E794F93600012180B237
:1063F00001F06BFF606A18B1BDE8384000F0D8BE0C
:1064000038BD2DE9F8430446806A0D468F1840B325
:1064100094F9301001F044FBA06A036800219B68E6
:1064200098470126AF42A06A17D01F2E0CD901F061
:106430003EFB94F93010A06A01F032FBA06A0368B9
:1064400000219B6898470126A06A15F8011B036884
:1064500001369B689847F6B2E4E7BDE8F84301F0DF
:1064600026BB94F93530014698B201F02EFFBD42AB
:1064700022D0606A15F8019B18B1494600F020FF50
:10648000F5E708264FF0800894F9330009EA08017F
:1064900080B201F01AFF94F93400012180B201F0BA
:1064A00014FF94F93400002180B201F00EFF013E88
:1064B0004FEA5808E8D1DAE7BDE8F883B0F90A30C6
:1064C000DA1D48BF03F10E02B0F90830C06AD210DD
:1064D0005A43002103F04CB92DE9FF411E46C36A1F
:1064E0009DF8288004460F461546C3B12046FFF7A5
:1064F000E5FFB4F90A00B4F90810202821DC2023B4
:1065000001222038CDE9013200EBD07073237339BA
:10651000009301EBD171894B40F34F0221E0B0F9B8
:106520000A30D81D48BF03F10E00B4F90830C0107E
:10653000584300F08BFDE0620028D7D104B0BDE8DD
:10654000F0814038C0F3C03202FA80F240230120CB
:10655000CDE90130522352390093794B01EBD171CF
:106560005210204641F34F01FFF72EF8A06A84F83D
:106570003170002878D0002D74D1B4F90A30202B66
:106580000CBF3C253D2584F83050B8F1000F01D0F8
:1065900001F07CFAFEB194F9370000281BDB0121E1
:1065A00080B201F081FE94F93700012180B201F040
:1065B0008CFE012001F008F894F93700002180B228
:1065C00001F083FE0A2000F0FFFF94F9370001215B
:1065D00080B201F07AFEA06A002874D0A16C01F0AC
:1065E00051FA042257492046FFF70BFF6189013910
:1065F000C9B22046FFF796FE534904222046FFF712
:1066000000FF94F93130012B0CBF102114212046DA
:10661000FFF788FE04224D492046FFF7F2FEA368EB
:106620004B4A93425CD14B4904222046FFF7E9FED6
:10663000D9212046FFF776FE94F93130012B0CBFAB
:106640002221F1212046FFF76DFE20464249062215
:10665000FFF7D7FEA06A002863D0E16C01F012FAC0
:1066600001206BE76DB28EE794F93500012180B20D
:1066700001F01AFE94F93600012180B201F014FEF7
:1066800094F93600012180B201F01FFE656A3DB128
:10669000B8F1000F3FF47EAF284600F075FD79E7B2
:1066A00094F93300012180B201F0FEFD94F9340029
:1066B000012180B201F0F8FD94F93400294680B23E
:1066C00001F003FE66E7606A18B104F1380100F0DA
:1066D00089FD94F93600002180B201F0F6FD80E7D3
:1066E0001E4A93420ED11E4903222046FFF789FE1F
:1066F00094F93130012B0CBF9F21CF212046FFF7A9
:1067000011FE95E7174A934292D11749032220467A
:10671000FFF777FE94F93130012B0CBF1021AF2128
:10672000ECE794F93600012180B201F0CEFD606AF9
:10673000002895D000F03CFD92E700BF50C20B004E
:1067400090BF0B0098C40B009CC40B00A0C40B00AE
:1067500080002000AAC40B00A4C40B0080004000ED
:10676000AEC40B0060001000B1C40B0070B5002A6D
:10677000BDF810503DDBB0F90A40944239DD0029E4
:10678000BEBF5B181BB20021B0F90840CE18A6426C
:10679000C4BF631A1BB2002B2BDDC06AD61014FBDA
:1067A0000611014402F0070001228240012DD2B2FD
:1067B00016D0022D0BD0E5B9D243D2B20B44994288
:1067C00017D011F8010B104001F8010CF7E70B444A
:1067D00099420ED011F8010B504001F8010CF7E777
:1067E0000B44994205D011F8010B104301F8010C3C
:1067F000F7E770BDF0B50029BDF8145076DBB0F9AD
:106800000860B14272DA002ABEBF9B181BB2002298
:10681000B0F90A40D718A742C4BFA31A1BB2002B75
:1068200064DDC2F3C404C76A16FB041612F0070243
:10683000DBB207EB060423D0C2F10802D2B22D4925
:1068400093423CBF4FF0FF0CA2EB030E895C3CBFB0
:106850004CFA0EFC0CEA0101012D07D0022D2ED0BE
:106860004DB917F806C02CEA010103E017F806C07D
:1068700041EA0C01B955934238D3B0F908100C44E1
:106880009A1AD2B2072A0ED9022D1DD113462178A9
:10689000C9432170083BB0F90810DBB2072B0C4448
:1068A000F5D802F007020AB3134B012D9B5C1AD0F6
:1068B000022D1CD0D5B9227822EA030315E017F87F
:1068C00006C081EA0C01D5E7291E18BF0121494203
:1068D000C9B213462170083BB0F90860DBB2072B40
:1068E0003444F7D8DDE7227813432370F0BD2278D3
:1068F0005340FAE788C40B0090C40B0070B41446F0
:10690000827EBDF80C60022A0DD0032A18D0012A1D
:1069100011D10289E443144424B203960A46214665
:1069200070BCFFF767BF42890589E44319441444EA
:10693000691A24B209B20396224670BCFFF716BF4B
:1069400045891944691A09B2E7E730B41446827ED2
:10695000BDF80850022A0DD0032A18D0012A11D1FF
:10696000E2180489A41A24B202950A46214630BCD2
:10697000FFF7FCBE0289C9431144E2184489A41AF6
:1069800009B224B20295224630BCFFF733BF4289D8
:10699000C943114409B2E7E72DE9F8430446806A88
:1069A000002842D0A16C01F06DF84749052220462D
:1069B000FFF727FD218901392046C9B2FFF7B2FC54
:1069C000B4F90A30DE1D48BF03F10E06D4E90A050A
:1069D0002389F61013FB06F615FA86F600283AD03E
:1069E00094F9301001F05CF8A06A036840219B68BC
:1069F00098470127B542A06A24D01F2F0CD901F077
:106A000056F894F93010A06A01F04AF8A06A0368B9
:106A100040219B6898470127A06A15F8011B03686D
:106A200001379B689847FFB2E4E7606A18B104F148
:106A3000380100F0D7FB94F93600002180B201F054
:106A400044FCB2E701F033F8A06A78B3E16CBDE82A
:106A5000F84301F017B894F93500012180B201F034
:106A600034FCAE42F0D0606A15F8019B18B149467B
:106A700000F026FCF5E708274FF0800894F9330072
:106A800009EA080180B201F020FC94F934000121E8
:106A900080B201F01AFC94F93400002180B201F0B8
:106AA00014FC013F4FEA5808E8D1DAE794F93600C0
:106AB000012180B201F009FC606A18B1BDE8F84319
:106AC00000F076BBBDE8F883B4C40B0000F07CBDD9
:106AD00000F080B8704770477047000003065ABF47
:106AE000024B53F820000020704700BFBCC40B00CD
:106AF00003065ABF024B53F820000020704700BF26
:106B0000BCC60B0008B5024B1B689B68019308BD0F
:106B10006802030008B5024B1B68DB68019308BDDF
:106B20006802030008B5024B1B685B68019308BD4F
:106B30002C02030008B5024B1B689B68019308BD3B
:106B40002C02030008B5024B1B68DB68019308BDEB
:106B50002C02030008B5024B1B681B69019308BD9A
:106B60002C02030008B5024B1B685B69019308BD4A
:106B70002C02030008B5024B1B689B6A019308BDF9
:106B80002C02030008B5024B1B681B6B019308BD68
:106B90002C02030008B5024B1B689B6F019308BDD4
:106BA0002C02030008B5024B1B685B69019308BD0A
:106BB0006C02030008B5024B1B685B68019308BDBB
:106BC0001802030008B5024B1B68DB68019308BD7F
:106BD0001802030008B5024B1B685B69019308BDEE
:106BE0001802030008B5024B1B681B6B019308BD1C
:106BF0004802030008B5024B1B685B6B019308BD9C
:106C00004802030008B5024B1B689B6B019308BD4B
:106C10004802030008B5024B1B681B6C019308BDBA
:106C20004802030008B5024B1B685B6C019308BD6A
:106C30004802030008B5024B1B685B69019308BD5D
:106C40006402030008B5024B1B681B6A019308BD70
:106C50006402030008B5024B1B689B6A019308BDE0
:106C60006402030008B5024B1B68DB68019308BD92
:106C70003C02030008B5024B1B681B69019308BD69
:106C80003C02030008B5024B1B685B69019308BD19
:106C90003C02030008B5024B1B689B69019308BDC9
:106CA0003C02030008B5024B1B68DB69019308BD79
:106CB0003C02030008B5024B1B681B6A019308BD28
:106CC0003C02030008B5024B1B689B6A019308BD98
:106CD0003C02030008B5024B1B681B6C019308BD06
:106CE0003C02030008B5024B1B681B68019308BDFA
:106CF0002802030008B5024B1B68DB68019308BD3E
:106D00002802030008B5024B1B689B69019308BD6C
:106D10002802030008B5024B1B68DB69019308BD1C
:106D20002802030008B5024B1B681B6A019308BDCB
:106D30002802030008B5024B1B685B6A019308BD7B
:106D40002802030008B5024B1B689B6A019308BD2B
:106D50002802030008B5024B1B68DB6A019308BDDB
:106D60002802030008B5024B1B681B6B019308BD8A
:106D70002802030008B5024B1B685B6B019308BD3A
:106D80002802030008B5024B1B681B6C019308BD69
:106D90002802030008B5024B1B689B69019308BDDC
:106DA0003802030008B5024B1B68DB69019308BD7C
:106DB0003802030008B5024B1B681B6A019308BD2B
:106DC0003802030008B5024B1B689B6A019308BD9B
:106DD0003802030008B5024B1B681B6B019308BD0A
:106DE0003802030008B5024B1B689B6B019308BD7A
:106DF0003802030008B5024B1B681B68019308BDED
:106E00003002030008B5024B1B685B69019308BDA3
:106E10003002030008B5024B1B68DB69019308BD13
:106E20003002030008B5024B1B681B6A019308BDC2
:106E30003002030008B5024B1B685B6A019308BD72
:106E40003002030008B5024B1B68DB6B019308BDE1
:106E50003002030008B5024B1B681B6C019308BD90
:106E60003002030008B5024B1B685B6C019308BD40
:106E70003002030008B5024B1B681B68019308BD74
:106E80004C02030008B5024B1B685B68019308BD08
:106E90004C02030008B5024B1B681B69019308BD37
:106EA0004C02030008B5024B1B685B69019308BDE7
:106EB0004C02030008B5024B1B689B69019308BD97
:106EC0004C02030008B5024B1B68DB69019308BD47
:106ED0004C02030008B5024B1B681B6A019308BDF6
:106EE0004C02030008B5024B1B685B6B019308BDA5
:106EF0006002030008B5024B1B681B6D019308BDBF
:106F00006002030008B5024B1B685B68019308BD73
:106F10002002030008B5024B1B685B69019308BDA2
:106F20002002030008B5024B1B68DB6A019308BD11
:106F30002002030008B5034B1B68D3F88830019387
:106F400008BD00002002030008B5034B1B68D3F8FE
:106F50009430019308BD00002002030008B5024BE5
:106F60001B685B68019308BD4002030008B5024B33
:106F70001B689B68019308BD4002030008B5024BE3
:106F80001B68DB68019308BD4002030008B5024B93
:106F90001B681B69019308BD4002030008B5024B42
:106FA0001B685B69019308BD4002030008B5024BF2
:106FB0001B689B69019308BD4002030008B5024BA2
:106FC0001B68DB69019308BD4002030008B5024B52
:106FD0001B681B6A019308BD4002030008B5024B01
:106FE0001B681B6B019308BD4002030008B5024BF0
:106FF0001B685B6B019308BD4002030008B5024BA0
:107000001B681B6C019308BD4002030008B5024BCE
:107010001B685B6C019308BD4002030008B5024B7E
:107020001B689B68019308BD4402030008B5024B2E
:107030001B68DB69019308BD4402030008B5024BDD
:107040001B68DB6B019308BD4402030008B5024BCB
:107050001B681B68019308BD1C02030008B5024BA6
:107060001B685B68019308BD1C02030008B5024B56
:107070001B689B68019308BD1C02030008B5024B06
:107080001B68DB69019308BD1C02030008B5024BB5
:107090001B685B6A019308BD1C02030008B5024B24
:1070A0001B68DB6A019308BD1C02030008B5024B94
:1070B0001B681B6B019308BD1C02030008B5024B43
:1070C0001B68DB6B019308BD1C02030008B5024B73
:1070D0001B681B6C019308BD1C02030008B5024B22
:1070E0001B685B6C019308BD1C0203000022406812
:1070F0001146FFF76BBF002240681146FFF776BFCD
:1071000040680022FFF76ABF4068002281F0010159
:10711000FFF754BF002340681A461946FFF746BFE1
:10712000002340681A461946FFF738BF002240681E
:107130001146FFF72BBF002240681146FFF716BF2C
:10714000406800220221FFF719BF002340681A4659
:10715000FFF704BF024B03225A60024A1A607047CD
:10716000C8E60320C4C80B000021FFF77BBE002146
:10717000FFF770BE10B5044608462170FFF74AFEBF
:1071800000236360204610BD13B504460078FFF766
:10719000EEFF58B9207801904FF6FF71FFF72AFEF5
:1071A000019802B0BDE81040FFF7DEBF02B010BD8D
:1071B0000078FFF7D9BF0000400830B51860002400
:1071C00018688842E5B206D90134082C02D040087C
:1071D0001860F5E70725024B5B5D137030BD00BFFB
:1071E000F8C80B002DE9F04306468FB000780C4636
:1071F000FFF7BDFF00281BDB35781422002109A80A
:1072000002F0B6FA0B23002209A92846ADF8243073
:10721000FFF710FE9DF82D3013B19DF82C5055B19D
:107220000027B946B846012523795DB1C3B10020D6
:107230000FB0BDE8F083DDF830809DF834909DF804
:107240003570F1E7002B35D1A368434508D18DF89F
:1072500020908DF82170BDF82020A3899A42E6D0B5
:107260000023A1688DF80F300A9804AB0DF10F02CE
:10727000FFF7A2FF217985B989B9A36843450ED3E9
:107280008DF820908DF82170BDF82020A3899A42B6
:1072900005D1049B434502D1C9E70029F9D1002358
:1072A0000193637B00939DF80F20237B3078FFF7D9
:1072B000C9FDBCE7CDE900552B462A460121F5E77B
:1072C00008B50078FFF79EFDC0B208BD054B02224D
:1072D0001A60054B054A9A600020C3E90000FFF7D9
:1072E00011BE00BFDCE60320D0E603200000FFFF54
:1072F00010B504460068FFF7B1FE204610BD10B57A
:107300000446006808B1FFF7A9FE0023C4E9013371
:10731000236010BD38B504460D4600680131FFF703
:10732000A5FE10B1C4E90005012038BD10B5036801
:10733000044623B143688B4201D3012010BD20468F
:10734000FFF7E8FF0028F9D0A368002BF5D12268E9
:107350001370F2E737B50D46114601920446FFF768
:10736000E5FF019A28B92046FFF7C9FF204603B080
:1073700030BDA2602946206802F0D2F92268A368D5
:107380000021D154F2E7002313B5C0E900330446CD
:107390008360037341B10846019102F029FA019913
:1073A00002462046FFF7D6FF204602B010BD8842B5
:1073B00010B5044605D00B682BB18A681946FFF753
:1073C000C9FF204610BDFFF79AFFFAE713B5044640
:1073D00059B10846019102F00BFA01990246204684
:1073E000FFF7B8FF204602B010BDFFF788FFF9E7AE
:1073F00010B54368013B0446436063B903689B686A
:107400009847A368013BA3602BB923682046DB683B
:10741000BDE81040184710BD024800230360FFF785
:1074200001BC00BFE0E60320F8B506460D468F1804
:107430000024BD420CD0336815F8011B9B68304610
:107440009847031E01DB1C44F3E7002C08BF1C46D1
:107450002046F8BD13B50446084659B1019102F023
:10746000C7F923680199DB680246204602B0BDE8EF
:107470001040184702B010BD08B5FFF7EBFF08BD7C
:1074800003689B68184738B50D210546FFF7F8FFDC
:107490000A2104462846FFF7F3FF204438BD38B5DB
:1074A0000546FFF7D7FF04462846FFF7ECFF2044C8
:1074B00038BD30B58BB00023012A8DF8243098BF39
:1074C0000A2209AC0D46B1FBF2F101FB125303F0A5
:1074D000FF03092B94BF30333733DBB2AA4204F8E1
:1074E000013DEFD92146FFF7B5FF0BB030BD2DE9C7
:1074F000F04186B000AF05460E46381D14211446F3
:107500003B60FFF7C3FD13280ED8391D2846FFF74F
:10751000A1FF04461EB12846FFF7B5FF04442046EC
:107520001837BD46BDE8F08100F1080323F00703DA
:10753000E846ADEB030D2246411C3B686846FFF769
:10754000A5FD69462846FFF785FF0446C546E1E7E5
:1075500010B50446FFF73EFBE060236820465B69F8
:107560009847002808DAFFF735FBE368C01AA368DC
:107570009842F2D34FF0FF3010BD2DE9F04107469D
:107580000C468E180D46B542A5EB040807D03846C8
:10759000FFF7DEFF031E02DB05F8013BF3E7404681
:1075A000BDE8F081014B024A1A607047E4E603200F
:1075B00008C90B00024B1A68024B1A60704700BFE3
:1075C000C8E00320E8E603200021FFF7A3BC000089
:1075D00010B5044B03600446806908B1FFF708FF4B
:1075E000204610BD00CA0B0010B50446FFF7F0FF9F
:1075F00020461C21FCF757FD204610BD014B002200
:107600009A607047ECE60320014B1860704700BF9A
:10761000CCE0032008B50B4B43B100F07DF90368C3
:107620001B699847002801DDAFF30080064B43B18A
:1076300000F0D0FE03681B699847002801DDAFF316
:10764000008008BD000000000000000008B5FFF742
:10765000E1FFFFF7BFFA014B186008BD44E70320C4
:107660000548064A064908B5121A02F059F8054BB2
:10767000054A1A6008BD00BF00F4032004F403208B
:1076800054D10B0000F403201E1C279A07B50023D9
:1076900000931A466FF07701FFF756FC03B05DF8D0
:1076A00004FB000007B543880A2B08D0502B0BD1F0
:1076B000094B1B684BB103B05DF804EB1847FFF7AB
:1076C000E5FF03B05DF804FB002300931A466FF05A
:1076D0007701FFF739FCF4E700E7032010B5124803
:1076E0000021FFF7FBFC114B1A68114B9A42114B1A
:1076F0000CBF012200221A7001D0FFF7B1FFFFF783
:1077000059FA044602F03CF80B4B13B12046AFF394
:10771000008000210848FFF791FCBDE810400748B1
:107720000021FFF707BC00BF09760B0000F403201F
:107730001E1C279AFCE6032000000000A5760B0023
:10774000704710B518210446FCF7ADFC204610BD6B
:10775000F0B5037D062B8DB00E4600F104074FF007
:10776000000412D000F1080515F8011D0A22304668
:10777000FFF79FFEAF42044419D0002CF4D02E2115
:107780003046FFF77DFE0444EEE72F236A46394674
:107790000A208DF80040FFF74DFA684602F028F8FD
:1077A00033680246DB6869463046984704462046FF
:1077B0000DB0F0BD10B5054B0446112240F8043B56
:1077C000002101F0D5FF204610BD00BF30C90B00DD
:1077D0000346074A10B543F8042B01F1100251F893
:1077E000044B43F8044B9142F9D10A781A7010BD4A
:1077F00030C90B00037D042B04D14068003818BF4A
:1078000001207047062B07D143683BB983682BB929
:10781000C3681BB90069F1E7002070470120704779
:1078200010B59DF8084044EA032343EA024242EAC5
:10783000016104234160037510BD000007B5064BCC
:107840000360CB7800938B784A780978FFF7E8FFDC
:1078500003B05DF804FB00BF30C90B0041747047F2
:107860007047704708B50021007CFFF723FB40EA12
:10787000E07008BD08B50121007CFFF71BFB40EA62
:10788000E07008BD08B5007CFFF70CFB20EAE07053
:1078900008BD08B5007CFFF7FDFA20EAE07008BDDE
:1078A00013B50446007C0191FFF7FCFA002801990A
:1078B00001DC607C20B1207CFFF704FB20EAE07053
:1078C00002B010BD007CFFF705BB10B514210446C3
:1078D000FCF7E9FB204610BD10B54FF47A7304465F
:1078E00008460021C4E90113044B236001232074DE
:1078F00063741146FFF7BEFA204610BD44C90B0061
:10790000007C0022FFF7BEBA10B514220446002105
:1079100001F02EFF204610BD10B50F4C88B003A813
:10792000FFF7F2FF2178BFF35B8F11F001010FD158
:1079300020460191FCF7C6FB019948B103AA07480C
:10794000FFF7CAFF2046FCF7C2FB054801F070FEB6
:10795000024808B010BD00BF04E7032008E7032079
:1079600061780B0070474174704708B5007CFFF7E1
:10797000A9F920EAE07008BD08B5007CFFF77AF9A4
:1079800020EAE07008BD08B5007CFFF783F940EA03
:10799000E07008BD08B5007CFFF774F940EAE070BC
:1079A00008BD007CFFF77EB937B5457C04462DB194
:1079B000207C03B0BDE83040FFF754B9007C019152
:1079C000FFF780F900280199F2DC284603B030BDAA
:1079D00010B514210446FCF766FB204610BD0000DC
:1079E00010B54FF47A730446084611460022C4E9E4
:1079F0000123044B2360012320746374FFF76AF9A9
:107A0000204610BD74C90B007047F8B506461546F0
:107A10000C468F18BC4206D0336814F8011B9B68D3
:107A200030469847F6E72846F8BD007C0022FFF76D
:107A300079B9007C0021FFF77DB9007C0021FFF7B8
:107A400081B9007C0021FFF785B9007C0021FFF798
:107A500089B910B514210446FCF725FB204610BD5A
:107A600010B54FF47A73044608460021C4E90113A7
:107A7000034B236020741146FFF784F9204610BDA4
:107A8000A4C90B00007C0022FFF72CB90023007C66
:107A90001A461946FFF72EB9007C0022FFF732B9CB
:107AA000C9B2FFF7F9BF007C0022FFF733B901210B
:107AB000FFF7F9BF13B503688DF80710DC6B0122DF
:107AC0004FF0FF330DF10701A04702B010BD10B415
:107AD0000368DC6B4FF0FF33A4465DF8044B60474E
:107AE00013B5134602688DF80710D46B0DF107012A
:107AF0000122A04702B010BD10B54369B3F886203B
:107B0000B3F884309A42044608D06369B3F88420FD
:107B1000511CA3F884101344187910BD03681B6925
:107B200098470028F1D14FF0FF30F6E770474369DE
:107B30001868C043C00F704770470000064B994259
:107B400010B500F10C0405D0084600F0D1FC002867
:107B500008BF0024204610BD00C90B0010B5AC21A1
:107B60000446FCF7A0FA204610BDAC21FCF79BBAF6
:107B70002DE9F0414FF0000886B01C46C0F80480A3
:107B800005460E4617464146102202A801F0F0FDB8
:107B9000631C09D04FF47A73B4FBF3F203FB124475
:107BA000CDE902285C4304946869102300930068BF
:107BB00002AB41F2050240F6FF71FFF7EBF8002837
:107BC00007DAFFF77BFA03686B60002006B0BDE8B8
:107BD000F0816869002300683A463146FFF7FAF8F9
:107BE000031EEEDB1846F1E730B587B0044601AD61
:107BF0006846FFF723FE0FCD04340FC42B682370B3
:107C000007B030BD70B54D69054B04468C3544F85E
:107C1000043B06460FCD0FC42B682370304670BD61
:107C200030C90B002DE9F0439846036893B00D4628
:107C30000024DB6A06461746984728466B462246CC
:107C400021460094FEF766FF0546002863D1009B9D
:107C5000002B4BD05B69002B48D006A8FFF7AAFD8C
:107C6000009B5C696378022B04D1211D06A8FFF7F5
:107C7000BBFF26E00A2B24D11122294601A801F0DE
:107C800077FDA368002B38D004F108030DF1040C34
:107C9000183418685968624603C20833A3429446F0
:107CA000F7D1062301A90CA88DF81430FFF790FD39
:107CB0000DF1340CBCE80F0007AC0FC4DCF8003049
:107CC000237006A8FFF796FD80B1336807ADD3F89F
:107CD0002090124B0C930FCD0DAC0FC42B6823706A
:107CE0003A4643460CA93046C84705460098FEF779
:107CF00009FF284613B0BDE8F083E368002BC3D129
:107D00004FF6FF70D4F81090FEF79CFF8145BBD171
:107D100004F11401AAE72546E8E700BF30C90B00CB
:107D200038B543691A68002A054610DAB3F8862088
:107D3000B3F884309A420AD103681B699847044615
:107D400028B92B682846DB6A9847204638BD0120B1
:107D5000FCE710B54369B3F88620B3F884309A4243
:107D6000044605D06369B3F884201344187910BD24
:107D700003681B6998470028F4D14FF0FF30F6E7FD
:107D8000F8B543691746B3F88620B3F884309A42B1
:107D900005460E4616D06969B1F88430B1F88640C0
:107DA000E41ABC4228BF3C460433224619443046FC
:107DB00001F0B6FC6A69B2F884302344A2F884303A
:107DC0002046F8BD03681B6998470028E3D14FF0AF
:107DD000FF34F5E742690023A2F884304269A2F833
:107DE000863070472DE9F0411F4603680C46DB6A78
:107DF0008AB0054616469847237DD5F81480042B93
:107E00000CBF02200A2006220121FEF7EBFFC8F872
:107E100000006B691B68002B08DA2B682846DB6AB8
:107E20000024984720460AB0BDE8F0812846FFF7B5
:107E3000D1FFB7B1002303A9F8B20393ADF8103016
:107E4000FEF7B0FE0028E8D16869062300930068B9
:107E500003AB41F20B0240F6FF71FEF79BFF0028D7
:107E6000DBD11C22002103A801F082FC237D042B1E
:107E70001DD14FF407733046ADF80C30FEF7EAFE23
:107E8000ADF80E006068FEF7DDFE04906B691C2201
:107E9000186803A9FEF78EFF0028BED104340FCC6A
:107EA0006D698C350FC523682B700124BAE740F645
:107EB0001C233046ADF80C30FEF7CCFE05AEADF815
:107EC0000E00231D04F1140718685968324603C2D6
:107ED0000833BB421646F7D1D8E7000030B54269F7
:107EE000B2F886308BB004462BB1B2F884209A42A7
:107EF00001D1FFF76FFF61690868002818DBB1F84E
:107F000086507F2D14D804310823C5F180022944FE
:107F1000FEF758FF002813DD6369B3F886200AB91D
:107F2000A3F884206369B3F886201044A3F8860080
:107F30006369B3F88600B3F88430C01A0BB030BD63
:107F4000FFF7BCF803680B2BF2D0FFF7B7F8036814
:107F50000B2BEDD020230025CDE90235FFF7AEF83D
:107F600003680193084B0949009302AA2B4632206B
:107F7000FEF7C0FF63691868FEF714FF63694FF0EE
:107F8000FF321A60D4E700BFCBC90B00C4C90B0095
:107F900010B5436904461868002801DBFEF702FFAC
:107FA00063694FF0FF321A606069112200218C3042
:107FB00001F0DEFB2046BDE81040FFF70BBF10B517
:107FC000002304460160C0F884308830FFF7F2FBDC
:107FD000204610BD73B500234FF47A72C0E9013218
:107FE0000E4A0361026043610446AC200191FCF734
:107FF00052F8051E05F10C0608D00123C5E901332E
:10800000074B01992B603046FFF7D9FF2046C4E9A2
:108010000565FFF7DFFE02B070BD00BF00CA0B00B0
:10802000E4C90B0010B54FF0FF310446FFF7D2FF53
:10803000204610BD10B504460068002801DBFEF79D
:10804000B1FE204610BD0C30FFF7F4BF002240689F
:108050001146FEF79BBF002240681146FEF7B6BFEF
:10806000002240681146FEF7C1BF40680022FEF7BB
:10807000B5BF4068002281F00101FEF79FBF0023D9
:1080800040681A461946FEF791BF002340681A4619
:108090001946FEF783BF002240681146FEF766BF0F
:1080A000406800220221FEF769BF002340681A469B
:1080B000FEF754BF024B04225A60024A1A6070470E
:1080C0001CE703204CCA0B00002340681A46FEF749
:1080D00045BF406800220221FEF750BF00224068E1
:1080E0001146FEF743BF002240681146FEF74EBF1F
:1080F000002340681A461946FEF750BF0023406827
:108100001A461946FEF752BF40680021FEF776BFB7
:1081100040680021FEF77ABF4068002281F001012B
:10812000FEF74CBF40680022FEF758BF00224068AF
:108130001146FEF75BBF002240681146FEF746BFBE
:108140002DE9F04395B014460D460746FFF732FB84
:1081500000211C220DA8009101F00AFB40230C9382
:1081600020466B460CAA0021FEF7D4FC04460028EA
:108170004BD1024601216868FEF708FF02218046C4
:1081800022466868FEF702FF009E81462146002EC7
:108190003BD0002939D17368022B03D00A2B11D0B0
:1081A000F669F4E7B8F1000FFAD0716906A8043156
:1081B00007ADFFF743FB0FCD3C1D0FC42B682370A9
:1081C0004146EDE7B9F1000FEAD07469102201A829
:1081D00001F0CEFA06238DF8143001AD04F1080346
:1081E0001834186859682A4603C20833A342154652
:1081F000F7D101A906A807ADFFF7EAFA0FCD3C1D9C
:108200000FC42B6823704946CAE70098FEF77AFC32
:10821000384615B0BDE8F083024B034A1A600022CD
:108220005A60704724E7032088CA0B00232813B53F
:1082300002D9002002B010BDA0F10B03022B1AD806
:10824000174C2178BFF35B8F11F001010BD1204651
:108250000191FBF737FF019928B11248FEF78AFF19
:108260002046FBF734FF0F4B1878FEF7DBFD0028A4
:10827000DFD10120DEE7012809D800F0E7F800216E
:10828000007CFEF777FD80F00100C0B2D2E709382C
:108290000128EED800F09EF8007CFEF70BFDF2E717
:1082A000BCE60320C0E60320232838B504460D466B
:1082B0000AD8FF2908D0FFF7B9FF28B12946204680
:1082C000BDE83840FEF736BC38BD38B504460D462B
:1082D000FEF738FCFF2810D0062804D84D2323FAD7
:1082E00000F0C30709D42046FFF7A0FF28B12946B4
:1082F0002046BDE83840FEF72DBC38BD10B5044619
:10830000FEF720FC031FDBB2012B08D92046FFF744
:108310008DFF20B12046BDE81040FEF723BC0020B1
:1083200010BD0D2810B504469CBF0E34A4B22046E3
:10833000FFF77CFF50B103212046FEF7F3FB032833
:1083400004D12046BDE81040FEF71CBC002010BD43
:1083500038B504460D46FFF769FFF0B10421204609
:10836000FEF7E0FB042805D1A9B22046BDE838405D
:10837000FEF700BC02212046FEF7D4FB02280CD1F8
:108380002046FEF7DFFB012801D0042805D129464D
:108390002046BDE83840FEF7FDBB38BD7047000001
:1083A00038B5044614252A46002101F0E1F925805C
:1083B0004025074925812846258200F06BF80449AD
:1083C0006060284600F066F8E060204638BD00BFD7
:1083D000BCCA0B0030B50E4D2978BFF35B8F11F08E
:1083E000010487B011D12846FBF76CFE68B101A8E3
:1083F000FFF7D6FF01AA21460648FFF7F1FA284603
:10840000FBF765FE044801F013F9024807B030BDE0
:108410002CE7032030E703209D830B00704700000A
:1084200038B520251423044603608560056106499C
:10843000284600F02FF804496060284600F02AF82A
:10844000E060204638BD00BFBCCA0B0030B50E4D01
:108450002978BFF35B8F11F0010487B011D1284652
:10846000FBF730FE68B101A8FFF7DAFF01AA214649
:108470000648FFF7F5FA2846FBF729FE044801F005
:10848000D7F8024807B030BD48E703204CE7032087
:108490001D840B00FBF701BE08B5FEF7FFFD08B514
:1084A000FEF7FCFD08B5FEF7F9FD08B5FEF7F6FD91
:1084B00008B5FEF7F3FD0FB480B584B000AF07F147
:1084C000180454F8042B7A60104601F091F900F278
:1084D000072323F00703ADEB030D00F500717A6865
:1084E000FC602346684600F05BF8FEF7D7FD00000D
:1084F000014900F0A3BB00BFD8CA0B0080B59CB0F7
:10850000064600AF0C46A41B0E496922381D01F037
:1085100007F904F1700323F00703ADEB030D6D467B
:108520006822391D284601F0FBF82246314605F144
:1085300068002C4401F0F4F8002384F868302846E1
:10854000FFF7ADFFE0CA0B002DE9F04100AF84B0AA
:108550006D4605F10C04DFF8448023464FF00A0C09
:10856000B2FBFCF60CFB162E18F80EE003F801ED3A
:108570009646BEF1090F3246F2D8E41A8C4209D869
:10858000C4F10C032246E91801F0CAF82046BD46A2
:10859000BDE8F0814FF0FF34F8E700BF49CB0B0096
:1085A00001392DE9F0410746154600EB0108044664
:1085B0002A7892B344452AD2252A07D16A78732AA9
:1085C00009D07A2A12D0252A00D1013515F8012BBD
:1085D00004F8012BECE753F8042B013A12F8011FC1
:1085E000C9B1444513D004F8011BF7E7AA78752AEE
:1085F000ECD11E46A8EB040156F8042B2046FFF7E9
:10860000A3FF002803DD044403353346D0E72146A9
:108610003846FFF773FF0235CAE72270E01BBDE85A
:10862000F0810AB101F07CB870470AB101F068B876
:108630001046704713460A4611B1197801F010B878
:108640000846704708B50B68B3F1804F02D30D4858
:10865000FFF72BFF93420BD9B3EB420F4FEA4200D7
:1086600006D2B0F1804F2ABF6FF0404308600B6024
:108670000868013001D5FFF70FFFBDE80840FBF7A0
:108680000ABD00BF54CB0B0050F8083B834202D018
:108690001846FBF704BD704708B5034608465B68FB
:1086A0009842114603D902460148FFF704FF08BD6E
:1086B0006CCB0B00406801F180410139091A9142ED
:1086C00008B502D21846FFF7F0FE08BD03688B42DA
:1086D00006D840681844814294BF002001207047AA
:1086E00001207047012A10B404D10A785DF8044BC8
:1086F000027070475DF8044BFFF793BF012A30B456
:1087000003D10B78037030BC7047002AFBD030BC1B
:1087100001F014B808B5521AFFF7E4FF08BD88420B
:10872000F7B504460E461ED003464D6853F8082B95
:108730009A4214BF82680F22AA420AD201A9019567
:10874000FFF780FF07462046FFF79EFF019B27604B
:10875000A36025B1316820682A46FFF7C3FF23686C
:10876000656000225A5503B0F0BD2DE9F3470A9E1B
:108770001F46436801EB0208B21A1A44A3EB08092A
:108780000346019253F8082B9A4218BF82680D469F
:1087900008BF0F2201A90446FFF754FF82461DB10E
:1087A00021682A46FFF79EFF37B12EB1324639467F
:1087B0000AEB0500FFF796FFB9F1000F07D021681B
:1087C00035444A4641440AEB0500FFF78BFF20463B
:1087D000FFF75AFF019BC4F800A0A36002B0BDE8F8
:1087E000F08700002DE9F74F0C9D144680462A467D
:1087F00089461F462146394BFFF75CFF4246D8F8B1
:10880000043052F8086B964218BFD8F80820A5EB40
:10881000040B03EB0B0A08BF0F22524551D34E4401
:108820003946A1444046A3EB0909FFF74FFF80B149
:10883000B9F1000F06D0AC4204D04A463119701984
:10884000FFF75CFF15B32A4639463046FFF74AFF6B
:108850001CE035B1AC423CD32A4639463046FFF7DE
:108860004DFFB9F1000F11D0AC420FD04A4631197B
:108870007019FFF743FFAC4208D234447B199C4285
:108880000FD32A4639463046FFF738FFD8F8003074
:10889000C8F804A00022404603F80A2003B0BDE84F
:1088A000F08FBC4203D82A4607EB0B01CDE7E41B4F
:1088B000224639463046FFF721FF2A1B711930192D
:1088C000C4E700953B46224649464046FFF74DFF28
:1088D000DCE7B9F1000FD0D0C8E700BFA3CB0B0095
:1088E0002DE9F7430E461D46416823B9914221D236
:1088F0004FF0FF321EE09142FAD9D0F80080337871
:108900008DF8073008EB010708EB0200891AC5F162
:108910000109A942ECD30DF107024944FFF78AFE91
:1089200004460028E4D02A463146FFF77EFE28B9E7
:10893000A4EB0802104603B0BDE8F083601C391AAE
:10894000E7E708B5D1E90013FFF7CAFF08BD13B583
:10895000044608460192009100F04AFFDDE900124A
:1089600003462046FFF7BCFF02B010BD73B5466852
:1089700001910546084600F03BFF86420446324618
:10898000019928BF02462868FFF74FFE00B9301B47
:1089900002B070BD73B5044616460D4619B912B142
:1089A0000D48FFF77CFD731B0F2B019307D90022A5
:1089B00001A92046FFF746FE019B2060A3603246D6
:1089C00029462068FFF7A6FE019B2268636000210C
:1089D000D15402B070BD00BFBCCB0B0008B54FF046
:1089E0000003FFF7D7FF08BD2DE9F0410D461746FC
:1089F000984600F10803044603603946094A2846B0
:108A0000FFF74AFE2E686A683118D21B204642459D
:108A100094BF8A1801EB0802FFF7E0FF2046BDE88B
:108A2000F08100BFE6CB0B0037B50D46044611467A
:108A30002846064A0193FFF72FFE019B024629466E
:108A40002046FFF7D1FF204603B030BD01CC0B001C
:108A50007FB500241023CDE90234036815469E69D2
:108A600012686B46CDE90044B0479DF8043003F02E
:108A70000603062B03BF009B2B600120204604B099
:108A800070BD0098904214BF01200620704700007E
:108A900010B5034B0360044600F0CDF8204610BD2E
:108AA00050CC0B0010B50446FFF7F2FF204608211A
:108AB000FBF7F9FA204610BD2DE9F0411F46DDE92C
:108AC0000834DDF8188098450646154607D1079901
:108AD00000F0B4F818B165710020BDE8F0813946A6
:108AE000304600F0ABF80028F6D00123C4F800802F
:108AF0002571A371F0E738B515461C4600F09EF8C5
:108B000020B10823E36006232560237138BD73B5C7
:108B100005460C4601921E4600F090F850B9032E0F
:108B200008D82368019A5B692946204602B0BDE84F
:108B30007040184702B070BD10B5034B0360044687
:108B4000FFF7A6FF204610BDB0CC0B0010B50446C1
:108B5000FFF7F2FF20460C21FBF7A5FA204610BDD7
:108B6000F7B5089F974205460E4614460AD0A868F6
:108B700002680897156A31462246AC4603B0BDE844
:108B8000F04060471946019300F058F8019B002817
:108B9000EDD0062003B0F0BD2DE9F14F0D4619468A
:108BA000DDE90A4BDDE90CA681461746984600F040
:108BB00045F890B1002D3460377109DB61198A45A1
:108BC0000CBF06210121B171002001B0BDE8F08F7A
:108BD0000235F9D10123B371F6E7544506D1594660
:108BE000484600F02BF808B17771EDE7D9F8080096
:108BF0000368CDE90CA6CDE90A4BDC693A46434649
:108C00002946A44601B0BDE8F04F60472DE9F04188
:108C100007460C4615461E46FFF76DFF48B9B86873
:108C200003689F692A4633462146BC46BDE8F041A9
:108C30006047BDE8F081704700207047814208B569
:108C40000ED0406803782A2B0CD049680B782A2B69
:108C500008BF013100F0C2FDB0FA80F0400908BD44
:108C60000120FCE70020FAE781F0004102E000BFAC
:108C700083F0004330B54FEA41044FEA430594EADC
:108C8000050F08BF90EA020F1FBF54EA000C55EA17
:108C9000020C7FEA645C7FEA655C00F0E2804FEAE8
:108CA0005454D4EB5555B8BF6D420CDD2C4480EACA
:108CB000020281EA030382EA000083EA010180EAFA
:108CC000020281EA0303362D88BF30BD11F0004F48
:108CD0004FEA01314FF4801C4CEA113102D040427E
:108CE00061EB410113F0004F4FEA03334CEA1333B9
:108CF00002D0524263EB430394EA050F00F0A780D1
:108D0000A4F10104D5F1200E0DDB02FA0EFC22FACB
:108D100005F2801841F1000103FA0EF2801843FABF
:108D200005F359410EE0A5F120050EF1200E012AB0
:108D300003FA0EFC28BF4CF0020C43FA05F3C018EE
:108D400051EBE37101F0004507D54FF0000EDCF167
:108D5000000C7EEB00006EEB0101B1F5801F1BD310
:108D6000B1F5001F0CD349085FEA30004FEA3C0C14
:108D700004F101044FEA445212F5800F80F09A800A
:108D8000BCF1004F08BF5FEA500C50F1000041EB0E
:108D9000045141EA050130BD5FEA4C0C404141EB12
:108DA0000101013C28BFB1F5801FE9D291F0000F0D
:108DB00004BF01460020B1FA81F308BF2033A3F1BC
:108DC0000B03B3F120020CDA0C3208DD02F1140CB3
:108DD000C2F10C0201FA0CF021FA02F10CE002F1EE
:108DE0001402D8BFC2F1200C01FA02F120FA0CFCE7
:108DF000DCBF41EA0C019040E41AA2BF01EB045130
:108E0000294330BD6FEA04041F3C1CDA0C340EDC2D
:108E100004F11404C4F1200220FA04F001FA02F370
:108E200040EA030021FA04F345EA030130BDC4F12E
:108E30000C04C4F1200220FA02F001FA04F340EA23
:108E40000300294630BD21FA04F0294630BD94F0D4
:108E5000000F83F4801306BF81F480110134013DBB
:108E60004EE77FEA645C18BF7FEA655C29D094EA2C
:108E7000050F08BF90EA020F05D054EA000C04BFAA
:108E80001946104630BD91EA030F1EBF0021002095
:108E900030BD5FEA545C05D14000494128BF41F034
:108EA000004130BD14F580043CBF01F5801130BD98
:108EB00001F0004545F0FE4141F470014FF0000023
:108EC00030BD7FEA645C1ABF194610467FEA655CD4
:108ED0001CBF0B46024650EA013406BF52EA033576
:108EE00091EA030F41F4002130BD00BF90F0000F64
:108EF00004BF0021704730B54FF4806404F13204A0
:108F00004FF000054FF0000150E700BF90F0000F58
:108F100004BF0021704730B54FF4806404F132047F
:108F200010F0004548BF40424FF000013EE700BF4F
:108F300042004FEAE2014FEA31014FEA02701FBFDF
:108F400012F07F4393F07F4F81F06051704732F011
:108F50007F4208BF704793F07F4F04BF41F4002168
:108F6000704730B54FF4607401F0004521F00041C6
:108F70001CE700BF50EA010208BF704730B54FF050
:108F800000050AE050EA010208BF704730B511F051
:108F9000004502D5404261EB41014FF4806404F189
:108FA00032045FEA915C3FF4D8AE4FF003025FEA0F
:108FB000DC0C18BF03325FEADC0C18BF033202EB93
:108FC000DC02C2F1200300FA03FC20FA02F001FAED
:108FD00003FE40EA0E0021FA02F11444BDE600BF90
:108FE00070B54FF0FF0C4CF4E06C1CEA11541DBF3F
:108FF0001CEA135594EA0C0F95EA0C0F00F0DEF80A
:109000002C4481EA030621EA4C5123EA4C5350EAEE
:10901000013518BF52EA033541F4801143F480133F
:1090200038D0A0FB02CE4FF00005E1FB02E506F0D0
:109030000042E0FB03E54FF00006E1FB03569CF025
:10904000000F18BF4EF0010EA4F1FF04B6F5007F2B
:1090500064F5407404D25FEA4E0E6D4146EB06069D
:1090600042EAC62141EA55514FEAC52040EA5E5026
:109070004FEACE2EB4F1FD0C88BFBCF5E06F1ED8D0
:10908000BEF1004F08BF5FEA500E50F1000041EB07
:10909000045170BD06F0004646EA010140EA0200B4
:1090A00081EA0301B4EB5C04C2BFD4EB0C0541EAD6
:1090B000045170BD41F480114FF0000E013C00F3EB
:1090C000AB8014F1360FDEBF002001F0004170BD0F
:1090D000C4F10004203C35DA0C341BDC04F1140428
:1090E000C4F1200500FA05F320FA04F001FA05F2B4
:1090F00040EA020001F0004221F0004110EBD37081
:1091000021FA04F642EB06015EEA430E08BF20EAAC
:10911000D37070BDC4F10C04C4F1200500FA04F34F
:1091200020FA05F001FA04F240EA020001F00041E1
:1091300010EBD37041F100015EEA430E08BF20EA54
:10914000D37070BDC4F1200500FA05F24EEA020E9C
:1091500020FA04F301FA05F243EA020321FA04F0CB
:1091600001F0004121FA04F220EA020000EBD37082
:109170005EEA430E08BF20EAD37070BD94F0000F82
:109180000FD101F00046400041EB010111F4801FB6
:1091900008BF013CF7D041EA060195F0000F18BF67
:1091A000704703F00046520043EB030313F4801FA3
:1091B00008BF013DF7D043EA0603704794EA0C0F5D
:1091C0000CEA135518BF95EA0C0F0CD050EA410673
:1091D00018BF52EA4306D1D181EA030101F00041F0
:1091E0004FF0000070BD50EA410606BF1046194618
:1091F00052EA430619D094EA0C0F02D150EA013624
:1092000013D195EA0C0F05D152EA03361CBF104664
:1092100019460AD181EA030101F0004141F0FE4103
:1092200041F470014FF0000070BD41F0FE4141F487
:10923000780170BD70B54FF0FF0C4CF4E06C1CEA87
:1092400011541DBF1CEA135594EA0C0F95EA0C0F3C
:1092500000F0A7F8A4EB050481EA030E52EA0335F7
:109260004FEA013100F088804FEA03334FF0805518
:1092700045EA131343EA12634FEA022245EA111545
:1092800045EA10654FEA00260EF000419D4208BFF6
:10929000964244F1FD0404F5407402D25B084FEAA3
:1092A0003202B61A65EB03055B084FEA32024FF44F
:1092B00080104FF4002CB6EB020E75EB030E22BFAC
:1092C000B61A754640EA0C005B084FEA3202B6EB6C
:1092D000020E75EB030E22BFB61A754640EA5C001B
:1092E0005B084FEA3202B6EB020E75EB030E22BFAB
:1092F000B61A754640EA9C005B084FEA3202B6EBAC
:10930000020E75EB030E22BFB61A754640EADC006A
:1093100055EA060E18D04FEA051545EA16754FEACC
:1093200006164FEAC30343EA52734FEAC2025FEAEA
:109330001C1CC0D111F4801F0BD141EA00014FF079
:1093400000004FF0004CB6E711F4801F04BF01434A
:109350000020B4F1FD0C88BFBCF5E06F3FF6AFAE66
:10936000B5EB030C04BFB6EB020C5FEA500C50F1F6
:10937000000041EB045170BD0EF0004E4EEA113179
:1093800014EB5C04C2BFD4EB0C0541EA045170BD80
:1093900041F480114FF0000E013C90E645EA060EC4
:1093A0008DE60CEA135594EA0C0F08BF95EA0C0FF2
:1093B0003FF43BAF94EA0C0F0AD150EA01347FF43A
:1093C00034AF95EA0C0F7FF425AF104619462CE711
:1093D00095EA0C0F06D152EA03353FF4FDAE104674
:1093E000194622E750EA410618BF52EA43067FF4C5
:1093F000C5AE50EA41047FF40DAF52EA43057FF455
:10940000EBAE12E74FF0FF3C06E000BF4FF0010C5F
:1094100002E000BF4FF0010C4DF804CD4FEA410CC3
:109420007FEA6C5C4FEA430C18BF7FEA6C5C1BD090
:1094300001B050EA410C0CBF52EA430C91EA030F11
:1094400002BF90EA020F0020704710F1000F91EA6E
:10945000030F58BF994208BF90422CBFD8176FEA3C
:10946000E37040F0010070474FEA410C7FEA6C5C0A
:1094700002D150EA013C07D14FEA430C7FEA6C5C11
:10948000D6D152EA033CD3D05DF8040B704700BF3D
:109490008446104662468C461946634600E000BF8B
:1094A00001B5FFF7B7FF002848BF10F1000F01BD5D
:1094B0004DF808EDFFF7F4FF0CBF012000205DF828
:1094C00008FB00BF4DF808EDFFF7EAFF34BF0120AD
:1094D00000205DF808FB00BF4DF808EDFFF7E0FF46
:1094E00094BF012000205DF808FB00BF4DF808ED97
:1094F000FFF7CEFF94BF012000205DF808FB00BFFE
:109500004DF808EDFFF7C4FF34BF012000205DF8DF
:1095100008FB00BF4A0011D212F5001211D20DD57E
:109520006FF47873B3EB62520ED44FEAC12343F069
:10953000004343EA505323FA02F070474FF0000013
:10954000704750EA013002D14FF0FF3070474FF0C2
:10955000000070474FEA4102B2F1E04324BFB3F587
:10956000001CDCF1FE5C0DD901F0004C4FEAC0029A
:109570004CEA5070B2F1004F40EB830008BF20F07E
:109580000100704711F0804F21D113F13872BCBF38
:1095900001F00040704741F480114FEA5252C2F18D
:1095A0001802C2F1200C10FA0CF320FA02F018BFD6
:1095B00040F001004FEAC1234FEAD32303FA0CFC29
:1095C00040EA0C0023FA02F34FEA4303CCE77FEAB8
:1095D000625307D150EA01331EBF4FF0FE4040F402
:1095E0004000704701F0004040F0FE4040F40000B1
:1095F000704700BFD0B50C4B002206460F46FFF760
:10960000EFFCFFF787FF0446FFF770FC074B0022D3
:10961000FFF7E6FC02460B4630463946FFF728FBCB
:10962000FFF778FF2146D0BD0000F03D0000F0417B
:10963000002301461A46184600F0C4BF002100F07E
:1096400029BF0A22002100F0B3BF0A22002100F046
:10965000AFBF00000000000000000000000000009C
:1096600001F0FF01102A2BDB10F0070F08D010F8D3
:10967000013B013A8B422DD010F0070F42B3F6D1D7
:10968000F0B441EA012141EA014122F007047FF0F0
:1096900000070023F0E80256083C85EA010586EA47
:1096A000010685FA47F5A3FA87F586FA47F6A5FA83
:1096B00087F68EB9EED1F0BC01F0FF0102F007028F
:1096C00032B110F8013B013A83EA010313B1F8D13A
:1096D0000020704701387047002D06BF354603381B
:1096E000073815F0010F07D1013015F4807F02BF54
:1096F000013015F4C03F0130F0BC0138704700BFA5
:1097000010B501390244904201D1002005E00378F0
:1097100011F8014FA34201D0181B10BD0130F2E730
:109720000A44914200F1FF3300D1704710B511F89F
:10973000014B03F8014F9142F9D110BD884210B599
:1097400001EB020402D98442234607D8431EA142FA
:1097500008D011F8012B03F8012FF8E70244014665
:109760008A4200D110BD13F8014D02F8014DF7E710
:1097700002440346934200D1704703F8011BF9E706
:1097800038B5104B1D68AB6B0446B3B91820FDF714
:109790005DFC0246A86320B90B4B0C484221FDF743
:1097A00095FC0B490B4BC0E900130B4B83600B235B
:1097B000838100210120C2E90401AB6B00221C61FE
:1097C0005A6138BDCCE00320E9CC0B0000CD0B0082
:1097D0000E33CDAB34126DE6ECDE050010F8012B34
:1097E00011F8013B012A28BF9A42F7D0D01A7047DE
:1097F000034613F8012B002AFBD1181A01387047D1
:1098000010B57AB103460139841813F8010B11F829
:10981000012F904201D1A34201D1801A10BD00282E
:10982000F3D1FAE71046F9E710B50139034632B132
:1098300011F8014F03F8014B013A002CF7D11A44FB
:109840000021934200D110BD03F8011BF9E770B568
:1098500004460D4645EC104B164601F00DFE51EC4A
:10986000100B7EB1C5F30A53C3F16B03002B09DD66
:109870001B0503F17F55002405F5401522462B46B4
:10988000FFF7AEFB70BD00002DE9F04F2DED028B10
:109890009DB01F4600231893A24B13921B6805939B
:1098A000044618468846FFF7A3FF4FF0000A054616
:1098B0004FF0000BCDF85C80179B1A782B2A4ED006
:1098C0003BD80D2A34D8082A34D8002A3ED00023A9
:1098D0000A93179E3378302B40F0B080737803F0F2
:1098E000DF03582B68D10A9B019318AB02970093B2
:1098F0008D4A19AB17A9204600F02EFF10F007077C
:10990000054605D0062F2CD10136002317960A9361
:10991000139B002B40F090850A9BEBB152460BF154
:10992000004343EC102B1DB0BDEC028BBDE8F08F63
:10993000202ACCD101331793BEE72D2AC7D10122AB
:109940000A925A1C17925B78002BC2D1139BCDF858
:109950005C80002B40F06E8552465B46E1E70022BA
:10996000EEE7189A3AB135211AA801F090FE18993D
:10997000204601F04FFA013F042F06D8DFE807F038
:109980000A0314170A00DDE91AAB2807C0D54BF00B
:10999000004BBDE7DDE91AA3199A23F4801302F204
:1099A000334243EA025BF0E7DFF880B1EDE76FF0A6
:1099B000004B4FF0FF3AE8E7179B5A1C17925B7871
:1099C000302BF9D0002BA3D001234FF000090493D2
:1099D000179B0893CDF81C904F460A2217980678DB
:1099E000A6F13003D9B209292AD905992A46FFF7E9
:1099F00007FF98B3002032463D4605900346652A8E
:109A000001D0452A18D11DB9049A02439ED00025E1
:109A1000DDF85C8008F10102179298F801202B2AEA
:109A200075D02D2A7BD04FF0000CA2F1300109290E
:109A300040F28280CDF85C8000269DE00023C4E7E0
:109A4000082FD8BF079900F10100DABF02FB0133EC
:109A5000079302FB093901371790BFE7179B5A1983
:109A600017925A5D002F37D005903D46A2F1300382
:109A7000092B12D90123C2E7179B5A1C17925A7857
:109A80000130302AF8D0A2F13103082B00F2D9843A
:109A9000179B0590002008930546303A00F101031A
:109AA00014D00599194405912B4600EB050E0A21A7
:109AB000734513D12B18082B05F1010505441CDC57
:109AC00007990A2303FB012307930023179A511CCC
:109AD000179152781846C9E73846D2E7082B04DCBC
